{
  "_format": "hh-sol-artifact-1",
  "contractName": "MerkleDrop",
  "sourceName": "contracts/migration/MerkleDrop.sol",
  "abi": [
    {
      "anonymous": false,
      "inputs": [
        {
          "indexed": false,
          "internalType": "address",
          "name": "claimant",
          "type": "address"
        },
        {
          "indexed": false,
          "internalType": "uint256",
          "name": "week",
          "type": "uint256"
        },
        {
          "indexed": false,
          "internalType": "uint256",
          "name": "balance",
          "type": "uint256"
        }
      ],
      "name": "Claimed",
      "type": "event"
    },
    {
      "anonymous": false,
      "inputs": [
        {
          "indexed": true,
          "internalType": "address",
          "name": "_address",
          "type": "address"
        }
      ],
      "name": "RemovedFunder",
      "type": "event"
    },
    {
      "anonymous": false,
      "inputs": [
        {
          "indexed": false,
          "internalType": "uint256",
          "name": "tranche",
          "type": "uint256"
        },
        {
          "indexed": false,
          "internalType": "bytes32",
          "name": "merkleRoot",
          "type": "bytes32"
        },
        {
          "indexed": false,
          "internalType": "uint256",
          "name": "totalAmount",
          "type": "uint256"
        }
      ],
      "name": "TrancheAdded",
      "type": "event"
    },
    {
      "anonymous": false,
      "inputs": [
        {
          "indexed": false,
          "internalType": "uint256",
          "name": "tranche",
          "type": "uint256"
        }
      ],
      "name": "TrancheExpired",
      "type": "event"
    },
    {
      "anonymous": false,
      "inputs": [
        {
          "indexed": true,
          "internalType": "address",
          "name": "_address",
          "type": "address"
        }
      ],
      "name": "Whitelisted",
      "type": "event"
    },
    {
      "constant": false,
      "inputs": [
        {
          "internalType": "address",
          "name": "_claimer",
          "type": "address"
        },
        {
          "internalType": "uint256",
          "name": "_tranche",
          "type": "uint256"
        },
        {
          "internalType": "uint256",
          "name": "_balance",
          "type": "uint256"
        },
        {
          "internalType": "bytes32[]",
          "name": "_merkleProof",
          "type": "bytes32[]"
        }
      ],
      "name": "claimTranche",
      "outputs": [],
      "payable": false,
      "stateMutability": "nonpayable",
      "type": "function"
    },
    {
      "constant": true,
      "inputs": [
        {
          "internalType": "uint256",
          "name": "",
          "type": "uint256"
        },
        {
          "internalType": "address",
          "name": "",
          "type": "address"
        }
      ],
      "name": "claimed",
      "outputs": [
        {
          "internalType": "bool",
          "name": "",
          "type": "bool"
        }
      ],
      "payable": false,
      "stateMutability": "view",
      "type": "function"
    },
    {
      "constant": false,
      "inputs": [
        {
          "internalType": "uint256",
          "name": "_trancheId",
          "type": "uint256"
        }
      ],
      "name": "expireTranche",
      "outputs": [],
      "payable": false,
      "stateMutability": "nonpayable",
      "type": "function"
    },
    {
      "constant": false,
      "inputs": [
        {
          "internalType": "address",
          "name": "_nexus",
          "type": "address"
        },
        {
          "internalType": "address[]",
          "name": "_funders",
          "type": "address[]"
        },
        {
          "internalType": "contract IERC20",
          "name": "_token",
          "type": "address"
        }
      ],
      "name": "initialize",
      "outputs": [],
      "payable": false,
      "stateMutability": "nonpayable",
      "type": "function"
    },
    {
      "constant": true,
      "inputs": [
        {
          "internalType": "uint256",
          "name": "",
          "type": "uint256"
        }
      ],
      "name": "merkleRoots",
      "outputs": [
        {
          "internalType": "bytes32",
          "name": "",
          "type": "bytes32"
        }
      ],
      "payable": false,
      "stateMutability": "view",
      "type": "function"
    },
    {
      "constant": true,
      "inputs": [],
      "name": "nexus",
      "outputs": [
        {
          "internalType": "contract INexus",
          "name": "",
          "type": "address"
        }
      ],
      "payable": false,
      "stateMutability": "view",
      "type": "function"
    },
    {
      "constant": false,
      "inputs": [
        {
          "internalType": "bytes32",
          "name": "_merkleRoot",
          "type": "bytes32"
        },
        {
          "internalType": "uint256",
          "name": "_totalAllocation",
          "type": "uint256"
        }
      ],
      "name": "seedNewAllocations",
      "outputs": [
        {
          "internalType": "uint256",
          "name": "trancheId",
          "type": "uint256"
        }
      ],
      "payable": false,
      "stateMutability": "nonpayable",
      "type": "function"
    },
    {
      "constant": true,
      "inputs": [],
      "name": "token",
      "outputs": [
        {
          "internalType": "contract IERC20",
          "name": "",
          "type": "address"
        }
      ],
      "payable": false,
      "stateMutability": "view",
      "type": "function"
    },
    {
      "constant": true,
      "inputs": [
        {
          "internalType": "address",
          "name": "_claimer",
          "type": "address"
        },
        {
          "internalType": "uint256",
          "name": "_tranche",
          "type": "uint256"
        },
        {
          "internalType": "uint256",
          "name": "_balance",
          "type": "uint256"
        },
        {
          "internalType": "bytes32[]",
          "name": "_merkleProof",
          "type": "bytes32[]"
        }
      ],
      "name": "verifyClaim",
      "outputs": [
        {
          "internalType": "bool",
          "name": "valid",
          "type": "bool"
        }
      ],
      "payable": false,
      "stateMutability": "view",
      "type": "function"
    },
    {
      "constant": true,
      "inputs": [
        {
          "internalType": "address",
          "name": "",
          "type": "address"
        }
      ],
      "name": "whitelist",
      "outputs": [
        {
          "internalType": "bool",
          "name": "",
          "type": "bool"
        }
      ],
      "payable": false,
      "stateMutability": "view",
      "type": "function"
    }
  ],
  "bytecode": "0x608060405234801561001057600080fd5b506121b1806100206000396000f3fe608060405234801561001057600080fd5b506004361061009e5760003560e01c8063cd54e72c11610066578063cd54e72c14610181578063d5efd20a1461019d578063dc5b68a6146101b9578063eb0d07f5146101d5578063fc0c546a146102055761009e565b8063120aa877146100a357806365ef53b1146100d357806371c5ecb1146101035780639b19251a14610133578063a3f5c1d214610163575b600080fd5b6100bd60048036036100b891908101906113e1565b610223565b6040516100ca9190611c9c565b60405180910390f35b6100ed60048036036100e8919081019061137c565b610252565b6040516100fa9190611ec8565b60405180910390f35b61011d600480360361011891908101906113b8565b61040c565b60405161012a9190611cb7565b60405180910390f35b61014d60048036036101489190810190611243565b610424565b60405161015a9190611c9c565b60405180910390f35b61016b610444565b6040516101789190611ced565b60405180910390f35b61019b600480360361019691908101906112d8565b61046a565b005b6101b760048036036101b291908101906113b8565b610486565b005b6101d360048036036101ce919081019061126c565b610567565b005b6101ef60048036036101ea91908101906112d8565b6106e0565b6040516101fc9190611c9c565b60405180910390f35b61020d6106f8565b60405161021a9190611cd2565b60405180910390f35b603f6020528160005260406000206020528060005260406000206000915091509054906101000a900460ff1681565b6000603c60003373ffffffffffffffffffffffffffffffffffffffff1673ffffffffffffffffffffffffffffffffffffffff16815260200190815260200160002060009054906101000a900460ff166102e0576040517f08c379a00000000000000000000000000000000000000000000000000000000081526004016102d790611dc8565b60405180910390fd5b603d60009054906101000a900473ffffffffffffffffffffffffffffffffffffffff1673ffffffffffffffffffffffffffffffffffffffff166323b872dd3330856040518463ffffffff1660e01b815260040161033f93929190611c05565b602060405180830381600087803b15801561035957600080fd5b505af115801561036d573d6000803e3d6000fd5b505050506040513d601f19601f820116820180604052506103919190810190611353565b50604054905082603e6000838152602001908152602001600020819055506103c5600160405461071e90919063ffffffff16565b6040819055507f5c8770684b8f82e9ade880fb05ccfb53c969170cd40e9746a3703f241c9023ec8184846040516103fe93929190611ee3565b60405180910390a192915050565b603e6020528060005260406000206000915090505481565b603c6020528060005260406000206000915054906101000a900460ff1681565b603b60009054906101000a900473ffffffffffffffffffffffffffffffffffffffff1681565b61047684848484610773565b610480848361094a565b50505050565b603c60003373ffffffffffffffffffffffffffffffffffffffff1673ffffffffffffffffffffffffffffffffffffffff16815260200190815260200160002060009054906101000a900460ff16610512576040517f08c379a000000000000000000000000000000000000000000000000000000000815260040161050990611dc8565b60405180910390fd5b6000801b603e6000838152602001908152602001600020819055507fcc071cbd9ae50a4c78d1153b76bd2d46ba8d4c7662842718ec3de1d67a144daf8160405161055c9190611ec8565b60405180910390a150565b600060019054906101000a900460ff168061058657506105856109e4565b5b8061059d57506000809054906101000a900460ff16155b6105dc576040517f08c379a00000000000000000000000000000000000000000000000000000000081526004016105d390611de8565b60405180910390fd5b60008060019054906101000a900460ff16159050801561062c576001600060016101000a81548160ff02191690831515021790555060016000806101000a81548160ff0219169083151502179055505b61067785858580806020026020016040519081016040528093929190818152602001838360200280828437600081840152601f19601f820116905080830192505050505050506109fb565b81603d60006101000a81548173ffffffffffffffffffffffffffffffffffffffff021916908373ffffffffffffffffffffffffffffffffffffffff16021790555080156106d95760008060016101000a81548160ff0219169083151502179055505b5050505050565b60006106ee85858585610a85565b9050949350505050565b603d60009054906101000a900473ffffffffffffffffffffffffffffffffffffffff1681565b600080828401905083811015610769576040517f08c379a000000000000000000000000000000000000000000000000000000000815260040161076090611d48565b60405180910390fd5b8091505092915050565b60405483106107b7576040517f08c379a00000000000000000000000000000000000000000000000000000000081526004016107ae90611d68565b60405180910390fd5b603f600084815260200190815260200160002060008573ffffffffffffffffffffffffffffffffffffffff1673ffffffffffffffffffffffffffffffffffffffff16815260200190815260200160002060009054906101000a900460ff1615610855576040517f08c379a000000000000000000000000000000000000000000000000000000000815260040161084c90611e48565b60405180910390fd5b61086184848484610a85565b6108a0576040517f08c379a000000000000000000000000000000000000000000000000000000000815260040161089790611d28565b60405180910390fd5b6001603f600085815260200190815260200160002060008673ffffffffffffffffffffffffffffffffffffffff1673ffffffffffffffffffffffffffffffffffffffff16815260200190815260200160002060006101000a81548160ff0219169083151502179055507f987d620f307ff6b94d58743cb7a7509f24071586a77759b77c2d4e29f75a2f9a84848460405161093c93929190611c65565b60405180910390a150505050565b60008111156109a5576109a08282603d60009054906101000a900473ffffffffffffffffffffffffffffffffffffffff1673ffffffffffffffffffffffffffffffffffffffff16610adc9092919063ffffffff16565b6109e0565b6040517f08c379a00000000000000000000000000000000000000000000000000000000081526004016109d790611e28565b60405180910390fd5b5050565b6000803090506000813b9050600081149250505090565b610a0482610b7b565b6000815111610a48576040517f08c379a0000000000000000000000000000000000000000000000000000000008152600401610a3f90611da8565b60405180910390fd5b60008090505b8151811015610a8057610a73828281518110610a6657fe5b6020026020010151610c37565b8080600101915050610a4e565b505050565b6000808584604051602001610a9b929190611aee565b604051602081830303815290604052805190602001209050610ad183603e60008881526020019081526020016000205483610dd2565b915050949350505050565b610b76838473ffffffffffffffffffffffffffffffffffffffff1663a9059cbb905060e01b8484604051602401610b14929190611c3c565b604051602081830303815290604052907bffffffffffffffffffffffffffffffffffffffffffffffffffffffff19166020820180517bffffffffffffffffffffffffffffffffffffffffffffffffffffffff8381831617835250505050610e7e565b505050565b600073ffffffffffffffffffffffffffffffffffffffff168173ffffffffffffffffffffffffffffffffffffffff161415610beb576040517f08c379a0000000000000000000000000000000000000000000000000000000008152600401610be290611d08565b60405180910390fd5b80603b60006101000a81548173ffffffffffffffffffffffffffffffffffffffff021916908373ffffffffffffffffffffffffffffffffffffffff160217905550610c34610ff0565b50565b600073ffffffffffffffffffffffffffffffffffffffff168173ffffffffffffffffffffffffffffffffffffffff161415610ca7576040517f08c379a0000000000000000000000000000000000000000000000000000000008152600401610c9e90611e68565b60405180910390fd5b603c60008273ffffffffffffffffffffffffffffffffffffffff1673ffffffffffffffffffffffffffffffffffffffff16815260200190815260200160002060009054906101000a900460ff1615610d34576040517f08c379a0000000000000000000000000000000000000000000000000000000008152600401610d2b90611e08565b60405180910390fd5b6001603c60008373ffffffffffffffffffffffffffffffffffffffff1673ffffffffffffffffffffffffffffffffffffffff16815260200190815260200160002060006101000a81548160ff0219169083151502179055508073ffffffffffffffffffffffffffffffffffffffff167faab7954e9d246b167ef88aeddad35209ca2489d95a8aeb59e288d9b19fae5a5460405160405180910390a250565b60008082905060008090505b8551811015610e70576000868281518110610df557fe5b60200260200101519050808311610e36578281604051602001610e19929190611b1a565b604051602081830303815290604052805190602001209250610e62565b8083604051602001610e49929190611b1a565b6040516020818303038152906040528051906020012092505b508080600101915050610dde565b508381149150509392505050565b610e9d8273ffffffffffffffffffffffffffffffffffffffff166110c2565b610edc576040517f08c379a0000000000000000000000000000000000000000000000000000000008152600401610ed390611ea8565b60405180910390fd5b600060608373ffffffffffffffffffffffffffffffffffffffff1683604051610f059190611b46565b6000604051808303816000865af19150503d8060008114610f42576040519150601f19603f3d011682016040523d82523d6000602084013e610f47565b606091505b509150915081610f8c576040517f08c379a0000000000000000000000000000000000000000000000000000000008152600401610f8390611d88565b60405180910390fd5b600081511115610fea5780806020019051610faa9190810190611353565b610fe9576040517f08c379a0000000000000000000000000000000000000000000000000000000008152600401610fe090611e88565b60405180910390fd5b5b50505050565b604051610ffc90611bc6565b604051809103902060338190555060405161101690611b72565b604051809103902060348190555060405161103090611bdb565b604051809103902060358190555060405161104a90611bb1565b604051809103902060368190555060405161106490611b9c565b604051809103902060378190555060405161107e90611b87565b604051809103902060388190555060405161109890611bf0565b60405180910390206039819055506040516110b290611b5d565b6040518091039020603a81905550565b60008060007fc5d2460186f7233c927e7db2dcc703c0e500b653ca82273b7bfad8045d85a47060001b9050833f915080821415801561110457506000801b8214155b92505050919050565b60008135905061111c816120fb565b92915050565b60008083601f84011261113457600080fd5b8235905067ffffffffffffffff81111561114d57600080fd5b60208301915083602082028301111561116557600080fd5b9250929050565b600082601f83011261117d57600080fd5b813561119061118b82611f47565b611f1a565b915081818352602084019350602081019050838560208402820111156111b557600080fd5b60005b838110156111e557816111cb8882611204565b8452602084019350602083019250506001810190506111b8565b5050505092915050565b6000815190506111fe81612112565b92915050565b60008135905061121381612129565b92915050565b60008135905061122881612140565b92915050565b60008135905061123d81612157565b92915050565b60006020828403121561125557600080fd5b60006112638482850161110d565b91505092915050565b6000806000806060858703121561128257600080fd5b60006112908782880161110d565b945050602085013567ffffffffffffffff8111156112ad57600080fd5b6112b987828801611122565b935093505060406112cc87828801611219565b91505092959194509250565b600080600080608085870312156112ee57600080fd5b60006112fc8782880161110d565b945050602061130d8782880161122e565b935050604061131e8782880161122e565b925050606085013567ffffffffffffffff81111561133b57600080fd5b6113478782880161116c565b91505092959194509250565b60006020828403121561136557600080fd5b6000611373848285016111ef565b91505092915050565b6000806040838503121561138f57600080fd5b600061139d85828601611204565b92505060206113ae8582860161122e565b9150509250929050565b6000602082840312156113ca57600080fd5b60006113d88482850161122e565b91505092915050565b600080604083850312156113f457600080fd5b60006114028582860161122e565b92505060206114138582860161110d565b9150509250929050565b61142681612005565b82525050565b61143581611fa1565b82525050565b61144c61144782611fa1565b6120b6565b82525050565b61145b81611fb3565b82525050565b61146a81611fbf565b82525050565b61148161147c82611fbf565b6120c8565b82525050565b600061149282611f6f565b61149c8185611f7a565b93506114ac818560208601612083565b80840191505092915050565b6114c181612017565b82525050565b6114d08161203b565b82525050565b60006114e3601583611f85565b91507f4e657875732061646472657373206973207a65726f00000000000000000000006000830152602082019050919050565b6000611523600e83611f96565b91507f536176696e67734d616e616765720000000000000000000000000000000000006000830152600e82019050919050565b6000611563600783611f96565b91507f5374616b696e67000000000000000000000000000000000000000000000000006000830152600782019050919050565b60006115a3601683611f85565b91507f496e636f7272656374206d65726b6c652070726f6f66000000000000000000006000830152602082019050919050565b60006115e3601b83611f85565b91507f536166654d6174683a206164646974696f6e206f766572666c6f7700000000006000830152602082019050919050565b6000611623601a83611f85565b91507f5472616e63686520646f6573206e6f74207965742065786973740000000000006000830152602082019050919050565b6000611663601083611f96565b91507f5265636f6c6c61746572616c69736572000000000000000000000000000000006000830152601082019050919050565b60006116a3602083611f85565b91507f5361666545524332303a206c6f772d6c6576656c2063616c6c206661696c65646000830152602082019050919050565b60006116e3600783611f96565b91507f4d616e61676572000000000000000000000000000000000000000000000000006000830152600782019050919050565b6000611723601583611f85565b91507f456d7074792077686974656c69737420617272617900000000000000000000006000830152602082019050919050565b6000611763601983611f85565b91507f4e6f7420612077686974656c69737465642061646472657373000000000000006000830152602082019050919050565b60006117a3600983611f96565b91507f4f7261636c6548756200000000000000000000000000000000000000000000006000830152600982019050919050565b60006117e3600a83611f96565b91507f476f7665726e616e6365000000000000000000000000000000000000000000006000830152600a82019050919050565b6000611823600a83611f96565b91507f50726f787941646d696e000000000000000000000000000000000000000000006000830152600a82019050919050565b6000611863602e83611f85565b91507f436f6e747261637420696e7374616e63652068617320616c726561647920626560008301527f656e20696e697469616c697a65640000000000000000000000000000000000006020830152604082019050919050565b60006118c9601383611f85565b91507f416c72656164792077686974656c6973746564000000000000000000000000006000830152602082019050919050565b6000611909603d83611f85565b91507f4e6f2062616c616e636520776f756c64206265207472616e736665727265642060008301527f2d206e6f7420676f696e6720746f20776173746520796f7572206761730000006020830152604082019050919050565b600061196f601683611f85565b91507f4c502068617320616c726561647920636c61696d6564000000000000000000006000830152602082019050919050565b60006119af600f83611f85565b91507f41646472657373206973207a65726f00000000000000000000000000000000006000830152602082019050919050565b60006119ef602a83611f85565b91507f5361666545524332303a204552433230206f7065726174696f6e20646964206e60008301527f6f742073756363656564000000000000000000000000000000000000000000006020830152604082019050919050565b6000611a55600983611f96565b91507f4d657461546f6b656e00000000000000000000000000000000000000000000006000830152600982019050919050565b6000611a95601f83611f85565b91507f5361666545524332303a2063616c6c20746f206e6f6e2d636f6e7472616374006000830152602082019050919050565b611ad181611ffb565b82525050565b611ae8611ae382611ffb565b6120e4565b82525050565b6000611afa828561143b565b601482019150611b0a8284611ad7565b6020820191508190509392505050565b6000611b268285611470565b602082019150611b368284611470565b6020820191508190509392505050565b6000611b528284611487565b915081905092915050565b6000611b6882611516565b9150819050919050565b6000611b7d82611556565b9150819050919050565b6000611b9282611656565b9150819050919050565b6000611ba7826116d6565b9150819050919050565b6000611bbc82611796565b9150819050919050565b6000611bd1826117d6565b9150819050919050565b6000611be682611816565b9150819050919050565b6000611bfb82611a48565b9150819050919050565b6000606082019050611c1a600083018661141d565b611c27602083018561142c565b611c346040830184611ac8565b949350505050565b6000604082019050611c51600083018561142c565b611c5e6020830184611ac8565b9392505050565b6000606082019050611c7a600083018661142c565b611c876020830185611ac8565b611c946040830184611ac8565b949350505050565b6000602082019050611cb16000830184611452565b92915050565b6000602082019050611ccc6000830184611461565b92915050565b6000602082019050611ce760008301846114b8565b92915050565b6000602082019050611d0260008301846114c7565b92915050565b60006020820190508181036000830152611d21816114d6565b9050919050565b60006020820190508181036000830152611d4181611596565b9050919050565b60006020820190508181036000830152611d61816115d6565b9050919050565b60006020820190508181036000830152611d8181611616565b9050919050565b60006020820190508181036000830152611da181611696565b9050919050565b60006020820190508181036000830152611dc181611716565b9050919050565b60006020820190508181036000830152611de181611756565b9050919050565b60006020820190508181036000830152611e0181611856565b9050919050565b60006020820190508181036000830152611e21816118bc565b9050919050565b60006020820190508181036000830152611e41816118fc565b9050919050565b60006020820190508181036000830152611e6181611962565b9050919050565b60006020820190508181036000830152611e81816119a2565b9050919050565b60006020820190508181036000830152611ea1816119e2565b9050919050565b60006020820190508181036000830152611ec181611a88565b9050919050565b6000602082019050611edd6000830184611ac8565b92915050565b6000606082019050611ef86000830186611ac8565b611f056020830185611461565b611f126040830184611ac8565b949350505050565b6000604051905081810181811067ffffffffffffffff82111715611f3d57600080fd5b8060405250919050565b600067ffffffffffffffff821115611f5e57600080fd5b602082029050602081019050919050565b600081519050919050565b600081905092915050565b600082825260208201905092915050565b600081905092915050565b6000611fac82611fdb565b9050919050565b60008115159050919050565b6000819050919050565b6000611fd482611fa1565b9050919050565b600073ffffffffffffffffffffffffffffffffffffffff82169050919050565b6000819050919050565b60006120108261205f565b9050919050565b600061202282612029565b9050919050565b600061203482611fdb565b9050919050565b60006120468261204d565b9050919050565b600061205882611fdb565b9050919050565b600061206a82612071565b9050919050565b600061207c82611fdb565b9050919050565b60005b838110156120a1578082015181840152602081019050612086565b838111156120b0576000848401525b50505050565b60006120c1826120d2565b9050919050565b6000819050919050565b60006120dd826120ee565b9050919050565b6000819050919050565b60008160601b9050919050565b61210481611fa1565b811461210f57600080fd5b50565b61211b81611fb3565b811461212657600080fd5b50565b61213281611fbf565b811461213d57600080fd5b50565b61214981611fc9565b811461215457600080fd5b50565b61216081611ffb565b811461216b57600080fd5b5056fea365627a7a723158202c94884502cccfc7927569f43c6bae77346f2356704a0b93c7395f88060bfc716c6578706572696d656e74616cf564736f6c63430005100040",
  "linkReferences": {},
  "deployedLinkReferences": {}
}