{
  "_format": "hh-sol-artifact-1",
  "contractName": "GuardManager",
  "sourceName": "contracts/gnosis/base/GuardManager.sol",
  "abi": [
    {
      "anonymous": false,
      "inputs": [
        {
          "indexed": false,
          "internalType": "address",
          "name": "guard",
          "type": "address"
        }
      ],
      "name": "ChangedGuard",
      "type": "event"
    },
    {
      "inputs": [
        {
          "internalType": "address",
          "name": "guard",
          "type": "address"
        }
      ],
      "name": "setGuard",
      "outputs": [],
      "stateMutability": "nonpayable",
      "type": "function"
    }
  ],
  "bytecode": "0x608060405234801561001057600080fd5b50610229806100206000396000f3fe608060405234801561001057600080fd5b506004361061002b5760003560e01c8063e19a9dd914610030575b600080fd5b61004361003e3660046101a1565b610045565b005b61004d610168565b6001600160a01b03811615610104576040516301ffc9a760e01b815263736bd41d60e11b60048201526001600160a01b038216906301ffc9a790602401602060405180830381865afa1580156100a7573d6000803e3d6000fd5b505050506040513d601f19601f820116820180604052508101906100cb91906101d1565b6101045760405162461bcd60e51b8152602060048201526005602482015264047533330360dc1b60448201526064015b60405180910390fd5b7f4a204f620c8c5ccdca3fd54d003badd85ba500436a431f0cbda4f558c93c34c88181556040516001600160a01b03831681527f1151116914515bc0891ff9047a6cb32cf902546f83066499bcf8ba33d2353fa29060200160405180910390a15050565b33301461019f5760405162461bcd60e51b8152602060048201526005602482015264475330333160d81b60448201526064016100fb565b565b6000602082840312156101b357600080fd5b81356001600160a01b03811681146101ca57600080fd5b9392505050565b6000602082840312156101e357600080fd5b815180151581146101ca57600080fdfea2646970667358221220cad209a00db327301b3d9ddd9bd8a1bad0c99a74f9af84072697b89c5b98d92464736f6c634300080a0033",
  "linkReferences": {},
  "deployedLinkReferences": {}
}