{
  "_format": "hh-sol-artifact-1",
  "contractName": "DebugTransactionGuard",
  "sourceName": "contracts/gnosis/examples/guards/DebugTransactionGuard.sol",
  "abi": [
    {
      "anonymous": false,
      "inputs": [
        {
          "indexed": true,
          "internalType": "address",
          "name": "safe",
          "type": "address"
        },
        {
          "indexed": true,
          "internalType": "bytes32",
          "name": "txHash",
          "type": "bytes32"
        },
        {
          "indexed": true,
          "internalType": "uint256",
          "name": "nonce",
          "type": "uint256"
        },
        {
          "indexed": false,
          "internalType": "bool",
          "name": "success",
          "type": "bool"
        }
      ],
      "name": "GasUsage",
      "type": "event"
    },
    {
      "anonymous": false,
      "inputs": [
        {
          "indexed": true,
          "internalType": "address",
          "name": "safe",
          "type": "address"
        },
        {
          "indexed": true,
          "internalType": "bytes32",
          "name": "txHash",
          "type": "bytes32"
        },
        {
          "indexed": false,
          "internalType": "address",
          "name": "to",
          "type": "address"
        },
        {
          "indexed": false,
          "internalType": "uint256",
          "name": "value",
          "type": "uint256"
        },
        {
          "indexed": false,
          "internalType": "bytes",
          "name": "data",
          "type": "bytes"
        },
        {
          "indexed": false,
          "internalType": "enum Enum.Operation",
          "name": "operation",
          "type": "uint8"
        },
        {
          "indexed": false,
          "internalType": "uint256",
          "name": "safeTxGas",
          "type": "uint256"
        },
        {
          "indexed": false,
          "internalType": "bool",
          "name": "usesRefund",
          "type": "bool"
        },
        {
          "indexed": false,
          "internalType": "uint256",
          "name": "nonce",
          "type": "uint256"
        }
      ],
      "name": "TransactionDetails",
      "type": "event"
    },
    {
      "stateMutability": "nonpayable",
      "type": "fallback"
    },
    {
      "inputs": [
        {
          "internalType": "bytes32",
          "name": "txHash",
          "type": "bytes32"
        },
        {
          "internalType": "bool",
          "name": "success",
          "type": "bool"
        }
      ],
      "name": "checkAfterExecution",
      "outputs": [],
      "stateMutability": "nonpayable",
      "type": "function"
    },
    {
      "inputs": [
        {
          "internalType": "address",
          "name": "to",
          "type": "address"
        },
        {
          "internalType": "uint256",
          "name": "value",
          "type": "uint256"
        },
        {
          "internalType": "bytes",
          "name": "data",
          "type": "bytes"
        },
        {
          "internalType": "enum Enum.Operation",
          "name": "operation",
          "type": "uint8"
        },
        {
          "internalType": "uint256",
          "name": "safeTxGas",
          "type": "uint256"
        },
        {
          "internalType": "uint256",
          "name": "baseGas",
          "type": "uint256"
        },
        {
          "internalType": "uint256",
          "name": "gasPrice",
          "type": "uint256"
        },
        {
          "internalType": "address",
          "name": "gasToken",
          "type": "address"
        },
        {
          "internalType": "address payable",
          "name": "refundReceiver",
          "type": "address"
        },
        {
          "internalType": "bytes",
          "name": "",
          "type": "bytes"
        },
        {
          "internalType": "address",
          "name": "",
          "type": "address"
        }
      ],
      "name": "checkTransaction",
      "outputs": [],
      "stateMutability": "nonpayable",
      "type": "function"
    },
    {
      "inputs": [
        {
          "internalType": "bytes4",
          "name": "interfaceId",
          "type": "bytes4"
        }
      ],
      "name": "supportsInterface",
      "outputs": [
        {
          "internalType": "bool",
          "name": "",
          "type": "bool"
        }
      ],
      "stateMutability": "view",
      "type": "function"
    },
    {
      "inputs": [
        {
          "internalType": "bytes32",
          "name": "",
          "type": "bytes32"
        }
      ],
      "name": "txNonces",
      "outputs": [
        {
          "internalType": "uint256",
          "name": "",
          "type": "uint256"
        }
      ],
      "stateMutability": "view",
      "type": "function"
    }
  ],
  "bytecode": "0x608060405234801561001057600080fd5b506106ed806100206000396000f3fe608060405234801561001057600080fd5b506004361061004c5760003560e01c806301ffc9a71461004e57806375f0bb52146100765780639327136814610089578063ddbdba631461009c575b005b61006161005c36600461030e565b6100ca565b60405190151581526020015b60405180910390f35b61004c61008436600461040d565b610101565b61004c6100973660046104f2565b610268565b6100bc6100aa366004610527565b60006020819052908152604090205481565b60405190815260200161006d565b60006001600160e01b0319821663736bd41d60e11b14806100fb57506001600160e01b031982166301ffc9a760e01b145b92915050565b60008060003390506001816001600160a01b031663affed0e06040518163ffffffff1660e01b8152600401602060405180830381865afa158015610149573d6000803e3d6000fd5b505050506040513d601f19601f8201168201806040525081019061016d9190610540565b6101779190610559565b9250806001600160a01b031663d8d11f788f8f8f8f8f8f8f8f8f8d6040518b63ffffffff1660e01b81526004016101b79a999897969594939291906105ed565b602060405180830381865afa1580156101d4573d6000803e3d6000fd5b505050506040513d601f19601f820116820180604052508101906101f89190610540565b91505080336001600160a01b03167f1b68334da83afaffd8348d6c85c5146d8e7de31a6c034d2d522be12d615c4f7b8f8f8f8f8f60008f118a6040516102449796959493929190610663565b60405180910390a36000908152602081905260409020555050505050505050505050565b600082815260208190526040902054806102be5760405162461bcd60e51b8152602060048201526013602482015272436f756c64206e6f7420676574206e6f6e636560681b604482015260640160405180910390fd5b60008381526020818152604080832092909255905183151581528291859133917f0dcc0fb56a30b6fe6b188f45b47369bc7f3c928a9748e245a79fc3f54ddd0568910160405180910390a4505050565b60006020828403121561032057600080fd5b81356001600160e01b03198116811461033857600080fd5b9392505050565b80356001600160a01b038116811461035657600080fd5b919050565b634e487b7160e01b600052604160045260246000fd5b600082601f83011261038257600080fd5b813567ffffffffffffffff8082111561039d5761039d61035b565b604051601f8301601f19908116603f011681019082821181831017156103c5576103c561035b565b816040528381528660208588010111156103de57600080fd5b836020870160208301376000602085830101528094505050505092915050565b80356002811061035657600080fd5b60008060008060008060008060008060006101608c8e03121561042f57600080fd5b6104388c61033f565b9a5060208c0135995067ffffffffffffffff8060408e0135111561045b57600080fd5b61046b8e60408f01358f01610371565b995061047960608e016103fe565b985060808d0135975060a08d0135965060c08d0135955061049c60e08e0161033f565b94506104ab6101008e0161033f565b9350806101208e013511156104bf57600080fd5b506104d18d6101208e01358e01610371565b91506104e06101408d0161033f565b90509295989b509295989b9093969950565b6000806040838503121561050557600080fd5b823591506020830135801515811461051c57600080fd5b809150509250929050565b60006020828403121561053957600080fd5b5035919050565b60006020828403121561055257600080fd5b5051919050565b60008282101561057957634e487b7160e01b600052601160045260246000fd5b500390565b6000815180845260005b818110156105a457602081850181015186830182015201610588565b818111156105b6576000602083870101525b50601f01601f19169290920160200192915050565b600281106105e957634e487b7160e01b600052602160045260246000fd5b9052565b6001600160a01b038b81168252602082018b90526101406040830181905260009161061a8483018d61057e565b9250610629606085018c6105cb565b60808401999099525060a082019690965260c081019490945291851660e08401529093166101008201526101200191909152949350505050565b60018060a01b038816815286602082015260e06040820152600061068a60e083018861057e565b905061069960608301876105cb565b608082019490945291151560a083015260c09091015294935050505056fea26469706673582212201aca062fca3a491616b46bc6c2c1c9c9fcaf2625c32c4d5b828433c071df798564736f6c634300080a0033",
  "linkReferences": {},
  "deployedLinkReferences": {}
}