{
  "_format": "hh-sol-artifact-1",
  "contractName": "Seed",
  "sourceName": "contracts/seed/Seed.sol",
  "abi": [
    {
      "anonymous": false,
      "inputs": [
        {
          "indexed": true,
          "internalType": "address",
          "name": "recipient",
          "type": "address"
        },
        {
          "indexed": false,
          "internalType": "uint256",
          "name": "amountReclaimed",
          "type": "uint256"
        }
      ],
      "name": "FundingReclaimed",
      "type": "event"
    },
    {
      "anonymous": false,
      "inputs": [
        {
          "indexed": true,
          "internalType": "bytes",
          "name": "metadata",
          "type": "bytes"
        }
      ],
      "name": "MetadataUpdated",
      "type": "event"
    },
    {
      "anonymous": false,
      "inputs": [
        {
          "indexed": true,
          "internalType": "address",
          "name": "recipient",
          "type": "address"
        },
        {
          "indexed": false,
          "internalType": "uint256",
          "name": "amountPurchased",
          "type": "uint256"
        }
      ],
      "name": "SeedsPurchased",
      "type": "event"
    },
    {
      "anonymous": false,
      "inputs": [
        {
          "indexed": true,
          "internalType": "address",
          "name": "recipient",
          "type": "address"
        },
        {
          "indexed": false,
          "internalType": "uint256",
          "name": "amount",
          "type": "uint256"
        },
        {
          "indexed": true,
          "internalType": "address",
          "name": "beneficiary",
          "type": "address"
        },
        {
          "indexed": false,
          "internalType": "uint256",
          "name": "feeAmount",
          "type": "uint256"
        }
      ],
      "name": "TokensClaimed",
      "type": "event"
    },
    {
      "inputs": [],
      "name": "admin",
      "outputs": [
        {
          "internalType": "address",
          "name": "",
          "type": "address"
        }
      ],
      "stateMutability": "view",
      "type": "function"
    },
    {
      "inputs": [],
      "name": "beneficiary",
      "outputs": [
        {
          "internalType": "address",
          "name": "",
          "type": "address"
        }
      ],
      "stateMutability": "view",
      "type": "function"
    },
    {
      "inputs": [
        {
          "internalType": "uint256",
          "name": "_fundingAmount",
          "type": "uint256"
        }
      ],
      "name": "buy",
      "outputs": [
        {
          "internalType": "uint256",
          "name": "",
          "type": "uint256"
        },
        {
          "internalType": "uint256",
          "name": "",
          "type": "uint256"
        }
      ],
      "stateMutability": "nonpayable",
      "type": "function"
    },
    {
      "inputs": [
        {
          "internalType": "address",
          "name": "_funder",
          "type": "address"
        }
      ],
      "name": "calculateClaim",
      "outputs": [
        {
          "internalType": "uint256",
          "name": "",
          "type": "uint256"
        }
      ],
      "stateMutability": "view",
      "type": "function"
    },
    {
      "inputs": [
        {
          "internalType": "address",
          "name": "_funder",
          "type": "address"
        },
        {
          "internalType": "uint256",
          "name": "_claimAmount",
          "type": "uint256"
        }
      ],
      "name": "claim",
      "outputs": [
        {
          "internalType": "uint256",
          "name": "",
          "type": "uint256"
        }
      ],
      "stateMutability": "nonpayable",
      "type": "function"
    },
    {
      "inputs": [],
      "name": "close",
      "outputs": [],
      "stateMutability": "nonpayable",
      "type": "function"
    },
    {
      "inputs": [],
      "name": "closed",
      "outputs": [
        {
          "internalType": "bool",
          "name": "",
          "type": "bool"
        }
      ],
      "stateMutability": "view",
      "type": "function"
    },
    {
      "inputs": [],
      "name": "endTime",
      "outputs": [
        {
          "internalType": "uint256",
          "name": "",
          "type": "uint256"
        }
      ],
      "stateMutability": "view",
      "type": "function"
    },
    {
      "inputs": [],
      "name": "fee",
      "outputs": [
        {
          "internalType": "uint256",
          "name": "",
          "type": "uint256"
        }
      ],
      "stateMutability": "view",
      "type": "function"
    },
    {
      "inputs": [],
      "name": "feeAmountRequired",
      "outputs": [
        {
          "internalType": "uint256",
          "name": "",
          "type": "uint256"
        }
      ],
      "stateMutability": "view",
      "type": "function"
    },
    {
      "inputs": [],
      "name": "feeClaimed",
      "outputs": [
        {
          "internalType": "uint256",
          "name": "",
          "type": "uint256"
        }
      ],
      "stateMutability": "view",
      "type": "function"
    },
    {
      "inputs": [
        {
          "internalType": "address",
          "name": "_funder",
          "type": "address"
        }
      ],
      "name": "feeClaimedForFunder",
      "outputs": [
        {
          "internalType": "uint256",
          "name": "",
          "type": "uint256"
        }
      ],
      "stateMutability": "view",
      "type": "function"
    },
    {
      "inputs": [
        {
          "internalType": "address",
          "name": "_funder",
          "type": "address"
        }
      ],
      "name": "feeForFunder",
      "outputs": [
        {
          "internalType": "uint256",
          "name": "",
          "type": "uint256"
        }
      ],
      "stateMutability": "view",
      "type": "function"
    },
    {
      "inputs": [],
      "name": "feeRemainder",
      "outputs": [
        {
          "internalType": "uint256",
          "name": "",
          "type": "uint256"
        }
      ],
      "stateMutability": "view",
      "type": "function"
    },
    {
      "inputs": [
        {
          "internalType": "address",
          "name": "",
          "type": "address"
        }
      ],
      "name": "funders",
      "outputs": [
        {
          "internalType": "uint256",
          "name": "totalClaimed",
          "type": "uint256"
        },
        {
          "internalType": "uint256",
          "name": "fundingAmount",
          "type": "uint256"
        }
      ],
      "stateMutability": "view",
      "type": "function"
    },
    {
      "inputs": [],
      "name": "fundingCollected",
      "outputs": [
        {
          "internalType": "uint256",
          "name": "",
          "type": "uint256"
        }
      ],
      "stateMutability": "view",
      "type": "function"
    },
    {
      "inputs": [],
      "name": "fundingToken",
      "outputs": [
        {
          "internalType": "contract IERC20",
          "name": "",
          "type": "address"
        }
      ],
      "stateMutability": "view",
      "type": "function"
    },
    {
      "inputs": [],
      "name": "fundingWithdrawn",
      "outputs": [
        {
          "internalType": "uint256",
          "name": "",
          "type": "uint256"
        }
      ],
      "stateMutability": "view",
      "type": "function"
    },
    {
      "inputs": [],
      "name": "hardCap",
      "outputs": [
        {
          "internalType": "uint256",
          "name": "",
          "type": "uint256"
        }
      ],
      "stateMutability": "view",
      "type": "function"
    },
    {
      "inputs": [
        {
          "internalType": "address",
          "name": "_beneficiary",
          "type": "address"
        },
        {
          "internalType": "address",
          "name": "_admin",
          "type": "address"
        },
        {
          "internalType": "address[]",
          "name": "_tokens",
          "type": "address[]"
        },
        {
          "internalType": "uint256[]",
          "name": "_softHardThresholds",
          "type": "uint256[]"
        },
        {
          "internalType": "uint256",
          "name": "_price",
          "type": "uint256"
        },
        {
          "internalType": "uint256",
          "name": "_startTime",
          "type": "uint256"
        },
        {
          "internalType": "uint256",
          "name": "_endTime",
          "type": "uint256"
        },
        {
          "internalType": "uint32",
          "name": "_vestingDuration",
          "type": "uint32"
        },
        {
          "internalType": "uint32",
          "name": "_vestingCliff",
          "type": "uint32"
        },
        {
          "internalType": "bool",
          "name": "_permissionedSeed",
          "type": "bool"
        },
        {
          "internalType": "uint256",
          "name": "_fee",
          "type": "uint256"
        }
      ],
      "name": "initialize",
      "outputs": [],
      "stateMutability": "nonpayable",
      "type": "function"
    },
    {
      "inputs": [],
      "name": "initialized",
      "outputs": [
        {
          "internalType": "bool",
          "name": "",
          "type": "bool"
        }
      ],
      "stateMutability": "view",
      "type": "function"
    },
    {
      "inputs": [],
      "name": "isFunded",
      "outputs": [
        {
          "internalType": "bool",
          "name": "",
          "type": "bool"
        }
      ],
      "stateMutability": "view",
      "type": "function"
    },
    {
      "inputs": [],
      "name": "isWhitelistBatchInvoked",
      "outputs": [
        {
          "internalType": "bool",
          "name": "",
          "type": "bool"
        }
      ],
      "stateMutability": "view",
      "type": "function"
    },
    {
      "inputs": [],
      "name": "maximumReached",
      "outputs": [
        {
          "internalType": "bool",
          "name": "",
          "type": "bool"
        }
      ],
      "stateMutability": "view",
      "type": "function"
    },
    {
      "inputs": [],
      "name": "metadata",
      "outputs": [
        {
          "internalType": "bytes",
          "name": "",
          "type": "bytes"
        }
      ],
      "stateMutability": "view",
      "type": "function"
    },
    {
      "inputs": [],
      "name": "minimumReached",
      "outputs": [
        {
          "internalType": "bool",
          "name": "",
          "type": "bool"
        }
      ],
      "stateMutability": "view",
      "type": "function"
    },
    {
      "inputs": [],
      "name": "pause",
      "outputs": [],
      "stateMutability": "nonpayable",
      "type": "function"
    },
    {
      "inputs": [],
      "name": "paused",
      "outputs": [
        {
          "internalType": "bool",
          "name": "",
          "type": "bool"
        }
      ],
      "stateMutability": "view",
      "type": "function"
    },
    {
      "inputs": [],
      "name": "permissionedSeed",
      "outputs": [
        {
          "internalType": "bool",
          "name": "",
          "type": "bool"
        }
      ],
      "stateMutability": "view",
      "type": "function"
    },
    {
      "inputs": [],
      "name": "price",
      "outputs": [
        {
          "internalType": "uint256",
          "name": "",
          "type": "uint256"
        }
      ],
      "stateMutability": "view",
      "type": "function"
    },
    {
      "inputs": [],
      "name": "retrieveFundingTokens",
      "outputs": [
        {
          "internalType": "uint256",
          "name": "",
          "type": "uint256"
        }
      ],
      "stateMutability": "nonpayable",
      "type": "function"
    },
    {
      "inputs": [
        {
          "internalType": "address",
          "name": "_refundReceiver",
          "type": "address"
        }
      ],
      "name": "retrieveSeedTokens",
      "outputs": [],
      "stateMutability": "nonpayable",
      "type": "function"
    },
    {
      "inputs": [
        {
          "internalType": "address",
          "name": "_funder",
          "type": "address"
        }
      ],
      "name": "seedAmountForFunder",
      "outputs": [
        {
          "internalType": "uint256",
          "name": "",
          "type": "uint256"
        }
      ],
      "stateMutability": "view",
      "type": "function"
    },
    {
      "inputs": [],
      "name": "seedAmountRequired",
      "outputs": [
        {
          "internalType": "uint256",
          "name": "",
          "type": "uint256"
        }
      ],
      "stateMutability": "view",
      "type": "function"
    },
    {
      "inputs": [],
      "name": "seedClaimed",
      "outputs": [
        {
          "internalType": "uint256",
          "name": "",
          "type": "uint256"
        }
      ],
      "stateMutability": "view",
      "type": "function"
    },
    {
      "inputs": [],
      "name": "seedRemainder",
      "outputs": [
        {
          "internalType": "uint256",
          "name": "",
          "type": "uint256"
        }
      ],
      "stateMutability": "view",
      "type": "function"
    },
    {
      "inputs": [],
      "name": "seedToken",
      "outputs": [
        {
          "internalType": "contract IERC20",
          "name": "",
          "type": "address"
        }
      ],
      "stateMutability": "view",
      "type": "function"
    },
    {
      "inputs": [],
      "name": "softCap",
      "outputs": [
        {
          "internalType": "uint256",
          "name": "",
          "type": "uint256"
        }
      ],
      "stateMutability": "view",
      "type": "function"
    },
    {
      "inputs": [],
      "name": "startTime",
      "outputs": [
        {
          "internalType": "uint256",
          "name": "",
          "type": "uint256"
        }
      ],
      "stateMutability": "view",
      "type": "function"
    },
    {
      "inputs": [],
      "name": "totalFunderCount",
      "outputs": [
        {
          "internalType": "uint256",
          "name": "",
          "type": "uint256"
        }
      ],
      "stateMutability": "view",
      "type": "function"
    },
    {
      "inputs": [],
      "name": "unpause",
      "outputs": [],
      "stateMutability": "nonpayable",
      "type": "function"
    },
    {
      "inputs": [
        {
          "internalType": "address",
          "name": "buyer",
          "type": "address"
        }
      ],
      "name": "unwhitelist",
      "outputs": [],
      "stateMutability": "nonpayable",
      "type": "function"
    },
    {
      "inputs": [
        {
          "internalType": "bytes",
          "name": "_metadata",
          "type": "bytes"
        }
      ],
      "name": "updateMetadata",
      "outputs": [],
      "stateMutability": "nonpayable",
      "type": "function"
    },
    {
      "inputs": [],
      "name": "vestingCliff",
      "outputs": [
        {
          "internalType": "uint32",
          "name": "",
          "type": "uint32"
        }
      ],
      "stateMutability": "view",
      "type": "function"
    },
    {
      "inputs": [],
      "name": "vestingDuration",
      "outputs": [
        {
          "internalType": "uint32",
          "name": "",
          "type": "uint32"
        }
      ],
      "stateMutability": "view",
      "type": "function"
    },
    {
      "inputs": [],
      "name": "vestingStartTime",
      "outputs": [
        {
          "internalType": "uint256",
          "name": "",
          "type": "uint256"
        }
      ],
      "stateMutability": "view",
      "type": "function"
    },
    {
      "inputs": [
        {
          "internalType": "address",
          "name": "_buyer",
          "type": "address"
        }
      ],
      "name": "whitelist",
      "outputs": [],
      "stateMutability": "nonpayable",
      "type": "function"
    },
    {
      "inputs": [
        {
          "internalType": "address[]",
          "name": "_buyers",
          "type": "address[]"
        }
      ],
      "name": "whitelistBatch",
      "outputs": [],
      "stateMutability": "nonpayable",
      "type": "function"
    },
    {
      "inputs": [
        {
          "internalType": "address",
          "name": "",
          "type": "address"
        }
      ],
      "name": "whitelisted",
      "outputs": [
        {
          "internalType": "bool",
          "name": "",
          "type": "bool"
        }
      ],
      "stateMutability": "view",
      "type": "function"
    },
    {
      "inputs": [],
      "name": "withdraw",
      "outputs": [],
      "stateMutability": "nonpayable",
      "type": "function"
    }
  ],
  "bytecode": "0x608060405234801561001057600080fd5b50612a7f806100206000396000f3fe608060405234801561001057600080fd5b50600436106102d65760003560e01c80637c65430311610182578063d936547e116100e9578063e6e36ebb116100a2578063f3640e741161007c578063f3640e7414610608578063f851a4401461061f578063fb86a40414610632578063fc582d411461063b57600080fd5b8063e6e36ebb146105d9578063ea345540146105e2578063eaa53523146105f557600080fd5b8063d936547e1461055b578063d96a094a1461057e578063dc4b9e3814610591578063ddca3f43146105a4578063e5087c60146105ad578063e565eb4c146105c457600080fd5b80639b19251a1161013b5780639b19251a14610511578063a035b1fe14610524578063a8660a781461052d578063aad3ec9614610536578063b774682f14610549578063bc0f5f841461055257600080fd5b80637c654303146104c957806383d59e00146104dc5780638456cb59146104e55780638a2448aa146104ed578063906a26e0146104f55780639a590427146104fe57600080fd5b80633dba9e4111610241578063597e1fb5116101fa5780635e9777e8116101d45780635e9777e81461049c57806371f4b8e8146104a557806378065f27146104ad57806378e97925146104c057600080fd5b8063597e1fb51461046a5780635c975abb146104775780635d85ac0d1461048957600080fd5b80633dba9e411461041e5780633f4ba83a1461042b578063430e99a41461043357806343d726d61461044657806344f9abb81461044e57806347d02f1b1461046157600080fd5b80631cfe562e116102935780631cfe562e146103aa578063311f8483146103b35780633197cbb6146103e557806338af3eed146103ee578063392f37e9146104015780633ccfd60b1461041657600080fd5b8063031b3677146102db57806303aabe311461031c5780630826d2c714610331578063117a36d1146103485780631514617e1461036c578063158ef93e14610396575b600080fd5b6103026102e936600461241a565b6016602052600090815260409020805460019091015482565b604080519283526020830191909152015b60405180910390f35b61032f61032a36600461241a565b61064e565b005b61033a60105481565b604051908152602001610313565b600d5461035c90600160281b900460ff1681565b6040519015158152602001610313565b60095461038190610100900463ffffffff1681565b60405163ffffffff9091168152602001610313565b600d5461035c906301000000900460ff1681565b61033a60135481565b6009546103cd90600160481b90046001600160a01b031681565b6040516001600160a01b039091168152602001610313565b61033a60085481565b6000546103cd906001600160a01b031681565b6104096109f5565b604051610313919061246c565b61032f610a83565b60095461035c9060ff1681565b61032f610c09565b61033a61044136600461241a565b610cbe565b61032f610d00565b61032f61045c366004612604565b610d5d565b61033a60115481565b600d5461035c9060ff1681565b600d5461035c90610100900460ff1681565b61033a61049736600461241a565b6111c7565b61033a600f5481565b61033a6111e8565b600a546103cd906001600160a01b031681565b61033a60075481565b600d5461035c9062010000900460ff1681565b61033a60145481565b61032f611212565b61033a6112c8565b61033a60025481565b61032f61050c36600461241a565b61157c565b61032f61051f36600461241a565b611611565b61033a60065481565b61033a600e5481565b61033a6105443660046126e8565b6116a9565b61033a60125481565b61033a60045481565b61035c61056936600461241a565b60156020526000908152604090205460ff1681565b61030261058c366004612712565b611a80565b61033a61059f36600461241a565b61206b565b61033a600b5481565b600d5461035c906601000000000000900460ff1681565b600d5461035c90640100000000900460ff1681565b61033a60055481565b61033a6105f036600461241a565b6120a0565b61032f61060336600461272b565b612176565b60095461038190600160281b900463ffffffff1681565b6001546103cd906001600160a01b031681565b61033a60035481565b61032f610649366004612760565b61226b565b6001546001600160a01b031633146106815760405162461bcd60e51b8152600401610678906127f5565b60405180910390fd5b600d5460ff168061069b5750600d54600160281b900460ff165b806106a857506008544210155b61074b5760405162461bcd60e51b815260206004820152606260248201527f536565643a20546865206162696c69747920746f20627579207365656420746f60448201527f6b656e73206d757374206861766520656e646564206265666f72652072656d6160648201527f696e696e67207365656420746f6b656e732063616e20626520776974686472616084820152613bb760f11b60a482015260c401610678565b600d54640100000000900460ff16610885576009546040516370a0823160e01b8152306004820152600160481b9091046001600160a01b03169063a9059cbb90839083906370a082319060240160206040518083038186803b1580156107b057600080fd5b505afa1580156107c4573d6000803e3d6000fd5b505050506040513d601f19601f820116820180604052508101906107e8919061282c565b6040516001600160e01b031960e085901b1681526001600160a01b0390921660048301526024820152604401602060405180830381600087803b15801561082e57600080fd5b505af1158015610842573d6000803e3d6000fd5b505050506040513d601f19601f820116820180604052508101906108669190612845565b6108825760405162461bcd60e51b815260040161067890612862565b50565b600060125460105461089791906128cc565b6005546004546108a791906128cc565b6108b191906128e4565b6009546040516370a0823160e01b81523060048201529192506000918391600160481b90046001600160a01b0316906370a082319060240160206040518083038186803b15801561090157600080fd5b505afa158015610915573d6000803e3d6000fd5b505050506040513d601f19601f82011682018060405250810190610939919061282c565b61094391906128e4565b60095460405163a9059cbb60e01b81526001600160a01b03868116600483015260248201849052929350600160481b9091049091169063a9059cbb90604401602060405180830381600087803b15801561099c57600080fd5b505af11580156109b0573d6000803e3d6000fd5b505050506040513d601f19601f820116820180604052508101906109d49190612845565b6109f05760405162461bcd60e51b815260040161067890612862565b505050565b600c8054610a02906128fb565b80601f0160208091040260200160405190810160405280929190818152602001828054610a2e906128fb565b8015610a7b5780601f10610a5057610100808354040283529160200191610a7b565b820191906000526020600020905b815481529060010190602001808311610a5e57829003601f168201915b505050505081565b6001546001600160a01b03163314610aad5760405162461bcd60e51b8152600401610678906127f5565b600d54600160281b900460ff1680610adc5750600d54640100000000900460ff168015610adc57506008544210155b610b685760405162461bcd60e51b815260206004820152605160248201527f536565643a2063616e6e6f74207769746864726177207768696c652066756e6460448201527f696e6720746f6b656e732063616e207374696c6c2062652077697468647261776064820152706e20627920636f6e7472696275746f727360781b608482015260a401610678565b6000601454601354610b7a91906128e4565b601354601455600a5460405163a9059cbb60e01b8152336004820152602481018390529192506001600160a01b03169063a9059cbb90604401602060405180830381600087803b158015610bcd57600080fd5b505af1158015610be1573d6000803e3d6000fd5b505050506040513d601f19601f82011682018060405250810190610c059190612845565b5050565b6001546001600160a01b03163314610c335760405162461bcd60e51b8152600401610678906127f5565b600d5460ff16151560011415610c5b5760405162461bcd60e51b815260040161067890612936565b600d5460ff610100909104161515600114610cb15760405162461bcd60e51b815260206004820152601660248201527514d959590e881cda1bdd5b19081899481c185d5cd95960521b6044820152606401610678565b600d805461ff0019169055565b600b546001600160a01b0382166000908152601660205260408120549091670de0b6b3a764000091610cf0919061296d565b610cfa919061298c565b92915050565b6001546001600160a01b03163314610d2a5760405162461bcd60e51b8152600401610678906127f5565b600d5460ff1615610d4d5760405162461bcd60e51b815260040161067890612936565b600d805461ffff19166001179055565b600d546301000000900460ff1615610dc25760405162461bcd60e51b815260206004820152602260248201527f536565643a20636f6e747261637420616c726561647920696e697469616c697a604482015261195960f21b6064820152608401610678565b600d805463ff00000019166301000000179055885189906001908110610dea57610dea6129ae565b60200260200101516001600160a01b031689600081518110610e0e57610e0e6129ae565b60200260200101516001600160a01b03161415610e835760405162461bcd60e51b815260206004820152602d60248201527f53656564466163746f72793a2073656564546f6b656e2063616e6e6f7420626560448201526c10333ab73234b733aa37b5b2b760991b6064820152608401610678565b87600081518110610e9657610e966129ae565b602002602001015188600181518110610eb157610eb16129ae565b60200260200101511015610f205760405162461bcd60e51b815260206004820152603060248201527f53656564466163746f72793a20686172644361702063616e6e6f74206265206c60448201526f0657373207468616e20736f66744361760841b6064820152608401610678565b8263ffffffff168463ffffffff161015610fa25760405162461bcd60e51b815260206004820152603d60248201527f53656564466163746f72793a2076657374696e674475726174696f6e2063616e60448201527f6e6f74206265206c657373207468616e2076657374696e67436c6966660000006064820152608401610678565b8585116110175760405162461bcd60e51b815260206004820152603b60248201527f53656564466163746f72793a20656e6454696d652063616e6e6f74206265206c60448201527f657373207468616e20657175616c20746f20737461727454696d6500000000006064820152608401610678565b600080546001600160a01b03808e166001600160a01b031992831617835560018054918e16919092161790558851899190611054576110546129ae565b602002602001015160028190555087600181518110611075576110756129ae565b6020908102919091010151600355600687905560078690556008859055600e8590556009805468ffffffffffffffff00191661010063ffffffff8781169190910268ffffffff0000000000191691909117600160281b918616919091021760ff1916831515179055885189906000906110f0576110f06129ae565b60200260200101516009806101000a8154816001600160a01b0302191690836001600160a01b0316021790555088600181518110611130576111306129ae565b6020026020010151600a60006101000a8154816001600160a01b0302191690836001600160a01b0316021790555080600b8190555086670de0b6b3a764000060035461117c919061296d565b611186919061298c565b6004819055600b54670de0b6b3a7640000916111a2919061296d565b6111ac919061298c565b60058190556004546010556012555050505050505050505050565b6000670de0b6b3a7640000600b546111de8461206b565b610cf0919061296d565b6000670de0b6b3a7640000600b54601154611203919061296d565b61120d919061298c565b905090565b6001546001600160a01b0316331461123c5760405162461bcd60e51b8152600401610678906127f5565b600d5460ff161561125f5760405162461bcd60e51b815260040161067890612936565b600d54610100900460ff16156112b75760405162461bcd60e51b815260206004820152601a60248201527f536565643a2073686f756c64206e6f74206265207061757365640000000000006044820152606401610678565b600d805461ff001916610100179055565b60004260075411156113275760405162461bcd60e51b815260206004820152602260248201527f536565643a20646973747269627574696f6e20686176656e2774207374617274604482015261195960f21b6064820152608401610678565b600d54640100000000900460ff16156113825760405162461bcd60e51b815260206004820181905260248201527f536565643a206d696e696d756d2066756e64696e6720616d6f756e74206d65746044820152606401610678565b3360009081526016602052604090206001810154806113e35760405162461bcd60e51b815260206004820152601960248201527f536565643a207a65726f2066756e64696e6720616d6f756e74000000000000006044820152606401610678565b6113ec3361206b565b601060008282546113fd91906128cc565b9091555061140c9050336111c7565b6012600082825461141d91906128cc565b9091555050600f8054906000611432836129c4565b919050555060008260010181905550806013600082825461145391906128e4565b9091555050600a5460405163a9059cbb60e01b8152336004820152602481018390526001600160a01b039091169063a9059cbb90604401602060405180830381600087803b1580156114a457600080fd5b505af11580156114b8573d6000803e3d6000fd5b505050506040513d601f19601f820116820180604052508101906114dc9190612845565b6115415760405162461bcd60e51b815260206004820152603060248201527f536565643a2063616e6e6f742072657475726e2066756e64696e6720746f6b6560448201526f3739903a379036b9b39739b2b73232b960811b6064820152608401610678565b60405181815233907f1a689b1a62e3bb77f9c98d8759c04f341a67deb5cc63cf53be8324b6910649509060200160405180910390a292915050565b6001546001600160a01b031633146115a65760405162461bcd60e51b8152600401610678906127f5565b600d5460ff16156115c95760405162461bcd60e51b815260040161067890612936565b60095460ff1615156001146115f05760405162461bcd60e51b8152600401610678906129db565b6001600160a01b03166000908152601560205260409020805460ff19169055565b6001546001600160a01b0316331461163b5760405162461bcd60e51b8152600401610678906127f5565b600d5460ff161561165e5760405162461bcd60e51b815260040161067890612936565b60095460ff1615156001146116855760405162461bcd60e51b8152600401610678906129db565b6001600160a01b03166000908152601560205260409020805460ff19166001179055565b600d54600090640100000000900460ff166117125760405162461bcd60e51b8152602060048201526024808201527f536565643a206d696e696d756d2066756e64696e6720616d6f756e74206e6f74604482015263081b595d60e21b6064820152608401610678565b42600854108061172b5750600d54600160281b900460ff165b61178b5760405162461bcd60e51b815260206004820152602b60248201527f536565643a2074686520646973747269627574696f6e20686173206e6f74207960448201526a195d08199a5b9a5cda195960aa1b6064820152608401610678565b6000611796846120a0565b9050600081116117e85760405162461bcd60e51b815260206004820152601b60248201527f536565643a20616d6f756e7420636c61696d61626c65206973203000000000006044820152606401610678565b8281101561184f5760405162461bcd60e51b815260206004820152602e60248201527f536565643a20726571756573742069732067726561746572207468616e20636c60448201526d185a5b58589b1948185b5bdd5b9d60921b6064820152608401610678565b6000670de0b6b3a7640000600b5485611868919061296d565b611872919061298c565b6001600160a01b03861660009081526016602052604081208054929350869290919061189f9084906128cc565b9250508190555083601160008282546118b891906128cc565b909155505060095460005460405163a9059cbb60e01b81526001600160a01b03918216600482015260248101849052600160481b909204169063a9059cbb90604401602060405180830381600087803b15801561191457600080fd5b505af1158015611928573d6000803e3d6000fd5b505050506040513d601f19601f8201168201806040525081019061194c9190612845565b80156119e1575060095460405163a9059cbb60e01b81526001600160a01b03878116600483015260248201879052600160481b9092049091169063a9059cbb90604401602060405180830381600087803b1580156119a957600080fd5b505af11580156119bd573d6000803e3d6000fd5b505050506040513d601f19601f820116820180604052508101906119e19190612845565b611a2d5760405162461bcd60e51b815260206004820181905260248201527f536565643a207365656420746f6b656e207472616e73666572206661696c65646044820152606401610678565b60005460408051868152602081018490526001600160a01b03928316928816917f9bd10be98695714f5cb43cefb59ba6417808b354710acafafe05e81b26492231910160405180910390a3949350505050565b600d54600090819060ff1615611aa85760405162461bcd60e51b815260040161067890612936565b600d54610100900460ff1615611b005760405162461bcd60e51b815260206004820152601a60248201527f536565643a2073686f756c64206e6f74206265207061757365640000000000006044820152606401610678565b600d54600160281b900460ff1615611b5a5760405162461bcd60e51b815260206004820152601d60248201527f536565643a206d6178696d756d2066756e64696e6720726561636865640000006044820152606401610678565b60095460ff161580611b7b57503360009081526015602052604090205460ff165b611bc75760405162461bcd60e51b815260206004820152601a60248201527f536565643a2073656e64657220686173206e6f207269676874730000000000006044820152606401610678565b4260085410158015611bdb57504260075411155b611c3d5760405162461bcd60e51b815260206004820152602d60248201527f536565643a206f6e6c7920616c6c6f77656420647572696e672064697374726960448201526c189d5d1a5bdb881c195c9a5bd9609a1b6064820152608401610678565b600d5462010000900460ff16611d4a57600554600454611c5d91906128cc565b6009546040516370a0823160e01b8152306004820152600160481b9091046001600160a01b0316906370a082319060240160206040518083038186803b158015611ca657600080fd5b505afa158015611cba573d6000803e3d6000fd5b505050506040513d601f19601f82011682018060405250810190611cde919061282c565b1015611d385760405162461bcd60e51b815260206004820152602360248201527f536565643a2073756666696369656e74207365656473206e6f742070726f766960448201526219195960ea1b6064820152608401610678565b600d805462ff00001916620100001790555b600654600090611d62670de0b6b3a76400008661296d565b611d6c919061298c565b90506000670de0b6b3a7640000600b5483611d87919061296d565b611d91919061298c565b600954909150610100900463ffffffff16821015611df15760405162461bcd60e51b815260206004820152601f60248201527f536565643a20616d6f756e745665737465645065725365636f6e64203e2030006044820152606401610678565b60035485601354611e0291906128cc565b1115611e635760405162461bcd60e51b815260206004820152602a60248201527f536565643a20616d6f756e74206578636565647320636f6e747261637420736160448201526906c6520686172644361760b41b6064820152608401610678565b8460136000828254611e7591906128cc565b925050819055508160106000828254611e8e91906128e4565b925050819055508060126000828254611ea791906128e4565b909155505060025460135410611ecd57600d805464ff0000000019166401000000001790555b60035460135410611ef257600d805465ff00000000001916600160281b17905542600e555b33600090815260166020526040902060010154611f1f57600f8054906000611f1983612a12565b91905055505b3360009081526016602052604081206001018054879290611f419084906128cc565b9091555050600a546040516323b872dd60e01b8152336004820152306024820152604481018790526001600160a01b03909116906323b872dd90606401602060405180830381600087803b158015611f9857600080fd5b505af1158015611fac573d6000803e3d6000fd5b505050506040513d601f19601f82011682018060405250810190611fd09190612845565b61202c5760405162461bcd60e51b815260206004820152602760248201527f536565643a2066756e64696e6720746f6b656e207472616e7366657246726f6d6044820152660819985a5b195960ca1b6064820152608401610678565b60405182815233907fcf5ef2b227e797b567f0df4c49cc8b6207cfb60054eb899e5608de08e5dcb1ef9060200160405180910390a29092509050915091565b6006546001600160a01b038216600090815260166020526040812060010154909190610cf090670de0b6b3a76400009061296d565b6001600160a01b0381166000908152601660205260408120600e544210156120cb5750600092915050565b6000600e54426120db91906128e4565b600954909150600160281b900463ffffffff168110156120ff575060009392505050565b600954610100900463ffffffff16811061213057815461211e8561206b565b61212891906128e4565b949350505050565b600954600090610100900463ffffffff1661214a8661206b565b612154908461296d565b61215e919061298c565b835490915061216d90826128e4565b95945050505050565b6001546001600160a01b031633146121a05760405162461bcd60e51b8152600401610678906127f5565b600d5460ff16156121c35760405162461bcd60e51b815260040161067890612936565b60095460ff1615156001146121ea5760405162461bcd60e51b8152600401610678906129db565b600d805466ff0000000000001916660100000000000017905560005b8151811015610c0557600160156000848481518110612227576122276129ae565b6020908102919091018101516001600160a01b03168252810191909152604001600020805460ff19169115159190911790558061226381612a12565b915050612206565b600d546301000000900460ff161515600114158061229357506001546001600160a01b031633145b6123105760405162461bcd60e51b815260206004820152604260248201527f536565643a20636f6e74726163742073686f756c64206e6f7420626520696e6960448201527f7469616c697a6564206f722063616c6c65722073686f756c642062652061646d60648201526134b760f11b608482015260a401610678565b805161232390600c906020840190612365565b50806040516123329190612a2d565b604051908190038120907f09f579b21815d3f81581d32e97736ccba1cc89d1918e48da28e6e206acd9686490600090a250565b828054612371906128fb565b90600052602060002090601f01602090048101928261239357600085556123d9565b82601f106123ac57805160ff19168380011785556123d9565b828001600101855582156123d9579182015b828111156123d95782518255916020019190600101906123be565b506123e59291506123e9565b5090565b5b808211156123e557600081556001016123ea565b80356001600160a01b038116811461241557600080fd5b919050565b60006020828403121561242c57600080fd5b612435826123fe565b9392505050565b60005b8381101561245757818101518382015260200161243f565b83811115612466576000848401525b50505050565b602081526000825180602084015261248b81604085016020870161243c565b601f01601f19169190910160400192915050565b634e487b7160e01b600052604160045260246000fd5b604051601f8201601f1916810167ffffffffffffffff811182821017156124de576124de61249f565b604052919050565b600067ffffffffffffffff8211156125005761250061249f565b5060051b60200190565b600082601f83011261251b57600080fd5b8135602061253061252b836124e6565b6124b5565b82815260059290921b8401810191818101908684111561254f57600080fd5b8286015b8481101561257157612564816123fe565b8352918301918301612553565b509695505050505050565b600082601f83011261258d57600080fd5b8135602061259d61252b836124e6565b82815260059290921b840181019181810190868411156125bc57600080fd5b8286015b8481101561257157803583529183019183016125c0565b803563ffffffff8116811461241557600080fd5b801515811461088257600080fd5b8035612415816125eb565b60008060008060008060008060008060006101608c8e03121561262657600080fd5b61262f8c6123fe565b9a5061263d60208d016123fe565b995067ffffffffffffffff8060408e0135111561265957600080fd5b6126698e60408f01358f0161250a565b99508060608e0135111561267c57600080fd5b5061268d8d60608e01358e0161257c565b975060808c0135965060a08c0135955060c08c013594506126b060e08d016125d7565b93506126bf6101008d016125d7565b92506126ce6101208d016125f9565b91506101408c013590509295989b509295989b9093969950565b600080604083850312156126fb57600080fd5b612704836123fe565b946020939093013593505050565b60006020828403121561272457600080fd5b5035919050565b60006020828403121561273d57600080fd5b813567ffffffffffffffff81111561275457600080fd5b6121288482850161250a565b6000602080838503121561277357600080fd5b823567ffffffffffffffff8082111561278b57600080fd5b818501915085601f83011261279f57600080fd5b8135818111156127b1576127b161249f565b6127c3601f8201601f191685016124b5565b915080825286848285010111156127d957600080fd5b8084840185840137600090820190930192909252509392505050565b6020808252601c908201527f536565643a2063616c6c65722073686f756c642062652061646d696e00000000604082015260600190565b60006020828403121561283e57600080fd5b5051919050565b60006020828403121561285757600080fd5b8151612435816125eb565b60208082526034908201527f536565643a2073686f756c64207472616e73666572207365656420746f6b656e60408201527339903a37903932b33ab732103932b1b2b4bb32b960611b606082015260800190565b634e487b7160e01b600052601160045260246000fd5b600082198211156128df576128df6128b6565b500190565b6000828210156128f6576128f66128b6565b500390565b600181811c9082168061290f57607f821691505b6020821081141561293057634e487b7160e01b600052602260045260246000fd5b50919050565b6020808252601a908201527f536565643a2073686f756c64206e6f7420626520636c6f736564000000000000604082015260600190565b6000816000190483118215151615612987576129876128b6565b500290565b6000826129a957634e487b7160e01b600052601260045260246000fd5b500490565b634e487b7160e01b600052603260045260246000fd5b6000816129d3576129d36128b6565b506000190190565b6020808252601d908201527f536565643a2073656564206973206e6f742077686974656c6973746564000000604082015260600190565b6000600019821415612a2657612a266128b6565b5060010190565b60008251612a3f81846020870161243c565b919091019291505056fea2646970667358221220a14ece37712203f0c7ef7861e390610160412ca20217b4f7555fe84e01ec5f8964736f6c63430008090033",
  "linkReferences": {},
  "deployedLinkReferences": {}
}