{
  "_format": "hh-sol-artifact-1",
  "contractName": "GnosisSafeL2",
  "sourceName": "contracts/gnosis/GnosisSafeL2.sol",
  "abi": [
    {
      "anonymous": false,
      "inputs": [
        {
          "indexed": false,
          "internalType": "address",
          "name": "owner",
          "type": "address"
        }
      ],
      "name": "AddedOwner",
      "type": "event"
    },
    {
      "anonymous": false,
      "inputs": [
        {
          "indexed": true,
          "internalType": "bytes32",
          "name": "approvedHash",
          "type": "bytes32"
        },
        {
          "indexed": true,
          "internalType": "address",
          "name": "owner",
          "type": "address"
        }
      ],
      "name": "ApproveHash",
      "type": "event"
    },
    {
      "anonymous": false,
      "inputs": [
        {
          "indexed": false,
          "internalType": "address",
          "name": "handler",
          "type": "address"
        }
      ],
      "name": "ChangedFallbackHandler",
      "type": "event"
    },
    {
      "anonymous": false,
      "inputs": [
        {
          "indexed": false,
          "internalType": "address",
          "name": "guard",
          "type": "address"
        }
      ],
      "name": "ChangedGuard",
      "type": "event"
    },
    {
      "anonymous": false,
      "inputs": [
        {
          "indexed": false,
          "internalType": "uint256",
          "name": "threshold",
          "type": "uint256"
        }
      ],
      "name": "ChangedThreshold",
      "type": "event"
    },
    {
      "anonymous": false,
      "inputs": [
        {
          "indexed": false,
          "internalType": "address",
          "name": "module",
          "type": "address"
        }
      ],
      "name": "DisabledModule",
      "type": "event"
    },
    {
      "anonymous": false,
      "inputs": [
        {
          "indexed": false,
          "internalType": "address",
          "name": "module",
          "type": "address"
        }
      ],
      "name": "EnabledModule",
      "type": "event"
    },
    {
      "anonymous": false,
      "inputs": [
        {
          "indexed": false,
          "internalType": "bytes32",
          "name": "txHash",
          "type": "bytes32"
        },
        {
          "indexed": false,
          "internalType": "uint256",
          "name": "payment",
          "type": "uint256"
        }
      ],
      "name": "ExecutionFailure",
      "type": "event"
    },
    {
      "anonymous": false,
      "inputs": [
        {
          "indexed": true,
          "internalType": "address",
          "name": "module",
          "type": "address"
        }
      ],
      "name": "ExecutionFromModuleFailure",
      "type": "event"
    },
    {
      "anonymous": false,
      "inputs": [
        {
          "indexed": true,
          "internalType": "address",
          "name": "module",
          "type": "address"
        }
      ],
      "name": "ExecutionFromModuleSuccess",
      "type": "event"
    },
    {
      "anonymous": false,
      "inputs": [
        {
          "indexed": false,
          "internalType": "bytes32",
          "name": "txHash",
          "type": "bytes32"
        },
        {
          "indexed": false,
          "internalType": "uint256",
          "name": "payment",
          "type": "uint256"
        }
      ],
      "name": "ExecutionSuccess",
      "type": "event"
    },
    {
      "anonymous": false,
      "inputs": [
        {
          "indexed": false,
          "internalType": "address",
          "name": "owner",
          "type": "address"
        }
      ],
      "name": "RemovedOwner",
      "type": "event"
    },
    {
      "anonymous": false,
      "inputs": [
        {
          "indexed": false,
          "internalType": "address",
          "name": "module",
          "type": "address"
        },
        {
          "indexed": false,
          "internalType": "address",
          "name": "to",
          "type": "address"
        },
        {
          "indexed": false,
          "internalType": "uint256",
          "name": "value",
          "type": "uint256"
        },
        {
          "indexed": false,
          "internalType": "bytes",
          "name": "data",
          "type": "bytes"
        },
        {
          "indexed": false,
          "internalType": "enum Enum.Operation",
          "name": "operation",
          "type": "uint8"
        }
      ],
      "name": "SafeModuleTransaction",
      "type": "event"
    },
    {
      "anonymous": false,
      "inputs": [
        {
          "indexed": false,
          "internalType": "address",
          "name": "to",
          "type": "address"
        },
        {
          "indexed": false,
          "internalType": "uint256",
          "name": "value",
          "type": "uint256"
        },
        {
          "indexed": false,
          "internalType": "bytes",
          "name": "data",
          "type": "bytes"
        },
        {
          "indexed": false,
          "internalType": "enum Enum.Operation",
          "name": "operation",
          "type": "uint8"
        },
        {
          "indexed": false,
          "internalType": "uint256",
          "name": "safeTxGas",
          "type": "uint256"
        },
        {
          "indexed": false,
          "internalType": "uint256",
          "name": "baseGas",
          "type": "uint256"
        },
        {
          "indexed": false,
          "internalType": "uint256",
          "name": "gasPrice",
          "type": "uint256"
        },
        {
          "indexed": false,
          "internalType": "address",
          "name": "gasToken",
          "type": "address"
        },
        {
          "indexed": false,
          "internalType": "address payable",
          "name": "refundReceiver",
          "type": "address"
        },
        {
          "indexed": false,
          "internalType": "bytes",
          "name": "signatures",
          "type": "bytes"
        },
        {
          "indexed": false,
          "internalType": "bytes",
          "name": "additionalInfo",
          "type": "bytes"
        }
      ],
      "name": "SafeMultiSigTransaction",
      "type": "event"
    },
    {
      "anonymous": false,
      "inputs": [
        {
          "indexed": true,
          "internalType": "address",
          "name": "sender",
          "type": "address"
        },
        {
          "indexed": false,
          "internalType": "uint256",
          "name": "value",
          "type": "uint256"
        }
      ],
      "name": "SafeReceived",
      "type": "event"
    },
    {
      "anonymous": false,
      "inputs": [
        {
          "indexed": true,
          "internalType": "address",
          "name": "initiator",
          "type": "address"
        },
        {
          "indexed": false,
          "internalType": "address[]",
          "name": "owners",
          "type": "address[]"
        },
        {
          "indexed": false,
          "internalType": "uint256",
          "name": "threshold",
          "type": "uint256"
        },
        {
          "indexed": false,
          "internalType": "address",
          "name": "initializer",
          "type": "address"
        },
        {
          "indexed": false,
          "internalType": "address",
          "name": "fallbackHandler",
          "type": "address"
        }
      ],
      "name": "SafeSetup",
      "type": "event"
    },
    {
      "anonymous": false,
      "inputs": [
        {
          "indexed": true,
          "internalType": "bytes32",
          "name": "msgHash",
          "type": "bytes32"
        }
      ],
      "name": "SignMsg",
      "type": "event"
    },
    {
      "stateMutability": "nonpayable",
      "type": "fallback"
    },
    {
      "inputs": [],
      "name": "VERSION",
      "outputs": [
        {
          "internalType": "string",
          "name": "",
          "type": "string"
        }
      ],
      "stateMutability": "view",
      "type": "function"
    },
    {
      "inputs": [
        {
          "internalType": "address",
          "name": "owner",
          "type": "address"
        },
        {
          "internalType": "uint256",
          "name": "_threshold",
          "type": "uint256"
        }
      ],
      "name": "addOwnerWithThreshold",
      "outputs": [],
      "stateMutability": "nonpayable",
      "type": "function"
    },
    {
      "inputs": [
        {
          "internalType": "bytes32",
          "name": "hashToApprove",
          "type": "bytes32"
        }
      ],
      "name": "approveHash",
      "outputs": [],
      "stateMutability": "nonpayable",
      "type": "function"
    },
    {
      "inputs": [
        {
          "internalType": "address",
          "name": "",
          "type": "address"
        },
        {
          "internalType": "bytes32",
          "name": "",
          "type": "bytes32"
        }
      ],
      "name": "approvedHashes",
      "outputs": [
        {
          "internalType": "uint256",
          "name": "",
          "type": "uint256"
        }
      ],
      "stateMutability": "view",
      "type": "function"
    },
    {
      "inputs": [
        {
          "internalType": "uint256",
          "name": "_threshold",
          "type": "uint256"
        }
      ],
      "name": "changeThreshold",
      "outputs": [],
      "stateMutability": "nonpayable",
      "type": "function"
    },
    {
      "inputs": [
        {
          "internalType": "bytes32",
          "name": "dataHash",
          "type": "bytes32"
        },
        {
          "internalType": "bytes",
          "name": "data",
          "type": "bytes"
        },
        {
          "internalType": "bytes",
          "name": "signatures",
          "type": "bytes"
        },
        {
          "internalType": "uint256",
          "name": "requiredSignatures",
          "type": "uint256"
        }
      ],
      "name": "checkNSignatures",
      "outputs": [],
      "stateMutability": "view",
      "type": "function"
    },
    {
      "inputs": [
        {
          "internalType": "bytes32",
          "name": "dataHash",
          "type": "bytes32"
        },
        {
          "internalType": "bytes",
          "name": "data",
          "type": "bytes"
        },
        {
          "internalType": "bytes",
          "name": "signatures",
          "type": "bytes"
        }
      ],
      "name": "checkSignatures",
      "outputs": [],
      "stateMutability": "view",
      "type": "function"
    },
    {
      "inputs": [
        {
          "internalType": "address",
          "name": "prevModule",
          "type": "address"
        },
        {
          "internalType": "address",
          "name": "module",
          "type": "address"
        }
      ],
      "name": "disableModule",
      "outputs": [],
      "stateMutability": "nonpayable",
      "type": "function"
    },
    {
      "inputs": [],
      "name": "domainSeparator",
      "outputs": [
        {
          "internalType": "bytes32",
          "name": "",
          "type": "bytes32"
        }
      ],
      "stateMutability": "view",
      "type": "function"
    },
    {
      "inputs": [
        {
          "internalType": "address",
          "name": "module",
          "type": "address"
        }
      ],
      "name": "enableModule",
      "outputs": [],
      "stateMutability": "nonpayable",
      "type": "function"
    },
    {
      "inputs": [
        {
          "internalType": "address",
          "name": "to",
          "type": "address"
        },
        {
          "internalType": "uint256",
          "name": "value",
          "type": "uint256"
        },
        {
          "internalType": "bytes",
          "name": "data",
          "type": "bytes"
        },
        {
          "internalType": "enum Enum.Operation",
          "name": "operation",
          "type": "uint8"
        },
        {
          "internalType": "uint256",
          "name": "safeTxGas",
          "type": "uint256"
        },
        {
          "internalType": "uint256",
          "name": "baseGas",
          "type": "uint256"
        },
        {
          "internalType": "uint256",
          "name": "gasPrice",
          "type": "uint256"
        },
        {
          "internalType": "address",
          "name": "gasToken",
          "type": "address"
        },
        {
          "internalType": "address",
          "name": "refundReceiver",
          "type": "address"
        },
        {
          "internalType": "uint256",
          "name": "_nonce",
          "type": "uint256"
        }
      ],
      "name": "encodeTransactionData",
      "outputs": [
        {
          "internalType": "bytes",
          "name": "",
          "type": "bytes"
        }
      ],
      "stateMutability": "view",
      "type": "function"
    },
    {
      "inputs": [
        {
          "internalType": "address",
          "name": "to",
          "type": "address"
        },
        {
          "internalType": "uint256",
          "name": "value",
          "type": "uint256"
        },
        {
          "internalType": "bytes",
          "name": "data",
          "type": "bytes"
        },
        {
          "internalType": "enum Enum.Operation",
          "name": "operation",
          "type": "uint8"
        },
        {
          "internalType": "uint256",
          "name": "safeTxGas",
          "type": "uint256"
        },
        {
          "internalType": "uint256",
          "name": "baseGas",
          "type": "uint256"
        },
        {
          "internalType": "uint256",
          "name": "gasPrice",
          "type": "uint256"
        },
        {
          "internalType": "address",
          "name": "gasToken",
          "type": "address"
        },
        {
          "internalType": "address payable",
          "name": "refundReceiver",
          "type": "address"
        },
        {
          "internalType": "bytes",
          "name": "signatures",
          "type": "bytes"
        }
      ],
      "name": "execTransaction",
      "outputs": [
        {
          "internalType": "bool",
          "name": "",
          "type": "bool"
        }
      ],
      "stateMutability": "payable",
      "type": "function"
    },
    {
      "inputs": [
        {
          "internalType": "address",
          "name": "to",
          "type": "address"
        },
        {
          "internalType": "uint256",
          "name": "value",
          "type": "uint256"
        },
        {
          "internalType": "bytes",
          "name": "data",
          "type": "bytes"
        },
        {
          "internalType": "enum Enum.Operation",
          "name": "operation",
          "type": "uint8"
        }
      ],
      "name": "execTransactionFromModule",
      "outputs": [
        {
          "internalType": "bool",
          "name": "success",
          "type": "bool"
        }
      ],
      "stateMutability": "nonpayable",
      "type": "function"
    },
    {
      "inputs": [
        {
          "internalType": "address",
          "name": "to",
          "type": "address"
        },
        {
          "internalType": "uint256",
          "name": "value",
          "type": "uint256"
        },
        {
          "internalType": "bytes",
          "name": "data",
          "type": "bytes"
        },
        {
          "internalType": "enum Enum.Operation",
          "name": "operation",
          "type": "uint8"
        }
      ],
      "name": "execTransactionFromModuleReturnData",
      "outputs": [
        {
          "internalType": "bool",
          "name": "success",
          "type": "bool"
        },
        {
          "internalType": "bytes",
          "name": "returnData",
          "type": "bytes"
        }
      ],
      "stateMutability": "nonpayable",
      "type": "function"
    },
    {
      "inputs": [],
      "name": "getChainId",
      "outputs": [
        {
          "internalType": "uint256",
          "name": "",
          "type": "uint256"
        }
      ],
      "stateMutability": "view",
      "type": "function"
    },
    {
      "inputs": [
        {
          "internalType": "address",
          "name": "start",
          "type": "address"
        },
        {
          "internalType": "uint256",
          "name": "pageSize",
          "type": "uint256"
        }
      ],
      "name": "getModulesPaginated",
      "outputs": [
        {
          "internalType": "address[]",
          "name": "array",
          "type": "address[]"
        },
        {
          "internalType": "address",
          "name": "next",
          "type": "address"
        }
      ],
      "stateMutability": "view",
      "type": "function"
    },
    {
      "inputs": [],
      "name": "getOwners",
      "outputs": [
        {
          "internalType": "address[]",
          "name": "",
          "type": "address[]"
        }
      ],
      "stateMutability": "view",
      "type": "function"
    },
    {
      "inputs": [
        {
          "internalType": "uint256",
          "name": "offset",
          "type": "uint256"
        },
        {
          "internalType": "uint256",
          "name": "length",
          "type": "uint256"
        }
      ],
      "name": "getStorageAt",
      "outputs": [
        {
          "internalType": "bytes",
          "name": "",
          "type": "bytes"
        }
      ],
      "stateMutability": "view",
      "type": "function"
    },
    {
      "inputs": [],
      "name": "getThreshold",
      "outputs": [
        {
          "internalType": "uint256",
          "name": "",
          "type": "uint256"
        }
      ],
      "stateMutability": "view",
      "type": "function"
    },
    {
      "inputs": [
        {
          "internalType": "address",
          "name": "to",
          "type": "address"
        },
        {
          "internalType": "uint256",
          "name": "value",
          "type": "uint256"
        },
        {
          "internalType": "bytes",
          "name": "data",
          "type": "bytes"
        },
        {
          "internalType": "enum Enum.Operation",
          "name": "operation",
          "type": "uint8"
        },
        {
          "internalType": "uint256",
          "name": "safeTxGas",
          "type": "uint256"
        },
        {
          "internalType": "uint256",
          "name": "baseGas",
          "type": "uint256"
        },
        {
          "internalType": "uint256",
          "name": "gasPrice",
          "type": "uint256"
        },
        {
          "internalType": "address",
          "name": "gasToken",
          "type": "address"
        },
        {
          "internalType": "address",
          "name": "refundReceiver",
          "type": "address"
        },
        {
          "internalType": "uint256",
          "name": "_nonce",
          "type": "uint256"
        }
      ],
      "name": "getTransactionHash",
      "outputs": [
        {
          "internalType": "bytes32",
          "name": "",
          "type": "bytes32"
        }
      ],
      "stateMutability": "view",
      "type": "function"
    },
    {
      "inputs": [
        {
          "internalType": "address",
          "name": "module",
          "type": "address"
        }
      ],
      "name": "isModuleEnabled",
      "outputs": [
        {
          "internalType": "bool",
          "name": "",
          "type": "bool"
        }
      ],
      "stateMutability": "view",
      "type": "function"
    },
    {
      "inputs": [
        {
          "internalType": "address",
          "name": "owner",
          "type": "address"
        }
      ],
      "name": "isOwner",
      "outputs": [
        {
          "internalType": "bool",
          "name": "",
          "type": "bool"
        }
      ],
      "stateMutability": "view",
      "type": "function"
    },
    {
      "inputs": [],
      "name": "nonce",
      "outputs": [
        {
          "internalType": "uint256",
          "name": "",
          "type": "uint256"
        }
      ],
      "stateMutability": "view",
      "type": "function"
    },
    {
      "inputs": [
        {
          "internalType": "address",
          "name": "prevOwner",
          "type": "address"
        },
        {
          "internalType": "address",
          "name": "owner",
          "type": "address"
        },
        {
          "internalType": "uint256",
          "name": "_threshold",
          "type": "uint256"
        }
      ],
      "name": "removeOwner",
      "outputs": [],
      "stateMutability": "nonpayable",
      "type": "function"
    },
    {
      "inputs": [
        {
          "internalType": "address",
          "name": "to",
          "type": "address"
        },
        {
          "internalType": "uint256",
          "name": "value",
          "type": "uint256"
        },
        {
          "internalType": "bytes",
          "name": "data",
          "type": "bytes"
        },
        {
          "internalType": "enum Enum.Operation",
          "name": "operation",
          "type": "uint8"
        }
      ],
      "name": "requiredTxGas",
      "outputs": [
        {
          "internalType": "uint256",
          "name": "",
          "type": "uint256"
        }
      ],
      "stateMutability": "nonpayable",
      "type": "function"
    },
    {
      "inputs": [
        {
          "internalType": "address",
          "name": "handler",
          "type": "address"
        }
      ],
      "name": "setFallbackHandler",
      "outputs": [],
      "stateMutability": "nonpayable",
      "type": "function"
    },
    {
      "inputs": [
        {
          "internalType": "address",
          "name": "guard",
          "type": "address"
        }
      ],
      "name": "setGuard",
      "outputs": [],
      "stateMutability": "nonpayable",
      "type": "function"
    },
    {
      "inputs": [
        {
          "internalType": "address[]",
          "name": "_owners",
          "type": "address[]"
        },
        {
          "internalType": "uint256",
          "name": "_threshold",
          "type": "uint256"
        },
        {
          "internalType": "address",
          "name": "to",
          "type": "address"
        },
        {
          "internalType": "bytes",
          "name": "data",
          "type": "bytes"
        },
        {
          "internalType": "address",
          "name": "fallbackHandler",
          "type": "address"
        },
        {
          "internalType": "address",
          "name": "paymentToken",
          "type": "address"
        },
        {
          "internalType": "uint256",
          "name": "payment",
          "type": "uint256"
        },
        {
          "internalType": "address payable",
          "name": "paymentReceiver",
          "type": "address"
        }
      ],
      "name": "setup",
      "outputs": [],
      "stateMutability": "nonpayable",
      "type": "function"
    },
    {
      "inputs": [
        {
          "internalType": "bytes32",
          "name": "",
          "type": "bytes32"
        }
      ],
      "name": "signedMessages",
      "outputs": [
        {
          "internalType": "uint256",
          "name": "",
          "type": "uint256"
        }
      ],
      "stateMutability": "view",
      "type": "function"
    },
    {
      "inputs": [
        {
          "internalType": "address",
          "name": "targetContract",
          "type": "address"
        },
        {
          "internalType": "bytes",
          "name": "calldataPayload",
          "type": "bytes"
        }
      ],
      "name": "simulateAndRevert",
      "outputs": [],
      "stateMutability": "nonpayable",
      "type": "function"
    },
    {
      "inputs": [
        {
          "internalType": "address",
          "name": "prevOwner",
          "type": "address"
        },
        {
          "internalType": "address",
          "name": "oldOwner",
          "type": "address"
        },
        {
          "internalType": "address",
          "name": "newOwner",
          "type": "address"
        }
      ],
      "name": "swapOwner",
      "outputs": [],
      "stateMutability": "nonpayable",
      "type": "function"
    },
    {
      "stateMutability": "payable",
      "type": "receive"
    }
  ],
  "bytecode": "0x608060405234801561001057600080fd5b5060016004556132bd806100256000396000f3fe6080604052600436106101dc5760003560e01c8063affed0e011610102578063e19a9dd911610095578063f08a032311610064578063f08a032314610620578063f698da2514610640578063f8dc5dd914610655578063ffa1ad741461067557610218565b8063e19a9dd9146105ab578063e318b52b146105cb578063e75235b8146105eb578063e86637db1461060057610218565b8063cc2f8452116100d1578063cc2f84521461051d578063d4d9bdcd1461054b578063d8d11f781461056b578063e009cfde1461058b57610218565b8063affed0e0146104a7578063b4faba09146104bd578063b63e800d146104dd578063c4ca3a9c146104fd57610218565b80635624b25b1161017a5780636a761202116101495780636a7612021461041a5780637d8329741461042d578063934f3a1114610465578063a0e67e2b1461048557610218565b80635624b25b146103805780635ae6bd37146103ad578063610b5925146103da578063694e80c3146103fa57610218565b80632f54bf6e116101b65780632f54bf6e146102f55780633408e47014610315578063468721a7146103325780635229073f1461035257610218565b80630d582f131461027e57806312fb68e0146102a05780632d9ad53d146102c057610218565b366102185760405134815233907f3d0ce9bfc3ed7d6862dbb28b2dea94561fe714a1b4d019aa8af39730d1ad7c3d9060200160405180910390a2005b34801561022457600080fd5b507f6c9a6c4a39284e37ed1cf53d337577d14212a4870fb976a4366c693b939918d580548061024f57005b36600080373360601b365260008060143601600080855af190503d6000803e80610278573d6000fd5b503d6000f35b34801561028a57600080fd5b5061029e61029936600461263b565b6106a6565b005b3480156102ac57600080fd5b5061029e6102bb366004612709565b6107fe565b3480156102cc57600080fd5b506102e06102db36600461277d565b610c66565b60405190151581526020015b60405180910390f35b34801561030157600080fd5b506102e061031036600461277d565b610ca1565b34801561032157600080fd5b50465b6040519081526020016102ec565b34801561033e57600080fd5b506102e061034d3660046127a9565b610cd9565b34801561035e57600080fd5b5061037261036d3660046127a9565b610d2f565b6040516102ec92919061285f565b34801561038c57600080fd5b506103a061039b36600461287a565b610d65565b6040516102ec919061289c565b3480156103b957600080fd5b506103246103c83660046128af565b60076020526000908152604090205481565b3480156103e657600080fd5b5061029e6103f536600461277d565b610dea565b34801561040657600080fd5b5061029e6104153660046128af565b610f2c565b6102e0610428366004612910565b610fc4565b34801561043957600080fd5b5061032461044836600461263b565b600860209081526000928352604080842090915290825290205481565b34801561047157600080fd5b5061029e6104803660046129e8565b61106c565b34801561049157600080fd5b5061049a6110b6565b6040516102ec9190612a98565b3480156104b357600080fd5b5061032460055481565b3480156104c957600080fd5b5061029e6104d8366004612aab565b6111a6565b3480156104e957600080fd5b5061029e6104f8366004612afa565b6111c9565b34801561050957600080fd5b50610324610518366004612bee565b6112ea565b34801561052957600080fd5b5061053d61053836600461263b565b611384565b6040516102ec929190612c5e565b34801561055757600080fd5b5061029e6105663660046128af565b61147d565b34801561057757600080fd5b50610324610586366004612c88565b611512565b34801561059757600080fd5b5061029e6105a6366004612d48565b61153f565b3480156105b757600080fd5b5061029e6105c636600461277d565b61166e565b3480156105d757600080fd5b5061029e6105e6366004612d81565b611785565b3480156105f757600080fd5b50600454610324565b34801561060c57600080fd5b506103a061061b366004612c88565b611974565b34801561062c57600080fd5b5061029e61063b36600461277d565b611a4d565b34801561064c57600080fd5b50610324611ab6565b34801561066157600080fd5b5061029e610670366004612dcc565b611b0d565b34801561068157600080fd5b506103a0604051806040016040528060058152602001640312e332e360dc1b81525081565b6001600160a01b038216158015906106c857506001600160a01b038216600114155b80156106dd57506001600160a01b0382163014155b6107025760405162461bcd60e51b81526004016106f990612e0d565b60405180910390fd5b6001600160a01b03828116600090815260026020526040902054161561073a5760405162461bcd60e51b81526004016106f990612e2c565b60026020527fe90b7bceb6e7df5418fb78d8ee546e97c83a08bbccc01a0644d599ccd2a7c2e080546001600160a01b038481166000818152604081208054939094166001600160a01b0319938416179093556001835283549091161790915560038054916107a783612e61565b90915550506040516001600160a01b03831681527f9465fa0c962cc76958e6373a993326400c1c94f8be2fe3a952adfa7f60b2ea269060200160405180910390a180600454146107fa576107fa81610f2c565b5050565b610809816041611c78565b825110156108415760405162461bcd60e51b8152602060048201526005602482015264047533032360dc1b60448201526064016106f9565b6000808060008060005b86811015610c5a576041818102890160208101516040820151919092015160ff169550909350915083610a18579193508391610888876041611c78565b8210156108bf5760405162461bcd60e51b8152602060048201526005602482015264475330323160d81b60448201526064016106f9565b87516108cc836020611cb1565b11156109025760405162461bcd60e51b815260206004820152600560248201526423a998191960d91b60448201526064016106f9565b60208289018101518951909161092590839061091f908790611cb1565b90611cb1565b111561095b5760405162461bcd60e51b8152602060048201526005602482015264475330323360d81b60448201526064016106f9565b6040516320c13b0b60e01b8082528a8501602001916001600160a01b038916906320c13b0b90610991908f908690600401612e7c565b602060405180830381865afa1580156109ae573d6000803e3d6000fd5b505050506040513d601f19601f820116820180604052508101906109d29190612ea1565b6001600160e01b03191614610a115760405162461bcd60e51b815260206004820152600560248201526411d4cc0c8d60da1b60448201526064016106f9565b5050610bc0565b8360ff1660011415610a9b579193508391336001600160a01b0384161480610a6257506001600160a01b03851660009081526008602090815260408083208d845290915290205415155b610a965760405162461bcd60e51b8152602060048201526005602482015264475330323560d81b60448201526064016106f9565b610bc0565b601e8460ff161115610b60576040517f19457468657265756d205369676e6564204d6573736167653a0a3332000000006020820152603c81018b9052600190605c0160405160208183030381529060405280519060200120600486610b009190612ecb565b6040805160008152602081018083529390935260ff90911690820152606081018590526080810184905260a0016020604051602081039080840390855afa158015610b4f573d6000803e3d6000fd5b505050602060405103519450610bc0565b6040805160008152602081018083528c905260ff861691810191909152606081018490526080810183905260019060a0016020604051602081039080840390855afa158015610bb3573d6000803e3d6000fd5b5050506020604051035194505b856001600160a01b0316856001600160a01b0316118015610bfa57506001600160a01b038581166000908152600260205260409020541615155b8015610c1057506001600160a01b038516600114155b610c445760405162461bcd60e51b815260206004820152600560248201526423a998191b60d91b60448201526064016106f9565b8495508080610c5290612e61565b91505061084b565b50505050505050505050565b600060016001600160a01b03831614801590610c9b57506001600160a01b038281166000908152600160205260409020541615155b92915050565b60006001600160a01b038216600114801590610c9b5750506001600160a01b0390811660009081526002602052604090205416151590565b60007fb648d3644f584ed1c2232d53c46d87e693586486ad0d1175f8656013110b714e3386868686604051610d12959493929190612f26565b60405180910390a1610d2685858585611ccd565b95945050505050565b60006060610d3f86868686610cd9565b915060405160203d0181016040523d81523d6000602083013e8091505094509492505050565b60606000610d74836020612f72565b6001600160401b03811115610d8b57610d8b612667565b6040519080825280601f01601f191660200182016040528015610db5576020820181803683370190505b50905060005b83811015610de2578481015460208083028401015280610dda81612e61565b915050610dbb565b509392505050565b610df2611da4565b6001600160a01b03811615801590610e1457506001600160a01b038116600114155b610e485760405162461bcd60e51b8152602060048201526005602482015264475331303160d81b60448201526064016106f9565b6001600160a01b038181166000908152600160205260409020541615610e985760405162461bcd60e51b815260206004820152600560248201526423a998981960d91b60448201526064016106f9565b600160208181527fcc69885fda6bcc1a4ace058b4a62bf5e179ea78fd58a1ccd71c22cc9b688792f80546001600160a01b03858116600081815260408082208054949095166001600160a01b031994851617909455959095528254168417909155519182527fecdf3a3effea5783a3c4c2140e677577666428d44ed9d474a0b3a4c9943f844091015b60405180910390a150565b610f34611da4565b600354811115610f565760405162461bcd60e51b81526004016106f990612f91565b6001811015610f8f5760405162461bcd60e51b815260206004820152600560248201526423a999181960d91b60448201526064016106f9565b60048190556040518181527f610f7ff2b304ae8903c3de74c60c6ab1f7d6226b3f52c5161905bb5ad4039c9390602001610f21565b600554600454604080516020810193909352339083015260608281019190915260009160800160405160208183030381529060405290507f66753cd2356569ee081232e3be8909b950e0a76c1f8460c3a5e3c2be32b11bed8d8d8d8d8d8d8d8d8d8d8d8c6040516110409c9b9a99989796959493929190612fd9565b60405180910390a161105b8d8d8d8d8d8d8d8d8d8d8d611ddd565b9d9c50505050505050505050505050565b600454806110a45760405162461bcd60e51b8152602060048201526005602482015264475330303160d81b60448201526064016106f9565b6110b0848484846107fe565b50505050565b606060006003546001600160401b038111156110d4576110d4612667565b6040519080825280602002602001820160405280156110fd578160200160208202803683370190505b506001600090815260026020527fe90b7bceb6e7df5418fb78d8ee546e97c83a08bbccc01a0644d599ccd2a7c2e054919250906001600160a01b03165b6001600160a01b03811660011461119e578083838151811061115e5761115e613070565b6001600160a01b0392831660209182029290920181019190915291811660009081526002909252604090912054168161119681612e61565b92505061113a565b509092915050565b600080825160208401855af480600052503d6020523d600060403e60403d016000fd5b6112078a8a808060200260200160405190810160405280939291908181526020018383602002808284376000920191909152508c9250612126915050565b6001600160a01b0384161561123e5761123e847f6c9a6c4a39284e37ed1cf53d337577d14212a4870fb976a4366c693b939918d555565b61127e8787878080601f01602080910402602001604051908101604052809392919081815260200183838082843760009201919091525061230c92505050565b81156112955761129382600060018685612406565b505b336001600160a01b03167f141df868a6331af528e38c83b7aa03edc19be66e37ae67f9285bf4f8e3c6a1a88b8b8b8b896040516112d6959493929190613086565b60405180910390a250505050505050505050565b6000805a9050611333878787878080601f01602080910402602001604051908101604052809392919081815260200183838082843760009201919091525089925050505a61250c565b61133c57600080fd5b60005a61134990836130f2565b90508060405160200161135e91815260200190565b60408051601f198184030181529082905262461bcd60e51b82526106f99160040161289c565b60606000826001600160401b038111156113a0576113a0612667565b6040519080825280602002602001820160405280156113c9578160200160208202803683370190505b506001600160a01b0380861660009081526001602052604081205492945091165b6001600160a01b0381161580159061140c57506001600160a01b038116600114155b801561141757508482105b1561146f578084838151811061142f5761142f613070565b6001600160a01b0392831660209182029290920181019190915291811660009081526001909252604090912054168161146781612e61565b9250506113ea565b908352919491935090915050565b336000908152600260205260409020546001600160a01b03166114ca5760405162461bcd60e51b8152602060048201526005602482015264047533033360dc1b60448201526064016106f9565b336000818152600860209081526040808320858452909152808220600190555183917ff2a0eb156472d1440255b0d7c1e19cc07115d1051fe605b0dce69acfec884d9c91a350565b60006115278c8c8c8c8c8c8c8c8c8c8c611974565b8051906020012090509b9a5050505050505050505050565b611547611da4565b6001600160a01b0381161580159061156957506001600160a01b038116600114155b61159d5760405162461bcd60e51b8152602060048201526005602482015264475331303160d81b60448201526064016106f9565b6001600160a01b038281166000908152600160205260409020548116908216146115f15760405162461bcd60e51b8152602060048201526005602482015264475331303360d81b60448201526064016106f9565b6001600160a01b038181166000818152600160209081526040808320805488871685528285208054919097166001600160a01b03199182161790965592849052825490941690915591519081527faab4fa2b463f581b2b32cb3b7e3b704b9ce37cc209b5fb4d77e593ace405427691015b60405180910390a15050565b611676611da4565b6001600160a01b03811615611728576040516301ffc9a760e01b815263736bd41d60e11b60048201526001600160a01b038216906301ffc9a790602401602060405180830381865afa1580156116d0573d6000803e3d6000fd5b505050506040513d601f19601f820116820180604052508101906116f49190613109565b6117285760405162461bcd60e51b8152602060048201526005602482015264047533330360dc1b60448201526064016106f9565b7f4a204f620c8c5ccdca3fd54d003badd85ba500436a431f0cbda4f558c93c34c88181556040516001600160a01b03831681527f1151116914515bc0891ff9047a6cb32cf902546f83066499bcf8ba33d2353fa290602001611662565b61178d611da4565b6001600160a01b038116158015906117af57506001600160a01b038116600114155b80156117c457506001600160a01b0381163014155b6117e05760405162461bcd60e51b81526004016106f990612e0d565b6001600160a01b0381811660009081526002602052604090205416156118185760405162461bcd60e51b81526004016106f990612e2c565b6001600160a01b0382161580159061183a57506001600160a01b038216600114155b6118565760405162461bcd60e51b81526004016106f990612e0d565b6001600160a01b038381166000908152600260205260409020548116908316146118aa5760405162461bcd60e51b8152602060048201526005602482015264475332303560d81b60448201526064016106f9565b6001600160a01b038281166000818152600260209081526040808320805487871680865283862080549289166001600160a01b0319938416179055968a1685528285208054821690971790965592849052825490941690915591519081527ff8d49fc529812e9a7c5c50e69c20f0dccc0db8fa95c98bc58cc9a4f1c1299eaf910160405180910390a16040516001600160a01b03821681527f9465fa0c962cc76958e6373a993326400c1c94f8be2fe3a952adfa7f60b2ea269060200160405180910390a1505050565b606060007fbb8310d486368db6bd6f849402fdd73ad53d316b5a4b2644ad6efe0f941286d860001b8d8d8d8d6040516119ae92919061312b565b6040519081900381206119d4949392918e908e908e908e908e908e908e9060200161313b565b60408051601f1981840301815291905280516020909101209050601960f81b600160f81b611a00611ab6565b6040516001600160f81b031993841660208201529290911660218301526022820152604281018290526062016040516020818303038152906040529150509b9a5050505050505050505050565b611a55611da4565b611a7d817f6c9a6c4a39284e37ed1cf53d337577d14212a4870fb976a4366c693b939918d555565b6040516001600160a01b03821681527f5ac6c46c93c8d0e53714ba3b53db3e7c046da994313d7ed0d192028bc7c228b090602001610f21565b60007f47e79534a245952e8b16893a336b85a3d9ea9fa8c573f3d803afb92a794692184660408051602081019390935282015230606082015260800160405160208183030381529060405280519060200120905090565b806001600354611b1d91906130f2565b1015611b3b5760405162461bcd60e51b81526004016106f990612f91565b6001600160a01b03821615801590611b5d57506001600160a01b038216600114155b611b795760405162461bcd60e51b81526004016106f990612e0d565b6001600160a01b03838116600090815260026020526040902054811690831614611bcd5760405162461bcd60e51b8152602060048201526005602482015264475332303560d81b60448201526064016106f9565b6001600160a01b03828116600081815260026020526040808220805488861684529183208054929095166001600160a01b03199283161790945591815282549091169091556003805491611c20836131aa565b90915550506040516001600160a01b03831681527ff8d49fc529812e9a7c5c50e69c20f0dccc0db8fa95c98bc58cc9a4f1c1299eaf9060200160405180910390a18060045414611c7357611c7381610f2c565b505050565b600082611c8757506000610c9b565b6000611c938385612f72565b905082611ca085836131c1565b14611caa57600080fd5b9392505050565b600080611cbe83856131e3565b905083811015611caa57600080fd5b600033600114801590611cf75750336000908152600160205260409020546001600160a01b031615155b611d2b5760405162461bcd60e51b815260206004820152600560248201526411d4cc4c0d60da1b60448201526064016106f9565b611d38858585855a61250c565b90508015611d705760405133907f6895c13664aa4f67288b25d7a21d7aaa34916e355fb9b6fae0a139a9085becb890600090a2611d9c565b60405133907facd2c8702804128fdb0db2bb49f6d127dd0181c13fd45dbfe16de0930e2bd37590600090a25b949350505050565b333014611ddb5760405162461bcd60e51b8152602060048201526005602482015264475330333160d81b60448201526064016106f9565b565b6000806000611df78e8e8e8e8e8e8e8e8e8e600554611974565b600580549192506000611e0983612e61565b9091555050805160208201209150611e2282828661106c565b506000611e4d7f4a204f620c8c5ccdca3fd54d003badd85ba500436a431f0cbda4f558c93c34c85490565b90506001600160a01b03811615611ed357806001600160a01b03166375f0bb528f8f8f8f8f8f8f8f8f8f8f336040518d63ffffffff1660e01b8152600401611ea09c9b9a999897969594939291906131fb565b600060405180830381600087803b158015611eba57600080fd5b505af1158015611ece573d6000803e3d6000fd5b505050505b611eff611ee28a6109c46131e3565b603f611eef8c6040612f72565b611ef991906131c1565b90612552565b611f0b906101f46131e3565b5a1015611f425760405162461bcd60e51b8152602060048201526005602482015264047533031360dc1b60448201526064016106f9565b60005a9050611fb38f8f8f8f8080601f016020809104026020016040519081016040528093929190818152602001838380828437600081840152601f19601f820116905080830192505050505050508e8c600014611fa0578e61250c565b6109c45a611fae91906130f2565b61250c565b9350611fc05a8290612569565b90508380611fcd57508915155b80611fd757508715155b61200b5760405162461bcd60e51b8152602060048201526005602482015264475330313360d81b60448201526064016106f9565b6000881561202357612020828b8b8b8b612406565b90505b84156120675760408051858152602081018390527f442e715f626346e8c54381002da614f62bee8d27386535b2521ec8540898556e910160405180910390a16120a1565b60408051858152602081018390527f23428b18acfb3ea64b08dc0c1d296ea9c09702c09083ca5272e64d115b687d23910160405180910390a15b50506001600160a01b0381161561211557604051631264e26d60e31b81526004810183905283151560248201526001600160a01b03821690639327136890604401600060405180830381600087803b1580156120fc57600080fd5b505af1158015612110573d6000803e3d6000fd5b505050505b50509b9a5050505050505050505050565b6004541561215e5760405162461bcd60e51b8152602060048201526005602482015264047533230360dc1b60448201526064016106f9565b815181111561217f5760405162461bcd60e51b81526004016106f990612f91565b60018110156121b85760405162461bcd60e51b815260206004820152600560248201526423a999181960d91b60448201526064016106f9565b600160005b83518110156122d95760008482815181106121da576121da613070565b6020026020010151905060006001600160a01b0316816001600160a01b03161415801561221157506001600160a01b038116600114155b801561222657506001600160a01b0381163014155b80156122445750806001600160a01b0316836001600160a01b031614155b6122605760405162461bcd60e51b81526004016106f990612e0d565b6001600160a01b0381811660009081526002602052604090205416156122985760405162461bcd60e51b81526004016106f990612e2c565b6001600160a01b03928316600090815260026020526040902080546001600160a01b03191693821693909317909255806122d181612e61565b9150506121bd565b506001600160a01b0316600090815260026020526040902080546001600160a01b03191660011790559051600355600455565b600160008190526020527fcc69885fda6bcc1a4ace058b4a62bf5e179ea78fd58a1ccd71c22cc9b688792f546001600160a01b0316156123765760405162461bcd60e51b8152602060048201526005602482015264047533130360dc1b60448201526064016106f9565b6001600081905260208190527fcc69885fda6bcc1a4ace058b4a62bf5e179ea78fd58a1ccd71c22cc9b688792f80546001600160a01b03191690911790556001600160a01b038216156107fa576123d28260008360015a61250c565b6107fa5760405162461bcd60e51b8152602060048201526005602482015264047533030360dc1b60448201526064016106f9565b6000806001600160a01b0383161561241e5782612420565b325b90506001600160a01b0384166124b3576124523a8610612440573a612442565b855b61244c8989611cb1565b90611c78565b6040519092506001600160a01b0382169083156108fc029084906000818181858888f193505050506124ae5760405162461bcd60e51b8152602060048201526005602482015264475330313160d81b60448201526064016106f9565b612502565b6124c18561244c8989611cb1565b91506124ce848284612584565b6125025760405162461bcd60e51b815260206004820152600560248201526423a998189960d91b60448201526064016106f9565b5095945050505050565b6000600183600181111561252257612522612eee565b141561253b576000808551602087018986f49050610d26565b600080855160208701888a87f19695505050505050565b6000818310156125625781611caa565b5090919050565b60008282111561257857600080fd5b6000611d9c83856130f2565b604080516001600160a01b03841660248201526044808201849052825180830390910181526064909101909152602080820180516001600160e01b031663a9059cbb60e01b1781528251600093929184919082896127105a03f13d80156125f657602081146125fe5760009350612609565b819350612609565b600051158215171593505b5050509392505050565b6001600160a01b038116811461262857600080fd5b50565b803561263681612613565b919050565b6000806040838503121561264e57600080fd5b823561265981612613565b946020939093013593505050565b634e487b7160e01b600052604160045260246000fd5b600082601f83011261268e57600080fd5b81356001600160401b03808211156126a8576126a8612667565b604051601f8301601f19908116603f011681019082821181831017156126d0576126d0612667565b816040528381528660208588010111156126e957600080fd5b836020870160208301376000602085830101528094505050505092915050565b6000806000806080858703121561271f57600080fd5b8435935060208501356001600160401b038082111561273d57600080fd5b6127498883890161267d565b9450604087013591508082111561275f57600080fd5b5061276c8782880161267d565b949793965093946060013593505050565b60006020828403121561278f57600080fd5b8135611caa81612613565b80356002811061263657600080fd5b600080600080608085870312156127bf57600080fd5b84356127ca81612613565b93506020850135925060408501356001600160401b038111156127ec57600080fd5b6127f88782880161267d565b9250506128076060860161279a565b905092959194509250565b6000815180845260005b818110156128385760208185018101518683018201520161281c565b8181111561284a576000602083870101525b50601f01601f19169290920160200192915050565b8215158152604060208201526000611d9c6040830184612812565b6000806040838503121561288d57600080fd5b50508035926020909101359150565b602081526000611caa6020830184612812565b6000602082840312156128c157600080fd5b5035919050565b60008083601f8401126128da57600080fd5b5081356001600160401b038111156128f157600080fd5b60208301915083602082850101111561290957600080fd5b9250929050565b60008060008060008060008060008060006101408c8e03121561293257600080fd5b61293b8c61262b565b9a5060208c013599506001600160401b038060408e0135111561295d57600080fd5b61296d8e60408f01358f016128c8565b909a50985061297e60608e0161279a565b975060808d0135965060a08d0135955060c08d013594506129a160e08e0161262b565b93506129b06101008e0161262b565b9250806101208e013511156129c457600080fd5b506129d68d6101208e01358e0161267d565b90509295989b509295989b9093969950565b6000806000606084860312156129fd57600080fd5b8335925060208401356001600160401b0380821115612a1b57600080fd5b612a278783880161267d565b93506040860135915080821115612a3d57600080fd5b50612a4a8682870161267d565b9150509250925092565b600081518084526020808501945080840160005b83811015612a8d5781516001600160a01b031687529582019590820190600101612a68565b509495945050505050565b602081526000611caa6020830184612a54565b60008060408385031215612abe57600080fd5b8235612ac981612613565b915060208301356001600160401b03811115612ae457600080fd5b612af08582860161267d565b9150509250929050565b6000806000806000806000806000806101008b8d031215612b1a57600080fd5b8a356001600160401b0380821115612b3157600080fd5b818d0191508d601f830112612b4557600080fd5b813581811115612b5457600080fd5b8e60208260051b8501011115612b6957600080fd5b60208381019d50909b508d01359950612b8460408e0161262b565b985060608d0135915080821115612b9a57600080fd5b50612ba78d828e016128c8565b9097509550612bba905060808c0161262b565b9350612bc860a08c0161262b565b925060c08b01359150612bdd60e08c0161262b565b90509295989b9194979a5092959850565b600080600080600060808688031215612c0657600080fd5b8535612c1181612613565b94506020860135935060408601356001600160401b03811115612c3357600080fd5b612c3f888289016128c8565b9094509250612c5290506060870161279a565b90509295509295909350565b604081526000612c716040830185612a54565b905060018060a01b03831660208301529392505050565b60008060008060008060008060008060006101408c8e031215612caa57600080fd5b8b35612cb581612613565b9a5060208c0135995060408c01356001600160401b03811115612cd757600080fd5b612ce38e828f016128c8565b909a509850612cf6905060608d0161279a565b965060808c0135955060a08c0135945060c08c0135935060e08c0135612d1b81612613565b92506101008c0135612d2c81612613565b809250506101208c013590509295989b509295989b9093969950565b60008060408385031215612d5b57600080fd5b8235612d6681612613565b91506020830135612d7681612613565b809150509250929050565b600080600060608486031215612d9657600080fd5b8335612da181612613565b92506020840135612db181612613565b91506040840135612dc181612613565b809150509250925092565b600080600060608486031215612de157600080fd5b8335612dec81612613565b92506020840135612dfc81612613565b929592945050506040919091013590565b602080825260059082015264475332303360d81b604082015260600190565b60208082526005908201526411d4cc8c0d60da1b604082015260600190565b634e487b7160e01b600052601160045260246000fd5b6000600019821415612e7557612e75612e4b565b5060010190565b604081526000612e8f6040830185612812565b8281036020840152610d268185612812565b600060208284031215612eb357600080fd5b81516001600160e01b031981168114611caa57600080fd5b600060ff821660ff841680821015612ee557612ee5612e4b565b90039392505050565b634e487b7160e01b600052602160045260246000fd5b60028110612f2257634e487b7160e01b600052602160045260246000fd5b9052565b6001600160a01b038681168252851660208201526040810184905260a060608201819052600090612f5990830185612812565b9050612f686080830184612f04565b9695505050505050565b6000816000190483118215151615612f8c57612f8c612e4b565b500290565b602080825260059082015264475332303160d81b604082015260600190565b81835281816020850137506000828201602090810191909152601f909101601f19169091010190565b600060018060a01b03808f1683528d6020840152610160604084015261300461016084018d8f612fb0565b613011606085018d612f04565b8a60808501528960a08501528860c085015281881660e08501528187166101008501528381036101208501526130478187612812565b91505082810361014084015261305d8185612812565b9f9e505050505050505050505050505050565b634e487b7160e01b600052603260045260246000fd5b6080808252810185905260008660a08301825b888110156130c95782356130ac81612613565b6001600160a01b0316825260209283019290910190600101613099565b50602084019690965250506001600160a01b039283166040820152911660609091015292915050565b60008282101561310457613104612e4b565b500390565b60006020828403121561311b57600080fd5b81518015158114611caa57600080fd5b8183823760009101908152919050565b8b81526001600160a01b038b81166020830152604082018b9052606082018a905261016082019061316f608084018b612f04565b60a083019890985260c082019690965260e0810194909452918516610100840152909316610120820152610140019190915295945050505050565b6000816131b9576131b9612e4b565b506000190190565b6000826131de57634e487b7160e01b600052601260045260246000fd5b500490565b600082198211156131f6576131f6612e4b565b500190565b600060018060a01b03808f1683528d6020840152610160604084015261322661016084018d8f612fb0565b613233606085018d612f04565b8a60808501528960a08501528860c085015281881660e08501528187166101008501528381036101208501526132698187612812565b925050808416610140840152509d9c5050505050505050505050505056fea26469706673582212203391b39a4c9bb1fb1d7956c4690172f1e2f1562771b84cbaac539c99b778cc6064736f6c634300080a0033",
  "linkReferences": {},
  "deployedLinkReferences": {}
}