{
  "_format": "hh-sol-artifact-1",
  "contractName": "Badger",
  "sourceName": "contracts/governance/Badger.sol",
  "abi": [
    {
      "inputs": [
        {
          "internalType": "string",
          "name": "_newBaseUri",
          "type": "string"
        }
      ],
      "stateMutability": "nonpayable",
      "type": "constructor"
    },
    {
      "anonymous": false,
      "inputs": [
        {
          "indexed": true,
          "internalType": "address",
          "name": "account",
          "type": "address"
        },
        {
          "indexed": true,
          "internalType": "address",
          "name": "operator",
          "type": "address"
        },
        {
          "indexed": false,
          "internalType": "bool",
          "name": "approved",
          "type": "bool"
        }
      ],
      "name": "ApprovalForAll",
      "type": "event"
    },
    {
      "anonymous": false,
      "inputs": [
        {
          "indexed": true,
          "internalType": "address",
          "name": "previousOwner",
          "type": "address"
        },
        {
          "indexed": true,
          "internalType": "address",
          "name": "newOwner",
          "type": "address"
        }
      ],
      "name": "OwnershipTransferred",
      "type": "event"
    },
    {
      "anonymous": false,
      "inputs": [
        {
          "indexed": true,
          "internalType": "uint256",
          "name": "tokenId",
          "type": "uint256"
        },
        {
          "indexed": false,
          "internalType": "string",
          "name": "uriId",
          "type": "string"
        },
        {
          "indexed": false,
          "internalType": "bool",
          "name": "transferable",
          "type": "bool"
        }
      ],
      "name": "TierChange",
      "type": "event"
    },
    {
      "anonymous": false,
      "inputs": [
        {
          "indexed": true,
          "internalType": "address",
          "name": "operator",
          "type": "address"
        },
        {
          "indexed": true,
          "internalType": "address",
          "name": "from",
          "type": "address"
        },
        {
          "indexed": true,
          "internalType": "address",
          "name": "to",
          "type": "address"
        },
        {
          "indexed": false,
          "internalType": "uint256[]",
          "name": "ids",
          "type": "uint256[]"
        },
        {
          "indexed": false,
          "internalType": "uint256[]",
          "name": "values",
          "type": "uint256[]"
        }
      ],
      "name": "TransferBatch",
      "type": "event"
    },
    {
      "anonymous": false,
      "inputs": [
        {
          "indexed": true,
          "internalType": "address",
          "name": "operator",
          "type": "address"
        },
        {
          "indexed": true,
          "internalType": "address",
          "name": "from",
          "type": "address"
        },
        {
          "indexed": true,
          "internalType": "address",
          "name": "to",
          "type": "address"
        },
        {
          "indexed": false,
          "internalType": "uint256",
          "name": "id",
          "type": "uint256"
        },
        {
          "indexed": false,
          "internalType": "uint256",
          "name": "value",
          "type": "uint256"
        }
      ],
      "name": "TransferSingle",
      "type": "event"
    },
    {
      "anonymous": false,
      "inputs": [
        {
          "indexed": false,
          "internalType": "string",
          "name": "value",
          "type": "string"
        },
        {
          "indexed": true,
          "internalType": "uint256",
          "name": "id",
          "type": "uint256"
        }
      ],
      "name": "URI",
      "type": "event"
    },
    {
      "inputs": [
        {
          "internalType": "address",
          "name": "account",
          "type": "address"
        },
        {
          "internalType": "uint256",
          "name": "id",
          "type": "uint256"
        }
      ],
      "name": "balanceOf",
      "outputs": [
        {
          "internalType": "uint256",
          "name": "",
          "type": "uint256"
        }
      ],
      "stateMutability": "view",
      "type": "function"
    },
    {
      "inputs": [
        {
          "internalType": "address[]",
          "name": "accounts",
          "type": "address[]"
        },
        {
          "internalType": "uint256[]",
          "name": "ids",
          "type": "uint256[]"
        }
      ],
      "name": "balanceOfBatch",
      "outputs": [
        {
          "internalType": "uint256[]",
          "name": "",
          "type": "uint256[]"
        }
      ],
      "stateMutability": "view",
      "type": "function"
    },
    {
      "inputs": [
        {
          "internalType": "uint256[]",
          "name": "tokenIds",
          "type": "uint256[]"
        },
        {
          "internalType": "string[]",
          "name": "uriIds",
          "type": "string[]"
        },
        {
          "internalType": "bool[]",
          "name": "transferable",
          "type": "bool[]"
        }
      ],
      "name": "batchCreateTokenTiers",
      "outputs": [],
      "stateMutability": "nonpayable",
      "type": "function"
    },
    {
      "inputs": [
        {
          "internalType": "address",
          "name": "account",
          "type": "address"
        },
        {
          "internalType": "uint256",
          "name": "id",
          "type": "uint256"
        },
        {
          "internalType": "uint256",
          "name": "amount",
          "type": "uint256"
        }
      ],
      "name": "burn",
      "outputs": [],
      "stateMutability": "nonpayable",
      "type": "function"
    },
    {
      "inputs": [
        {
          "internalType": "address[]",
          "name": "accounts",
          "type": "address[]"
        },
        {
          "internalType": "uint256[]",
          "name": "tokenIds",
          "type": "uint256[]"
        },
        {
          "internalType": "uint256[]",
          "name": "amounts",
          "type": "uint256[]"
        }
      ],
      "name": "burnFromMultiple",
      "outputs": [],
      "stateMutability": "nonpayable",
      "type": "function"
    },
    {
      "inputs": [
        {
          "internalType": "string",
          "name": "_newBaseUri",
          "type": "string"
        }
      ],
      "name": "changeBaseUri",
      "outputs": [],
      "stateMutability": "nonpayable",
      "type": "function"
    },
    {
      "inputs": [
        {
          "internalType": "uint256",
          "name": "tokenId",
          "type": "uint256"
        },
        {
          "internalType": "string",
          "name": "uriId",
          "type": "string"
        },
        {
          "internalType": "bool",
          "name": "transferable",
          "type": "bool"
        }
      ],
      "name": "createTokenTier",
      "outputs": [],
      "stateMutability": "nonpayable",
      "type": "function"
    },
    {
      "inputs": [
        {
          "internalType": "address",
          "name": "account",
          "type": "address"
        },
        {
          "internalType": "address",
          "name": "operator",
          "type": "address"
        }
      ],
      "name": "isApprovedForAll",
      "outputs": [
        {
          "internalType": "bool",
          "name": "",
          "type": "bool"
        }
      ],
      "stateMutability": "view",
      "type": "function"
    },
    {
      "inputs": [
        {
          "internalType": "address",
          "name": "account",
          "type": "address"
        },
        {
          "internalType": "uint256",
          "name": "id",
          "type": "uint256"
        },
        {
          "internalType": "uint256",
          "name": "amount",
          "type": "uint256"
        }
      ],
      "name": "mint",
      "outputs": [],
      "stateMutability": "nonpayable",
      "type": "function"
    },
    {
      "inputs": [
        {
          "internalType": "address[]",
          "name": "accounts",
          "type": "address[]"
        },
        {
          "internalType": "uint256[]",
          "name": "tokenIds",
          "type": "uint256[]"
        },
        {
          "internalType": "uint256[]",
          "name": "amounts",
          "type": "uint256[]"
        }
      ],
      "name": "mintToMultiple",
      "outputs": [],
      "stateMutability": "nonpayable",
      "type": "function"
    },
    {
      "inputs": [],
      "name": "owner",
      "outputs": [
        {
          "internalType": "address",
          "name": "",
          "type": "address"
        }
      ],
      "stateMutability": "view",
      "type": "function"
    },
    {
      "inputs": [],
      "name": "renounceOwnership",
      "outputs": [],
      "stateMutability": "nonpayable",
      "type": "function"
    },
    {
      "inputs": [
        {
          "internalType": "address",
          "name": "from",
          "type": "address"
        },
        {
          "internalType": "address",
          "name": "to",
          "type": "address"
        },
        {
          "internalType": "uint256[]",
          "name": "ids",
          "type": "uint256[]"
        },
        {
          "internalType": "uint256[]",
          "name": "amounts",
          "type": "uint256[]"
        },
        {
          "internalType": "bytes",
          "name": "data",
          "type": "bytes"
        }
      ],
      "name": "safeBatchTransferFrom",
      "outputs": [],
      "stateMutability": "nonpayable",
      "type": "function"
    },
    {
      "inputs": [
        {
          "internalType": "address",
          "name": "from",
          "type": "address"
        },
        {
          "internalType": "address",
          "name": "to",
          "type": "address"
        },
        {
          "internalType": "uint256",
          "name": "id",
          "type": "uint256"
        },
        {
          "internalType": "uint256",
          "name": "amount",
          "type": "uint256"
        },
        {
          "internalType": "bytes",
          "name": "data",
          "type": "bytes"
        }
      ],
      "name": "safeTransferFrom",
      "outputs": [],
      "stateMutability": "nonpayable",
      "type": "function"
    },
    {
      "inputs": [
        {
          "internalType": "address",
          "name": "operator",
          "type": "address"
        },
        {
          "internalType": "bool",
          "name": "approved",
          "type": "bool"
        }
      ],
      "name": "setApprovalForAll",
      "outputs": [],
      "stateMutability": "nonpayable",
      "type": "function"
    },
    {
      "inputs": [
        {
          "internalType": "bytes4",
          "name": "interfaceId",
          "type": "bytes4"
        }
      ],
      "name": "supportsInterface",
      "outputs": [
        {
          "internalType": "bool",
          "name": "",
          "type": "bool"
        }
      ],
      "stateMutability": "view",
      "type": "function"
    },
    {
      "inputs": [
        {
          "internalType": "uint256",
          "name": "",
          "type": "uint256"
        }
      ],
      "name": "tokenTiers",
      "outputs": [
        {
          "internalType": "string",
          "name": "uriId",
          "type": "string"
        },
        {
          "internalType": "bool",
          "name": "transferable",
          "type": "bool"
        }
      ],
      "stateMutability": "view",
      "type": "function"
    },
    {
      "inputs": [
        {
          "internalType": "address",
          "name": "from",
          "type": "address"
        },
        {
          "internalType": "address",
          "name": "to",
          "type": "address"
        },
        {
          "internalType": "uint256",
          "name": "id",
          "type": "uint256"
        },
        {
          "internalType": "uint256",
          "name": "amount",
          "type": "uint256"
        }
      ],
      "name": "transferFromWithoutData",
      "outputs": [],
      "stateMutability": "nonpayable",
      "type": "function"
    },
    {
      "inputs": [
        {
          "internalType": "address",
          "name": "newOwner",
          "type": "address"
        }
      ],
      "name": "transferOwnership",
      "outputs": [],
      "stateMutability": "nonpayable",
      "type": "function"
    },
    {
      "inputs": [
        {
          "internalType": "uint256[]",
          "name": "tokenIds",
          "type": "uint256[]"
        },
        {
          "internalType": "string[]",
          "name": "uriIds",
          "type": "string[]"
        }
      ],
      "name": "updateMultipleUriIdentifiers",
      "outputs": [],
      "stateMutability": "nonpayable",
      "type": "function"
    },
    {
      "inputs": [
        {
          "internalType": "uint256",
          "name": "tokenId",
          "type": "uint256"
        },
        {
          "internalType": "bool",
          "name": "transferable",
          "type": "bool"
        }
      ],
      "name": "updateTransferableStatus",
      "outputs": [],
      "stateMutability": "nonpayable",
      "type": "function"
    },
    {
      "inputs": [
        {
          "internalType": "uint256",
          "name": "tokenId",
          "type": "uint256"
        },
        {
          "internalType": "string",
          "name": "uriId",
          "type": "string"
        }
      ],
      "name": "updateUriIdentifier",
      "outputs": [],
      "stateMutability": "nonpayable",
      "type": "function"
    },
    {
      "inputs": [
        {
          "internalType": "uint256",
          "name": "tokenId",
          "type": "uint256"
        }
      ],
      "name": "uri",
      "outputs": [
        {
          "internalType": "string",
          "name": "",
          "type": "string"
        }
      ],
      "stateMutability": "view",
      "type": "function"
    }
  ],
  "bytecode": "0x60806040523480156200001157600080fd5b5060405162002fbc38038062002fbc833981016040819052620000349162000178565b80620000403362000053565b6200004b81620000a3565b505062000291565b600080546001600160a01b038381166001600160a01b0319831681178455604051919092169283917f8be0079c531659141344cd1fd0a4f28419497f9722a3daafe3b4186f6b6457e09190a35050565b8051620000b8906003906020840190620000bc565b5050565b828054620000ca9062000254565b90600052602060002090601f016020900481019282620000ee576000855562000139565b82601f106200010957805160ff191683800117855562000139565b8280016001018555821562000139579182015b82811115620001395782518255916020019190600101906200011c565b50620001479291506200014b565b5090565b5b808211156200014757600081556001016200014c565b634e487b7160e01b600052604160045260246000fd5b600060208083850312156200018c57600080fd5b82516001600160401b0380821115620001a457600080fd5b818501915085601f830112620001b957600080fd5b815181811115620001ce57620001ce62000162565b604051601f8201601f19908116603f01168101908382118183101715620001f957620001f962000162565b8160405282815288868487010111156200021257600080fd5b600093505b8284101562000236578484018601518185018701529285019262000217565b82841115620002485760008684830101525b98975050505050505050565b600181811c908216806200026957607f821691505b602082108114156200028b57634e487b7160e01b600052602260045260246000fd5b50919050565b612d1b80620002a16000396000f3fe608060405234801561001057600080fd5b506004361061014c5760003560e01c8063715018a6116100c3578063a22cb4651161007c578063a22cb465146102de578063d2047b54146102f1578063e985e9c514610304578063f242432a14610340578063f2fde38b14610353578063f5298aca1461036657600080fd5b8063715018a61461026157806380f3d11e14610269578063818f2e421461027c57806384385b6b1461029d5780638da5cb5b146102b057806397c7cc87146102cb57600080fd5b80632eb2c2d6116101155780632eb2c2d6146101e2578063351521cd146101f5578063492d306b146102085780634e1273f41461021b5780635969caf11461023b5780636222c3891461024e57600080fd5b8062fdd58e1461015157806301ffc9a714610177578063036789d11461019a5780630e89341c146101af578063156e29f6146101cf575b600080fd5b61016461015f366004611f3c565b610379565b6040519081526020015b60405180910390f35b61018a610185366004611f7c565b610412565b604051901515815260200161016e565b6101ad6101a8366004611fe4565b610464565b005b6101c26101bd36600461204f565b61051f565b60405161016e91906120c0565b6101ad6101dd3660046120d3565b6105e0565b6101ad6101f036600461224f565b61061e565b6101ad6102033660046122f8565b6106a3565b6101ad6102163660046123d2565b6107bc565b61022e610229366004612413565b610883565b60405161016e9190612518565b6101ad61024936600461253b565b6109ac565b6101ad61025c366004612567565b610af4565b6101ad610b2a565b6101ad6102773660046122f8565b610b60565b61028f61028a36600461204f565b610c52565b60405161016e9291906125c4565b6101ad6102ab3660046125e8565b610cf9565b6000546040516001600160a01b03909116815260200161016e565b6101ad6102d936600461262a565b610da9565b6101ad6102ec366004612675565b610de3565b6101ad6102ff3660046122f8565b610eba565b61018a61031236600461269f565b6001600160a01b03918216600090815260026020908152604080832093909416825291909152205460ff1690565b6101ad61034e3660046126c9565b610fd7565b6101ad61036136600461272d565b611085565b6101ad6103743660046120d3565b611120565b60006001600160a01b0383166103ea5760405162461bcd60e51b815260206004820152602b60248201527f455243313135353a2062616c616e636520717565727920666f7220746865207a60448201526a65726f206164647265737360a81b60648201526084015b60405180910390fd5b5060009081526001602090815260408083206001600160a01b03949094168352929052205490565b60006001600160e01b03198216636cdb3d1360e11b148061044357506001600160e01b031982166303a24d0760e21b145b8061045e57506301ffc9a760e01b6001600160e01b03198316145b92915050565b6000546001600160a01b0316331461048e5760405162461bcd60e51b81526004016103e190612748565b8281146104ad5760405162461bcd60e51b81526004016103e19061277d565b60005b60ff81168411156105185761050685858360ff168181106104d3576104d36127ab565b9050602002013584848460ff168181106104ef576104ef6127ab565b905060200281019061050191906127c1565b611155565b806105108161281d565b9150506104b0565b5050505050565b6060600061052c83611264565b600084815260046020526040902080549192506105d99161054c9061283d565b80601f01602080910402602001604051908101604052809291908181526020018280546105789061283d565b80156105c55780601f1061059a576101008083540402835291602001916105c5565b820191906000526020600020905b8154815290600101906020018083116105a857829003601f168201915b5050505050826112f890919063ffffffff16565b9392505050565b6000546001600160a01b0316331461060a5760405162461bcd60e51b81526004016103e190612748565b606061061884848484611324565b50505050565b60005b83518160ff1610156106955760046000858360ff1681518110610646576106466127ab565b60209081029190910181015182528101919091526040016000206001015460ff166106835760405162461bcd60e51b81526004016103e190612878565b8061068d8161281d565b915050610621565b50610518858585858561136c565b6000546001600160a01b031633146106cd5760405162461bcd60e51b81526004016103e190612748565b858585858585808060200260200160405190810160405280939291908181526020018383602002808284376000920191909152505050848314905080156107145750805182145b6107305760405162461bcd60e51b81526004016103e19061277d565b60005b8a8110156107ae5761079c8c8c83818110610750576107506127ab565b9050602002016020810190610765919061272d565b8b8b84818110610777576107776127ab565b905060200201358a8a85818110610790576107906127ab565b905060200201356113fc565b806107a6816128af565b915050610733565b505050505050505050505050565b6000546001600160a01b031633146107e65760405162461bcd60e51b81526004016103e190612748565b818161082782828080601f01602080910402602001604051908101604052809392919081815260200183838082843760009201919091525061144392505050565b156108445760405162461bcd60e51b81526004016103e1906128ca565b61061884848080601f01602080910402602001604051908101604052809392919081815260200183838082843760009201919091525061144892505050565b606081518351146108e85760405162461bcd60e51b815260206004820152602960248201527f455243313135353a206163636f756e747320616e6420696473206c656e677468604482015268040dad2e6dac2e8c6d60bb1b60648201526084016103e1565b600083516001600160401b0381111561090357610903612106565b60405190808252806020026020018201604052801561092c578160200160208202803683370190505b50905060005b84518110156109a457610977858281518110610950576109506127ab565b602002602001015185838151811061096a5761096a6127ab565b6020026020010151610379565b828281518110610989576109896127ab565b602090810291909101015261099d816128af565b9050610932565b509392505050565b6000546001600160a01b031633146109d65760405162461bcd60e51b81526004016103e190612748565b600082815260046020526040902080548391610a78916109f59061283d565b80601f0160208091040260200160405190810160405280929190818152602001828054610a219061283d565b8015610a6e5780601f10610a4357610100808354040283529160200191610a6e565b820191906000526020600020905b815481529060010190602001808311610a5157829003601f168201915b5050505050511590565b15610a955760405162461bcd60e51b81526004016103e1906128fa565b6000838152600460205260409081902060018101805460ff1916851515179055905184917f684099fd398949dc782e92c48c5b6b47f1e1f6cadc408d22d5159752d6c4bced91610ae791908690612927565b60405180910390a2505050565b6000546001600160a01b03163314610b1e5760405162461bcd60e51b81526004016103e190612748565b6106188484848461145f565b6000546001600160a01b03163314610b545760405162461bcd60e51b81526004016103e190612748565b610b5e60006115df565b565b6000546001600160a01b03163314610b8a5760405162461bcd60e51b81526004016103e190612748565b8483148015610b9857508281145b610bb45760405162461bcd60e51b81526004016103e19061277d565b60005b60ff8116861115610c4957610c3787878360ff16818110610bda57610bda6127ab565b9050602002013586868460ff16818110610bf657610bf66127ab565b9050602002810190610c0891906127c1565b86868660ff16818110610c1d57610c1d6127ab565b9050602002016020810190610c3291906129e1565b61145f565b80610c418161281d565b915050610bb7565b50505050505050565b600460205260009081526040902080548190610c6d9061283d565b80601f0160208091040260200160405190810160405280929190818152602001828054610c999061283d565b8015610ce65780601f10610cbb57610100808354040283529160200191610ce6565b820191906000526020600020905b815481529060010190602001808311610cc957829003601f168201915b5050506001909301549192505060ff1682565b6000828152600460205260409020600101548290859060ff16610d2e5760405162461bcd60e51b81526004016103e190612878565b6000546001600160a01b0316331480610d4f57506001600160a01b03811633145b80610d5f5750610d5f8133610312565b610d9a5760405162461bcd60e51b815260206004820152600c60248201526b155b985d5d1a1bdc9a5e995960a21b60448201526064016103e1565b6060610c49878787878561162f565b6000546001600160a01b03163314610dd35760405162461bcd60e51b81526004016103e190612748565b610dde838383611155565b505050565b336001600160a01b0383161415610e4e5760405162461bcd60e51b815260206004820152602960248201527f455243313135353a2073657474696e6720617070726f76616c20737461747573604482015268103337b91039b2b63360b91b60648201526084016103e1565b3360008181526002602090815260408083206001600160a01b03871680855290835292819020805460ff191686151590811790915590519081529192917f17307eab39ab6107e8899845ad3d59bd9653f200f220920489ca2b5937696c31910160405180910390a35050565b6000546001600160a01b03163314610ee45760405162461bcd60e51b81526004016103e190612748565b85858585858580806020026020016040519081016040528093929190818152602001838360200280828437600092019190915250505084831490508015610f2b5750805182145b610f475760405162461bcd60e51b81526004016103e19061277d565b606060005b8b811015610fc857610fb68d8d83818110610f6957610f696127ab565b9050602002016020810190610f7e919061272d565b8c8c84818110610f9057610f906127ab565b905060200201358b8b85818110610fa957610fa96127ab565b9050602002013585611324565b80610fc0816128af565b915050610f4c565b50505050505050505050505050565b6000838152600460205260409020600101548390869060ff1661100c5760405162461bcd60e51b81526004016103e190612878565b6000546001600160a01b031633148061102d57506001600160a01b03811633145b8061103d575061103d8133610312565b6110785760405162461bcd60e51b815260206004820152600c60248201526b155b985d5d1a1bdc9a5e995960a21b60448201526064016103e1565b610c49878787878761162f565b6000546001600160a01b031633146110af5760405162461bcd60e51b81526004016103e190612748565b6001600160a01b0381166111145760405162461bcd60e51b815260206004820152602660248201527f4f776e61626c653a206e6577206f776e657220697320746865207a65726f206160448201526564647265737360d01b60648201526084016103e1565b61111d816115df565b50565b6000546001600160a01b0316331461114a5760405162461bcd60e51b81526004016103e190612748565b610dde8383836113fc565b600083815260046020526040902080548491611174916109f59061283d565b156111915760405162461bcd60e51b81526004016103e1906128fa565b82826111d282828080601f01602080910402602001604051908101604052809392919081815260200183838082843760009201919091525061144392505050565b156111ef5760405162461bcd60e51b81526004016103e1906128ca565b6000868152600460205260409020611208908686611e13565b506000868152600460205260409081902060010154905187917f684099fd398949dc782e92c48c5b6b47f1e1f6cadc408d22d5159752d6c4bced91611254918991899160ff16906129fc565b60405180910390a2505050505050565b6060600380546112739061283d565b80601f016020809104026020016040519081016040528092919081815260200182805461129f9061283d565b80156112ec5780601f106112c1576101008083540402835291602001916112ec565b820191906000526020600020905b8154815290600101906020018083116112cf57829003601f168201915b50505050509050919050565b6060828260405160200161130d929190612a34565b604051602081830303815290604052905092915050565b600083815260046020526040902080548491611343916109f59061283d565b156113605760405162461bcd60e51b81526004016103e1906128fa565b61051885858585611750565b6001600160a01b03851633148061138857506113888533610312565b6113ef5760405162461bcd60e51b815260206004820152603260248201527f455243313135353a207472616e736665722063616c6c6572206973206e6f74206044820152711bdddb995c881b9bdc88185c1c1c9bdd995960721b60648201526084016103e1565b6105188585858585611853565b60008281526004602052604090208054839161141b916109f59061283d565b156114385760405162461bcd60e51b81526004016103e1906128fa565b610618848484611a33565b511590565b805161145b906003906020840190611e97565b5050565b82826114a082828080601f01602080910402602001604051908101604052809392919081815260200183838082843760009201919091525061144392505050565b156114bd5760405162461bcd60e51b81526004016103e1906128ca565b600086815260046020526040902080546114db91906109f59061283d565b6115275760405162461bcd60e51b815260206004820152601f60248201527f5469657220616c72656164792065786973747320666f7220746f6b656e49640060448201526064016103e1565b6040805160606020601f880181900402820181018352918101868152909182919088908890819085018382808284376000920182905250938552505050851515602092830152888152600482526040902082518051919261158d92849290910190611e97565b50602091909101516001909101805460ff191691151591909117905560405186907f684099fd398949dc782e92c48c5b6b47f1e1f6cadc408d22d5159752d6c4bced90611254908890889088906129fc565b600080546001600160a01b038381166001600160a01b0319831681178455604051919092169283917f8be0079c531659141344cd1fd0a4f28419497f9722a3daafe3b4186f6b6457e09190a35050565b6001600160a01b0384166116555760405162461bcd60e51b81526004016103e190612a63565b3361166e81878761166588611bb1565b61051888611bb1565b60008481526001602090815260408083206001600160a01b038a168452909152902054838110156116b15760405162461bcd60e51b81526004016103e190612aa8565b60008581526001602090815260408083206001600160a01b038b81168552925280832087850390559088168252812080548692906116f0908490612af2565b909155505060408051868152602081018690526001600160a01b03808916928a821692918616917fc3d58168c5ae7397731d063d5bbf3d657854427343f4c083240f7aacaa2d0f62910160405180910390a4610c49828888888888611bfc565b6001600160a01b0384166117b05760405162461bcd60e51b815260206004820152602160248201527f455243313135353a206d696e7420746f20746865207a65726f206164647265736044820152607360f81b60648201526084016103e1565b336117c18160008761166588611bb1565b60008481526001602090815260408083206001600160a01b0389168452909152812080548592906117f3908490612af2565b909155505060408051858152602081018590526001600160a01b0380881692600092918516917fc3d58168c5ae7397731d063d5bbf3d657854427343f4c083240f7aacaa2d0f62910160405180910390a461051881600087878787611bfc565b81518351146118b55760405162461bcd60e51b815260206004820152602860248201527f455243313135353a2069647320616e6420616d6f756e7473206c656e677468206044820152670dad2e6dac2e8c6d60c31b60648201526084016103e1565b6001600160a01b0384166118db5760405162461bcd60e51b81526004016103e190612a63565b3360005b84518110156119c55760008582815181106118fc576118fc6127ab565b60200260200101519050600085838151811061191a5761191a6127ab565b60209081029190910181015160008481526001835260408082206001600160a01b038e16835290935291909120549091508181101561196b5760405162461bcd60e51b81526004016103e190612aa8565b60008381526001602090815260408083206001600160a01b038e8116855292528083208585039055908b168252812080548492906119aa908490612af2565b92505081905550505050806119be906128af565b90506118df565b50846001600160a01b0316866001600160a01b0316826001600160a01b03167f4a39dc06d4c0dbc64b70af90fd698a233a518aa5d07e595d983b8c0526c8f7fb8787604051611a15929190612b0a565b60405180910390a4611a2b818787878787611d58565b505050505050565b6001600160a01b038316611a955760405162461bcd60e51b815260206004820152602360248201527f455243313135353a206275726e2066726f6d20746865207a65726f206164647260448201526265737360e81b60648201526084016103e1565b33611ac581856000611aa687611bb1565b611aaf87611bb1565b5050604080516020810190915260009052505050565b60008381526001602090815260408083206001600160a01b038816845290915290205482811015611b445760405162461bcd60e51b8152602060048201526024808201527f455243313135353a206275726e20616d6f756e7420657863656564732062616c604482015263616e636560e01b60648201526084016103e1565b60008481526001602090815260408083206001600160a01b03898116808652918452828520888703905582518981529384018890529092908616917fc3d58168c5ae7397731d063d5bbf3d657854427343f4c083240f7aacaa2d0f62910160405180910390a45050505050565b60408051600180825281830190925260609160009190602080830190803683370190505090508281600081518110611beb57611beb6127ab565b602090810291909101015292915050565b6001600160a01b0384163b15611a2b5760405163f23a6e6160e01b81526001600160a01b0385169063f23a6e6190611c409089908990889088908890600401612b38565b6020604051808303816000875af1925050508015611c7b575060408051601f3d908101601f19168201909252611c7891810190612b7d565b60015b611d2857611c87612b9a565b806308c379a01415611cc15750611c9c612bb6565b80611ca75750611cc3565b8060405162461bcd60e51b81526004016103e191906120c0565b505b60405162461bcd60e51b815260206004820152603460248201527f455243313135353a207472616e7366657220746f206e6f6e20455243313135356044820152732932b1b2b4bb32b91034b6b83632b6b2b73a32b960611b60648201526084016103e1565b6001600160e01b0319811663f23a6e6160e01b14610c495760405162461bcd60e51b81526004016103e190612c3f565b6001600160a01b0384163b15611a2b5760405163bc197c8160e01b81526001600160a01b0385169063bc197c8190611d9c9089908990889088908890600401612c87565b6020604051808303816000875af1925050508015611dd7575060408051601f3d908101601f19168201909252611dd491810190612b7d565b60015b611de357611c87612b9a565b6001600160e01b0319811663bc197c8160e01b14610c495760405162461bcd60e51b81526004016103e190612c3f565b828054611e1f9061283d565b90600052602060002090601f016020900481019282611e415760008555611e87565b82601f10611e5a5782800160ff19823516178555611e87565b82800160010185558215611e87579182015b82811115611e87578235825591602001919060010190611e6c565b50611e93929150611f0b565b5090565b828054611ea39061283d565b90600052602060002090601f016020900481019282611ec55760008555611e87565b82601f10611ede57805160ff1916838001178555611e87565b82800160010185558215611e87579182015b82811115611e87578251825591602001919060010190611ef0565b5b80821115611e935760008155600101611f0c565b80356001600160a01b0381168114611f3757600080fd5b919050565b60008060408385031215611f4f57600080fd5b611f5883611f20565b946020939093013593505050565b6001600160e01b03198116811461111d57600080fd5b600060208284031215611f8e57600080fd5b81356105d981611f66565b60008083601f840112611fab57600080fd5b5081356001600160401b03811115611fc257600080fd5b6020830191508360208260051b8501011115611fdd57600080fd5b9250929050565b60008060008060408587031215611ffa57600080fd5b84356001600160401b038082111561201157600080fd5b61201d88838901611f99565b9096509450602087013591508082111561203657600080fd5b5061204387828801611f99565b95989497509550505050565b60006020828403121561206157600080fd5b5035919050565b60005b8381101561208357818101518382015260200161206b565b838111156106185750506000910152565b600081518084526120ac816020860160208601612068565b601f01601f19169290920160200192915050565b6020815260006105d96020830184612094565b6000806000606084860312156120e857600080fd5b6120f184611f20565b95602085013595506040909401359392505050565b634e487b7160e01b600052604160045260246000fd5b601f8201601f191681016001600160401b038111828210171561214157612141612106565b6040525050565b60006001600160401b0382111561216157612161612106565b5060051b60200190565b600082601f83011261217c57600080fd5b8135602061218982612148565b604051612196828261211c565b83815260059390931b85018201928281019150868411156121b657600080fd5b8286015b848110156121d157803583529183019183016121ba565b509695505050505050565b600082601f8301126121ed57600080fd5b81356001600160401b0381111561220657612206612106565b60405161221d601f8301601f19166020018261211c565b81815284602083860101111561223257600080fd5b816020850160208301376000918101602001919091529392505050565b600080600080600060a0868803121561226757600080fd5b61227086611f20565b945061227e60208701611f20565b935060408601356001600160401b038082111561229a57600080fd5b6122a689838a0161216b565b945060608801359150808211156122bc57600080fd5b6122c889838a0161216b565b935060808801359150808211156122de57600080fd5b506122eb888289016121dc565b9150509295509295909350565b6000806000806000806060878903121561231157600080fd5b86356001600160401b038082111561232857600080fd5b6123348a838b01611f99565b9098509650602089013591508082111561234d57600080fd5b6123598a838b01611f99565b9096509450604089013591508082111561237257600080fd5b5061237f89828a01611f99565b979a9699509497509295939492505050565b60008083601f8401126123a357600080fd5b5081356001600160401b038111156123ba57600080fd5b602083019150836020828501011115611fdd57600080fd5b600080602083850312156123e557600080fd5b82356001600160401b038111156123fb57600080fd5b61240785828601612391565b90969095509350505050565b6000806040838503121561242657600080fd5b82356001600160401b038082111561243d57600080fd5b818501915085601f83011261245157600080fd5b8135602061245e82612148565b60405161246b828261211c565b83815260059390931b850182019282810191508984111561248b57600080fd5b948201945b838610156124b0576124a186611f20565b82529482019490820190612490565b965050860135925050808211156124c657600080fd5b506124d38582860161216b565b9150509250929050565b600081518084526020808501945080840160005b8381101561250d578151875295820195908201906001016124f1565b509495945050505050565b6020815260006105d960208301846124dd565b80358015158114611f3757600080fd5b6000806040838503121561254e57600080fd5b8235915061255e6020840161252b565b90509250929050565b6000806000806060858703121561257d57600080fd5b8435935060208501356001600160401b0381111561259a57600080fd5b6125a687828801612391565b90945092506125b990506040860161252b565b905092959194509250565b6040815260006125d76040830185612094565b905082151560208301529392505050565b600080600080608085870312156125fe57600080fd5b61260785611f20565b935061261560208601611f20565b93969395505050506040820135916060013590565b60008060006040848603121561263f57600080fd5b8335925060208401356001600160401b0381111561265c57600080fd5b61266886828701612391565b9497909650939450505050565b6000806040838503121561268857600080fd5b61269183611f20565b915061255e6020840161252b565b600080604083850312156126b257600080fd5b6126bb83611f20565b915061255e60208401611f20565b600080600080600060a086880312156126e157600080fd5b6126ea86611f20565b94506126f860208701611f20565b9350604086013592506060860135915060808601356001600160401b0381111561272157600080fd5b6122eb888289016121dc565b60006020828403121561273f57600080fd5b6105d982611f20565b6020808252818101527f4f776e61626c653a2063616c6c6572206973206e6f7420746865206f776e6572604082015260600190565b602080825260149082015273092dce0eae840c2e4e4c2f240dad2e6dac2e8c6d60631b604082015260600190565b634e487b7160e01b600052603260045260246000fd5b6000808335601e198436030181126127d857600080fd5b8301803591506001600160401b038211156127f257600080fd5b602001915036819003821315611fdd57600080fd5b634e487b7160e01b600052601160045260246000fd5b600060ff821660ff81141561283457612834612807565b60010192915050565b600181811c9082168061285157607f821691505b6020821081141561287257634e487b7160e01b600052602260045260246000fd5b50919050565b6020808252601f908201527f5472616e736665722064697361626c656420666f722074686973207469657200604082015260600190565b60006000198214156128c3576128c3612807565b5060010190565b602080825260169082015275537472696e672063616e6e6f7420626520656d70747960501b604082015260600190565b602080825260139082015272151a595c88191bd95cc81b9bdd08195e1a5cdd606a1b604082015260600190565b60408152600080845481600182811c91508083168061294757607f831692505b602080841082141561296757634e487b7160e01b86526022600452602486fd5b60408801849052606088018280156129865760018114612997576129c2565b60ff198716825282820197506129c2565b60008c81526020902060005b878110156129bc578154848201529086019084016129a3565b83019850505b50508596506129d48189018a15159052565b5050505050509392505050565b6000602082840312156129f357600080fd5b6105d98261252b565b6040815282604082015282846060830137600060608483018101919091529115156020820152601f909201601f191690910101919050565b60008351612a46818460208801612068565b835190830190612a5a818360208801612068565b01949350505050565b60208082526025908201527f455243313135353a207472616e7366657220746f20746865207a65726f206164604082015264647265737360d81b606082015260800190565b6020808252602a908201527f455243313135353a20696e73756666696369656e742062616c616e636520666f60408201526939103a3930b739b332b960b11b606082015260800190565b60008219821115612b0557612b05612807565b500190565b604081526000612b1d60408301856124dd565b8281036020840152612b2f81856124dd565b95945050505050565b6001600160a01b03868116825285166020820152604081018490526060810183905260a060808201819052600090612b7290830184612094565b979650505050505050565b600060208284031215612b8f57600080fd5b81516105d981611f66565b600060033d1115612bb35760046000803e5060005160e01c5b90565b600060443d1015612bc45790565b6040516003193d81016004833e81513d6001600160401b038160248401118184111715612bf357505050505090565b8285019150815181811115612c0b5750505050505090565b843d8701016020828501011115612c255750505050505090565b612c346020828601018761211c565b509095945050505050565b60208082526028908201527f455243313135353a204552433131353552656365697665722072656a656374656040820152676420746f6b656e7360c01b606082015260800190565b6001600160a01b0386811682528516602082015260a060408201819052600090612cb3908301866124dd565b8281036060840152612cc581866124dd565b90508281036080840152612cd98185612094565b9897505050505050505056fea26469706673582212203d3d893d2b7b419062091a04d5224347befe17a042671400054f2f9e8fe4c94364736f6c634300080a0033",
  "linkReferences": {},
  "deployedLinkReferences": {}
}