{
  "_format": "hh-sol-artifact-1",
  "contractName": "GnosisSafe",
  "sourceName": "contracts/gnosis/GnosisSafe.sol",
  "abi": [
    {
      "inputs": [],
      "stateMutability": "nonpayable",
      "type": "constructor"
    },
    {
      "anonymous": false,
      "inputs": [
        {
          "indexed": false,
          "internalType": "address",
          "name": "owner",
          "type": "address"
        }
      ],
      "name": "AddedOwner",
      "type": "event"
    },
    {
      "anonymous": false,
      "inputs": [
        {
          "indexed": true,
          "internalType": "bytes32",
          "name": "approvedHash",
          "type": "bytes32"
        },
        {
          "indexed": true,
          "internalType": "address",
          "name": "owner",
          "type": "address"
        }
      ],
      "name": "ApproveHash",
      "type": "event"
    },
    {
      "anonymous": false,
      "inputs": [
        {
          "indexed": false,
          "internalType": "address",
          "name": "handler",
          "type": "address"
        }
      ],
      "name": "ChangedFallbackHandler",
      "type": "event"
    },
    {
      "anonymous": false,
      "inputs": [
        {
          "indexed": false,
          "internalType": "address",
          "name": "guard",
          "type": "address"
        }
      ],
      "name": "ChangedGuard",
      "type": "event"
    },
    {
      "anonymous": false,
      "inputs": [
        {
          "indexed": false,
          "internalType": "uint256",
          "name": "threshold",
          "type": "uint256"
        }
      ],
      "name": "ChangedThreshold",
      "type": "event"
    },
    {
      "anonymous": false,
      "inputs": [
        {
          "indexed": false,
          "internalType": "address",
          "name": "module",
          "type": "address"
        }
      ],
      "name": "DisabledModule",
      "type": "event"
    },
    {
      "anonymous": false,
      "inputs": [
        {
          "indexed": false,
          "internalType": "address",
          "name": "module",
          "type": "address"
        }
      ],
      "name": "EnabledModule",
      "type": "event"
    },
    {
      "anonymous": false,
      "inputs": [
        {
          "indexed": false,
          "internalType": "bytes32",
          "name": "txHash",
          "type": "bytes32"
        },
        {
          "indexed": false,
          "internalType": "uint256",
          "name": "payment",
          "type": "uint256"
        }
      ],
      "name": "ExecutionFailure",
      "type": "event"
    },
    {
      "anonymous": false,
      "inputs": [
        {
          "indexed": true,
          "internalType": "address",
          "name": "module",
          "type": "address"
        }
      ],
      "name": "ExecutionFromModuleFailure",
      "type": "event"
    },
    {
      "anonymous": false,
      "inputs": [
        {
          "indexed": true,
          "internalType": "address",
          "name": "module",
          "type": "address"
        }
      ],
      "name": "ExecutionFromModuleSuccess",
      "type": "event"
    },
    {
      "anonymous": false,
      "inputs": [
        {
          "indexed": false,
          "internalType": "bytes32",
          "name": "txHash",
          "type": "bytes32"
        },
        {
          "indexed": false,
          "internalType": "uint256",
          "name": "payment",
          "type": "uint256"
        }
      ],
      "name": "ExecutionSuccess",
      "type": "event"
    },
    {
      "anonymous": false,
      "inputs": [
        {
          "indexed": false,
          "internalType": "address",
          "name": "owner",
          "type": "address"
        }
      ],
      "name": "RemovedOwner",
      "type": "event"
    },
    {
      "anonymous": false,
      "inputs": [
        {
          "indexed": true,
          "internalType": "address",
          "name": "sender",
          "type": "address"
        },
        {
          "indexed": false,
          "internalType": "uint256",
          "name": "value",
          "type": "uint256"
        }
      ],
      "name": "SafeReceived",
      "type": "event"
    },
    {
      "anonymous": false,
      "inputs": [
        {
          "indexed": true,
          "internalType": "address",
          "name": "initiator",
          "type": "address"
        },
        {
          "indexed": false,
          "internalType": "address[]",
          "name": "owners",
          "type": "address[]"
        },
        {
          "indexed": false,
          "internalType": "uint256",
          "name": "threshold",
          "type": "uint256"
        },
        {
          "indexed": false,
          "internalType": "address",
          "name": "initializer",
          "type": "address"
        },
        {
          "indexed": false,
          "internalType": "address",
          "name": "fallbackHandler",
          "type": "address"
        }
      ],
      "name": "SafeSetup",
      "type": "event"
    },
    {
      "anonymous": false,
      "inputs": [
        {
          "indexed": true,
          "internalType": "bytes32",
          "name": "msgHash",
          "type": "bytes32"
        }
      ],
      "name": "SignMsg",
      "type": "event"
    },
    {
      "stateMutability": "nonpayable",
      "type": "fallback"
    },
    {
      "inputs": [],
      "name": "VERSION",
      "outputs": [
        {
          "internalType": "string",
          "name": "",
          "type": "string"
        }
      ],
      "stateMutability": "view",
      "type": "function"
    },
    {
      "inputs": [
        {
          "internalType": "address",
          "name": "owner",
          "type": "address"
        },
        {
          "internalType": "uint256",
          "name": "_threshold",
          "type": "uint256"
        }
      ],
      "name": "addOwnerWithThreshold",
      "outputs": [],
      "stateMutability": "nonpayable",
      "type": "function"
    },
    {
      "inputs": [
        {
          "internalType": "bytes32",
          "name": "hashToApprove",
          "type": "bytes32"
        }
      ],
      "name": "approveHash",
      "outputs": [],
      "stateMutability": "nonpayable",
      "type": "function"
    },
    {
      "inputs": [
        {
          "internalType": "address",
          "name": "",
          "type": "address"
        },
        {
          "internalType": "bytes32",
          "name": "",
          "type": "bytes32"
        }
      ],
      "name": "approvedHashes",
      "outputs": [
        {
          "internalType": "uint256",
          "name": "",
          "type": "uint256"
        }
      ],
      "stateMutability": "view",
      "type": "function"
    },
    {
      "inputs": [
        {
          "internalType": "uint256",
          "name": "_threshold",
          "type": "uint256"
        }
      ],
      "name": "changeThreshold",
      "outputs": [],
      "stateMutability": "nonpayable",
      "type": "function"
    },
    {
      "inputs": [
        {
          "internalType": "bytes32",
          "name": "dataHash",
          "type": "bytes32"
        },
        {
          "internalType": "bytes",
          "name": "data",
          "type": "bytes"
        },
        {
          "internalType": "bytes",
          "name": "signatures",
          "type": "bytes"
        },
        {
          "internalType": "uint256",
          "name": "requiredSignatures",
          "type": "uint256"
        }
      ],
      "name": "checkNSignatures",
      "outputs": [],
      "stateMutability": "view",
      "type": "function"
    },
    {
      "inputs": [
        {
          "internalType": "bytes32",
          "name": "dataHash",
          "type": "bytes32"
        },
        {
          "internalType": "bytes",
          "name": "data",
          "type": "bytes"
        },
        {
          "internalType": "bytes",
          "name": "signatures",
          "type": "bytes"
        }
      ],
      "name": "checkSignatures",
      "outputs": [],
      "stateMutability": "view",
      "type": "function"
    },
    {
      "inputs": [
        {
          "internalType": "address",
          "name": "prevModule",
          "type": "address"
        },
        {
          "internalType": "address",
          "name": "module",
          "type": "address"
        }
      ],
      "name": "disableModule",
      "outputs": [],
      "stateMutability": "nonpayable",
      "type": "function"
    },
    {
      "inputs": [],
      "name": "domainSeparator",
      "outputs": [
        {
          "internalType": "bytes32",
          "name": "",
          "type": "bytes32"
        }
      ],
      "stateMutability": "view",
      "type": "function"
    },
    {
      "inputs": [
        {
          "internalType": "address",
          "name": "module",
          "type": "address"
        }
      ],
      "name": "enableModule",
      "outputs": [],
      "stateMutability": "nonpayable",
      "type": "function"
    },
    {
      "inputs": [
        {
          "internalType": "address",
          "name": "to",
          "type": "address"
        },
        {
          "internalType": "uint256",
          "name": "value",
          "type": "uint256"
        },
        {
          "internalType": "bytes",
          "name": "data",
          "type": "bytes"
        },
        {
          "internalType": "enum Enum.Operation",
          "name": "operation",
          "type": "uint8"
        },
        {
          "internalType": "uint256",
          "name": "safeTxGas",
          "type": "uint256"
        },
        {
          "internalType": "uint256",
          "name": "baseGas",
          "type": "uint256"
        },
        {
          "internalType": "uint256",
          "name": "gasPrice",
          "type": "uint256"
        },
        {
          "internalType": "address",
          "name": "gasToken",
          "type": "address"
        },
        {
          "internalType": "address",
          "name": "refundReceiver",
          "type": "address"
        },
        {
          "internalType": "uint256",
          "name": "_nonce",
          "type": "uint256"
        }
      ],
      "name": "encodeTransactionData",
      "outputs": [
        {
          "internalType": "bytes",
          "name": "",
          "type": "bytes"
        }
      ],
      "stateMutability": "view",
      "type": "function"
    },
    {
      "inputs": [
        {
          "internalType": "address",
          "name": "to",
          "type": "address"
        },
        {
          "internalType": "uint256",
          "name": "value",
          "type": "uint256"
        },
        {
          "internalType": "bytes",
          "name": "data",
          "type": "bytes"
        },
        {
          "internalType": "enum Enum.Operation",
          "name": "operation",
          "type": "uint8"
        },
        {
          "internalType": "uint256",
          "name": "safeTxGas",
          "type": "uint256"
        },
        {
          "internalType": "uint256",
          "name": "baseGas",
          "type": "uint256"
        },
        {
          "internalType": "uint256",
          "name": "gasPrice",
          "type": "uint256"
        },
        {
          "internalType": "address",
          "name": "gasToken",
          "type": "address"
        },
        {
          "internalType": "address payable",
          "name": "refundReceiver",
          "type": "address"
        },
        {
          "internalType": "bytes",
          "name": "signatures",
          "type": "bytes"
        }
      ],
      "name": "execTransaction",
      "outputs": [
        {
          "internalType": "bool",
          "name": "success",
          "type": "bool"
        }
      ],
      "stateMutability": "payable",
      "type": "function"
    },
    {
      "inputs": [
        {
          "internalType": "address",
          "name": "to",
          "type": "address"
        },
        {
          "internalType": "uint256",
          "name": "value",
          "type": "uint256"
        },
        {
          "internalType": "bytes",
          "name": "data",
          "type": "bytes"
        },
        {
          "internalType": "enum Enum.Operation",
          "name": "operation",
          "type": "uint8"
        }
      ],
      "name": "execTransactionFromModule",
      "outputs": [
        {
          "internalType": "bool",
          "name": "success",
          "type": "bool"
        }
      ],
      "stateMutability": "nonpayable",
      "type": "function"
    },
    {
      "inputs": [
        {
          "internalType": "address",
          "name": "to",
          "type": "address"
        },
        {
          "internalType": "uint256",
          "name": "value",
          "type": "uint256"
        },
        {
          "internalType": "bytes",
          "name": "data",
          "type": "bytes"
        },
        {
          "internalType": "enum Enum.Operation",
          "name": "operation",
          "type": "uint8"
        }
      ],
      "name": "execTransactionFromModuleReturnData",
      "outputs": [
        {
          "internalType": "bool",
          "name": "success",
          "type": "bool"
        },
        {
          "internalType": "bytes",
          "name": "returnData",
          "type": "bytes"
        }
      ],
      "stateMutability": "nonpayable",
      "type": "function"
    },
    {
      "inputs": [],
      "name": "getChainId",
      "outputs": [
        {
          "internalType": "uint256",
          "name": "",
          "type": "uint256"
        }
      ],
      "stateMutability": "view",
      "type": "function"
    },
    {
      "inputs": [
        {
          "internalType": "address",
          "name": "start",
          "type": "address"
        },
        {
          "internalType": "uint256",
          "name": "pageSize",
          "type": "uint256"
        }
      ],
      "name": "getModulesPaginated",
      "outputs": [
        {
          "internalType": "address[]",
          "name": "array",
          "type": "address[]"
        },
        {
          "internalType": "address",
          "name": "next",
          "type": "address"
        }
      ],
      "stateMutability": "view",
      "type": "function"
    },
    {
      "inputs": [],
      "name": "getOwners",
      "outputs": [
        {
          "internalType": "address[]",
          "name": "",
          "type": "address[]"
        }
      ],
      "stateMutability": "view",
      "type": "function"
    },
    {
      "inputs": [
        {
          "internalType": "uint256",
          "name": "offset",
          "type": "uint256"
        },
        {
          "internalType": "uint256",
          "name": "length",
          "type": "uint256"
        }
      ],
      "name": "getStorageAt",
      "outputs": [
        {
          "internalType": "bytes",
          "name": "",
          "type": "bytes"
        }
      ],
      "stateMutability": "view",
      "type": "function"
    },
    {
      "inputs": [],
      "name": "getThreshold",
      "outputs": [
        {
          "internalType": "uint256",
          "name": "",
          "type": "uint256"
        }
      ],
      "stateMutability": "view",
      "type": "function"
    },
    {
      "inputs": [
        {
          "internalType": "address",
          "name": "to",
          "type": "address"
        },
        {
          "internalType": "uint256",
          "name": "value",
          "type": "uint256"
        },
        {
          "internalType": "bytes",
          "name": "data",
          "type": "bytes"
        },
        {
          "internalType": "enum Enum.Operation",
          "name": "operation",
          "type": "uint8"
        },
        {
          "internalType": "uint256",
          "name": "safeTxGas",
          "type": "uint256"
        },
        {
          "internalType": "uint256",
          "name": "baseGas",
          "type": "uint256"
        },
        {
          "internalType": "uint256",
          "name": "gasPrice",
          "type": "uint256"
        },
        {
          "internalType": "address",
          "name": "gasToken",
          "type": "address"
        },
        {
          "internalType": "address",
          "name": "refundReceiver",
          "type": "address"
        },
        {
          "internalType": "uint256",
          "name": "_nonce",
          "type": "uint256"
        }
      ],
      "name": "getTransactionHash",
      "outputs": [
        {
          "internalType": "bytes32",
          "name": "",
          "type": "bytes32"
        }
      ],
      "stateMutability": "view",
      "type": "function"
    },
    {
      "inputs": [
        {
          "internalType": "address",
          "name": "module",
          "type": "address"
        }
      ],
      "name": "isModuleEnabled",
      "outputs": [
        {
          "internalType": "bool",
          "name": "",
          "type": "bool"
        }
      ],
      "stateMutability": "view",
      "type": "function"
    },
    {
      "inputs": [
        {
          "internalType": "address",
          "name": "owner",
          "type": "address"
        }
      ],
      "name": "isOwner",
      "outputs": [
        {
          "internalType": "bool",
          "name": "",
          "type": "bool"
        }
      ],
      "stateMutability": "view",
      "type": "function"
    },
    {
      "inputs": [],
      "name": "nonce",
      "outputs": [
        {
          "internalType": "uint256",
          "name": "",
          "type": "uint256"
        }
      ],
      "stateMutability": "view",
      "type": "function"
    },
    {
      "inputs": [
        {
          "internalType": "address",
          "name": "prevOwner",
          "type": "address"
        },
        {
          "internalType": "address",
          "name": "owner",
          "type": "address"
        },
        {
          "internalType": "uint256",
          "name": "_threshold",
          "type": "uint256"
        }
      ],
      "name": "removeOwner",
      "outputs": [],
      "stateMutability": "nonpayable",
      "type": "function"
    },
    {
      "inputs": [
        {
          "internalType": "address",
          "name": "to",
          "type": "address"
        },
        {
          "internalType": "uint256",
          "name": "value",
          "type": "uint256"
        },
        {
          "internalType": "bytes",
          "name": "data",
          "type": "bytes"
        },
        {
          "internalType": "enum Enum.Operation",
          "name": "operation",
          "type": "uint8"
        }
      ],
      "name": "requiredTxGas",
      "outputs": [
        {
          "internalType": "uint256",
          "name": "",
          "type": "uint256"
        }
      ],
      "stateMutability": "nonpayable",
      "type": "function"
    },
    {
      "inputs": [
        {
          "internalType": "address",
          "name": "handler",
          "type": "address"
        }
      ],
      "name": "setFallbackHandler",
      "outputs": [],
      "stateMutability": "nonpayable",
      "type": "function"
    },
    {
      "inputs": [
        {
          "internalType": "address",
          "name": "guard",
          "type": "address"
        }
      ],
      "name": "setGuard",
      "outputs": [],
      "stateMutability": "nonpayable",
      "type": "function"
    },
    {
      "inputs": [
        {
          "internalType": "address[]",
          "name": "_owners",
          "type": "address[]"
        },
        {
          "internalType": "uint256",
          "name": "_threshold",
          "type": "uint256"
        },
        {
          "internalType": "address",
          "name": "to",
          "type": "address"
        },
        {
          "internalType": "bytes",
          "name": "data",
          "type": "bytes"
        },
        {
          "internalType": "address",
          "name": "fallbackHandler",
          "type": "address"
        },
        {
          "internalType": "address",
          "name": "paymentToken",
          "type": "address"
        },
        {
          "internalType": "uint256",
          "name": "payment",
          "type": "uint256"
        },
        {
          "internalType": "address payable",
          "name": "paymentReceiver",
          "type": "address"
        }
      ],
      "name": "setup",
      "outputs": [],
      "stateMutability": "nonpayable",
      "type": "function"
    },
    {
      "inputs": [
        {
          "internalType": "bytes32",
          "name": "",
          "type": "bytes32"
        }
      ],
      "name": "signedMessages",
      "outputs": [
        {
          "internalType": "uint256",
          "name": "",
          "type": "uint256"
        }
      ],
      "stateMutability": "view",
      "type": "function"
    },
    {
      "inputs": [
        {
          "internalType": "address",
          "name": "targetContract",
          "type": "address"
        },
        {
          "internalType": "bytes",
          "name": "calldataPayload",
          "type": "bytes"
        }
      ],
      "name": "simulateAndRevert",
      "outputs": [],
      "stateMutability": "nonpayable",
      "type": "function"
    },
    {
      "inputs": [
        {
          "internalType": "address",
          "name": "prevOwner",
          "type": "address"
        },
        {
          "internalType": "address",
          "name": "oldOwner",
          "type": "address"
        },
        {
          "internalType": "address",
          "name": "newOwner",
          "type": "address"
        }
      ],
      "name": "swapOwner",
      "outputs": [],
      "stateMutability": "nonpayable",
      "type": "function"
    },
    {
      "stateMutability": "payable",
      "type": "receive"
    }
  ],
  "bytecode": "0x608060405234801561001057600080fd5b5060016004556130ee806100256000396000f3fe6080604052600436106101dc5760003560e01c8063affed0e011610102578063e19a9dd911610095578063f08a032311610064578063f08a032314610620578063f698da2514610640578063f8dc5dd914610655578063ffa1ad741461067557610218565b8063e19a9dd9146105ab578063e318b52b146105cb578063e75235b8146105eb578063e86637db1461060057610218565b8063cc2f8452116100d1578063cc2f84521461051d578063d4d9bdcd1461054b578063d8d11f781461056b578063e009cfde1461058b57610218565b8063affed0e0146104a7578063b4faba09146104bd578063b63e800d146104dd578063c4ca3a9c146104fd57610218565b80635624b25b1161017a5780636a761202116101495780636a7612021461041a5780637d8329741461042d578063934f3a1114610465578063a0e67e2b1461048557610218565b80635624b25b146103805780635ae6bd37146103ad578063610b5925146103da578063694e80c3146103fa57610218565b80632f54bf6e116101b65780632f54bf6e146102f55780633408e47014610315578063468721a7146103325780635229073f1461035257610218565b80630d582f131461027e57806312fb68e0146102a05780632d9ad53d146102c057610218565b366102185760405134815233907f3d0ce9bfc3ed7d6862dbb28b2dea94561fe714a1b4d019aa8af39730d1ad7c3d9060200160405180910390a2005b34801561022457600080fd5b507f6c9a6c4a39284e37ed1cf53d337577d14212a4870fb976a4366c693b939918d580548061024f57005b36600080373360601b365260008060143601600080855af190503d6000803e80610278573d6000fd5b503d6000f35b34801561028a57600080fd5b5061029e61029936600461253f565b6106a6565b005b3480156102ac57600080fd5b5061029e6102bb36600461260d565b6107fe565b3480156102cc57600080fd5b506102e06102db366004612681565b610c66565b60405190151581526020015b60405180910390f35b34801561030157600080fd5b506102e0610310366004612681565b610ca1565b34801561032157600080fd5b50465b6040519081526020016102ec565b34801561033e57600080fd5b506102e061034d3660046126ad565b610cd9565b34801561035e57600080fd5b5061037261036d3660046126ad565b610db0565b6040516102ec929190612763565b34801561038c57600080fd5b506103a061039b36600461277e565b610de6565b6040516102ec91906127a0565b3480156103b957600080fd5b506103246103c83660046127b3565b60076020526000908152604090205481565b3480156103e657600080fd5b5061029e6103f5366004612681565b610e6b565b34801561040657600080fd5b5061029e6104153660046127b3565b610fad565b6102e0610428366004612814565b611045565b34801561043957600080fd5b5061032461044836600461253f565b600860209081526000928352604080842090915290825290205481565b34801561047157600080fd5b5061029e6104803660046128ec565b61138e565b34801561049157600080fd5b5061049a6113d8565b6040516102ec919061299c565b3480156104b357600080fd5b5061032460055481565b3480156104c957600080fd5b5061029e6104d83660046129af565b6114c8565b3480156104e957600080fd5b5061029e6104f83660046129fe565b6114eb565b34801561050957600080fd5b50610324610518366004612af2565b61160c565b34801561052957600080fd5b5061053d61053836600461253f565b6116a6565b6040516102ec929190612b62565b34801561055757600080fd5b5061029e6105663660046127b3565b61179f565b34801561057757600080fd5b50610324610586366004612b8c565b611834565b34801561059757600080fd5b5061029e6105a6366004612c4c565b611861565b3480156105b757600080fd5b5061029e6105c6366004612681565b611990565b3480156105d757600080fd5b5061029e6105e6366004612c85565b611aa7565b3480156105f757600080fd5b50600454610324565b34801561060c57600080fd5b506103a061061b366004612b8c565b611c96565b34801561062c57600080fd5b5061029e61063b366004612681565b611d6f565b34801561064c57600080fd5b50610324611dd8565b34801561066157600080fd5b5061029e610670366004612cd0565b611e2f565b34801561068157600080fd5b506103a0604051806040016040528060058152602001640312e332e360dc1b81525081565b6001600160a01b038216158015906106c857506001600160a01b038216600114155b80156106dd57506001600160a01b0382163014155b6107025760405162461bcd60e51b81526004016106f990612d11565b60405180910390fd5b6001600160a01b03828116600090815260026020526040902054161561073a5760405162461bcd60e51b81526004016106f990612d30565b60026020527fe90b7bceb6e7df5418fb78d8ee546e97c83a08bbccc01a0644d599ccd2a7c2e080546001600160a01b038481166000818152604081208054939094166001600160a01b0319938416179093556001835283549091161790915560038054916107a783612d65565b90915550506040516001600160a01b03831681527f9465fa0c962cc76958e6373a993326400c1c94f8be2fe3a952adfa7f60b2ea269060200160405180910390a180600454146107fa576107fa81610fad565b5050565b610809816041611f9a565b825110156108415760405162461bcd60e51b8152602060048201526005602482015264047533032360dc1b60448201526064016106f9565b6000808060008060005b86811015610c5a576041818102890160208101516040820151919092015160ff169550909350915083610a18579193508391610888876041611f9a565b8210156108bf5760405162461bcd60e51b8152602060048201526005602482015264475330323160d81b60448201526064016106f9565b87516108cc836020611fd3565b11156109025760405162461bcd60e51b815260206004820152600560248201526423a998191960d91b60448201526064016106f9565b60208289018101518951909161092590839061091f908790611fd3565b90611fd3565b111561095b5760405162461bcd60e51b8152602060048201526005602482015264475330323360d81b60448201526064016106f9565b6040516320c13b0b60e01b8082528a8501602001916001600160a01b038916906320c13b0b90610991908f908690600401612d80565b602060405180830381865afa1580156109ae573d6000803e3d6000fd5b505050506040513d601f19601f820116820180604052508101906109d29190612da5565b6001600160e01b03191614610a115760405162461bcd60e51b815260206004820152600560248201526411d4cc0c8d60da1b60448201526064016106f9565b5050610bc0565b8360ff1660011415610a9b579193508391336001600160a01b0384161480610a6257506001600160a01b03851660009081526008602090815260408083208d845290915290205415155b610a965760405162461bcd60e51b8152602060048201526005602482015264475330323560d81b60448201526064016106f9565b610bc0565b601e8460ff161115610b60576040517f19457468657265756d205369676e6564204d6573736167653a0a3332000000006020820152603c81018b9052600190605c0160405160208183030381529060405280519060200120600486610b009190612dcf565b6040805160008152602081018083529390935260ff90911690820152606081018590526080810184905260a0016020604051602081039080840390855afa158015610b4f573d6000803e3d6000fd5b505050602060405103519450610bc0565b6040805160008152602081018083528c905260ff861691810191909152606081018490526080810183905260019060a0016020604051602081039080840390855afa158015610bb3573d6000803e3d6000fd5b5050506020604051035194505b856001600160a01b0316856001600160a01b0316118015610bfa57506001600160a01b038581166000908152600260205260409020541615155b8015610c1057506001600160a01b038516600114155b610c445760405162461bcd60e51b815260206004820152600560248201526423a998191b60d91b60448201526064016106f9565b8495508080610c5290612d65565b91505061084b565b50505050505050505050565b600060016001600160a01b03831614801590610c9b57506001600160a01b038281166000908152600160205260409020541615155b92915050565b60006001600160a01b038216600114801590610c9b5750506001600160a01b0390811660009081526002602052604090205416151590565b600033600114801590610d035750336000908152600160205260409020546001600160a01b031615155b610d375760405162461bcd60e51b815260206004820152600560248201526411d4cc4c0d60da1b60448201526064016106f9565b610d44858585855a611fef565b90508015610d7c5760405133907f6895c13664aa4f67288b25d7a21d7aaa34916e355fb9b6fae0a139a9085becb890600090a2610da8565b60405133907facd2c8702804128fdb0db2bb49f6d127dd0181c13fd45dbfe16de0930e2bd37590600090a25b949350505050565b60006060610dc086868686610cd9565b915060405160203d0181016040523d81523d6000602083013e8091505094509492505050565b60606000610df5836020612df2565b6001600160401b03811115610e0c57610e0c61256b565b6040519080825280601f01601f191660200182016040528015610e36576020820181803683370190505b50905060005b83811015610e63578481015460208083028401015280610e5b81612d65565b915050610e3c565b509392505050565b610e73612037565b6001600160a01b03811615801590610e9557506001600160a01b038116600114155b610ec95760405162461bcd60e51b8152602060048201526005602482015264475331303160d81b60448201526064016106f9565b6001600160a01b038181166000908152600160205260409020541615610f195760405162461bcd60e51b815260206004820152600560248201526423a998981960d91b60448201526064016106f9565b600160208181527fcc69885fda6bcc1a4ace058b4a62bf5e179ea78fd58a1ccd71c22cc9b688792f80546001600160a01b03858116600081815260408082208054949095166001600160a01b031994851617909455959095528254168417909155519182527fecdf3a3effea5783a3c4c2140e677577666428d44ed9d474a0b3a4c9943f844091015b60405180910390a150565b610fb5612037565b600354811115610fd75760405162461bcd60e51b81526004016106f990612e11565b60018110156110105760405162461bcd60e51b815260206004820152600560248201526423a999181960d91b60448201526064016106f9565b60048190556040518181527f610f7ff2b304ae8903c3de74c60c6ab1f7d6226b3f52c5161905bb5ad4039c9390602001610fa2565b600080600061105f8e8e8e8e8e8e8e8e8e8e600554611c96565b60058054919250600061107183612d65565b909155505080516020820120915061108a82828661138e565b5060006110b57f4a204f620c8c5ccdca3fd54d003badd85ba500436a431f0cbda4f558c93c34c85490565b90506001600160a01b0381161561113b57806001600160a01b03166375f0bb528f8f8f8f8f8f8f8f8f8f8f336040518d63ffffffff1660e01b81526004016111089c9b9a99989796959493929190612e68565b600060405180830381600087803b15801561112257600080fd5b505af1158015611136573d6000803e3d6000fd5b505050505b61116761114a8a6109c4612f2d565b603f6111578c6040612df2565b6111619190612f45565b90612070565b611173906101f4612f2d565b5a10156111aa5760405162461bcd60e51b8152602060048201526005602482015264047533031360dc1b60448201526064016106f9565b60005a905061121b8f8f8f8f8080601f016020809104026020016040519081016040528093929190818152602001838380828437600081840152601f19601f820116905080830192505050505050508e8c600014611208578e611fef565b6109c45a6112169190612f67565b611fef565b93506112285a8290612087565b9050838061123557508915155b8061123f57508715155b6112735760405162461bcd60e51b8152602060048201526005602482015264475330313360d81b60448201526064016106f9565b6000881561128b57611288828b8b8b8b6120a2565b90505b84156112cf5760408051858152602081018390527f442e715f626346e8c54381002da614f62bee8d27386535b2521ec8540898556e910160405180910390a1611309565b60408051858152602081018390527f23428b18acfb3ea64b08dc0c1d296ea9c09702c09083ca5272e64d115b687d23910160405180910390a15b50506001600160a01b0381161561137d57604051631264e26d60e31b81526004810183905283151560248201526001600160a01b03821690639327136890604401600060405180830381600087803b15801561136457600080fd5b505af1158015611378573d6000803e3d6000fd5b505050505b50509b9a5050505050505050505050565b600454806113c65760405162461bcd60e51b8152602060048201526005602482015264475330303160d81b60448201526064016106f9565b6113d2848484846107fe565b50505050565b606060006003546001600160401b038111156113f6576113f661256b565b60405190808252806020026020018201604052801561141f578160200160208202803683370190505b506001600090815260026020527fe90b7bceb6e7df5418fb78d8ee546e97c83a08bbccc01a0644d599ccd2a7c2e054919250906001600160a01b03165b6001600160a01b0381166001146114c0578083838151811061148057611480612f7e565b6001600160a01b039283166020918202929092018101919091529181166000908152600290925260409091205416816114b881612d65565b92505061145c565b509092915050565b600080825160208401855af480600052503d6020523d600060403e60403d016000fd5b6115298a8a808060200260200160405190810160405280939291908181526020018383602002808284376000920191909152508c92506121a8915050565b6001600160a01b0384161561156057611560847f6c9a6c4a39284e37ed1cf53d337577d14212a4870fb976a4366c693b939918d555565b6115a08787878080601f01602080910402602001604051908101604052809392919081815260200183838082843760009201919091525061238e92505050565b81156115b7576115b5826000600186856120a2565b505b336001600160a01b03167f141df868a6331af528e38c83b7aa03edc19be66e37ae67f9285bf4f8e3c6a1a88b8b8b8b896040516115f8959493929190612f94565b60405180910390a250505050505050505050565b6000805a9050611655878787878080601f01602080910402602001604051908101604052809392919081815260200183838082843760009201919091525089925050505a611fef565b61165e57600080fd5b60005a61166b9083612f67565b90508060405160200161168091815260200190565b60408051601f198184030181529082905262461bcd60e51b82526106f9916004016127a0565b60606000826001600160401b038111156116c2576116c261256b565b6040519080825280602002602001820160405280156116eb578160200160208202803683370190505b506001600160a01b0380861660009081526001602052604081205492945091165b6001600160a01b0381161580159061172e57506001600160a01b038116600114155b801561173957508482105b15611791578084838151811061175157611751612f7e565b6001600160a01b0392831660209182029290920181019190915291811660009081526001909252604090912054168161178981612d65565b92505061170c565b908352919491935090915050565b336000908152600260205260409020546001600160a01b03166117ec5760405162461bcd60e51b8152602060048201526005602482015264047533033360dc1b60448201526064016106f9565b336000818152600860209081526040808320858452909152808220600190555183917ff2a0eb156472d1440255b0d7c1e19cc07115d1051fe605b0dce69acfec884d9c91a350565b60006118498c8c8c8c8c8c8c8c8c8c8c611c96565b8051906020012090509b9a5050505050505050505050565b611869612037565b6001600160a01b0381161580159061188b57506001600160a01b038116600114155b6118bf5760405162461bcd60e51b8152602060048201526005602482015264475331303160d81b60448201526064016106f9565b6001600160a01b038281166000908152600160205260409020548116908216146119135760405162461bcd60e51b8152602060048201526005602482015264475331303360d81b60448201526064016106f9565b6001600160a01b038181166000818152600160209081526040808320805488871685528285208054919097166001600160a01b03199182161790965592849052825490941690915591519081527faab4fa2b463f581b2b32cb3b7e3b704b9ce37cc209b5fb4d77e593ace405427691015b60405180910390a15050565b611998612037565b6001600160a01b03811615611a4a576040516301ffc9a760e01b815263736bd41d60e11b60048201526001600160a01b038216906301ffc9a790602401602060405180830381865afa1580156119f2573d6000803e3d6000fd5b505050506040513d601f19601f82011682018060405250810190611a169190613000565b611a4a5760405162461bcd60e51b8152602060048201526005602482015264047533330360dc1b60448201526064016106f9565b7f4a204f620c8c5ccdca3fd54d003badd85ba500436a431f0cbda4f558c93c34c88181556040516001600160a01b03831681527f1151116914515bc0891ff9047a6cb32cf902546f83066499bcf8ba33d2353fa290602001611984565b611aaf612037565b6001600160a01b03811615801590611ad157506001600160a01b038116600114155b8015611ae657506001600160a01b0381163014155b611b025760405162461bcd60e51b81526004016106f990612d11565b6001600160a01b038181166000908152600260205260409020541615611b3a5760405162461bcd60e51b81526004016106f990612d30565b6001600160a01b03821615801590611b5c57506001600160a01b038216600114155b611b785760405162461bcd60e51b81526004016106f990612d11565b6001600160a01b03838116600090815260026020526040902054811690831614611bcc5760405162461bcd60e51b8152602060048201526005602482015264475332303560d81b60448201526064016106f9565b6001600160a01b038281166000818152600260209081526040808320805487871680865283862080549289166001600160a01b0319938416179055968a1685528285208054821690971790965592849052825490941690915591519081527ff8d49fc529812e9a7c5c50e69c20f0dccc0db8fa95c98bc58cc9a4f1c1299eaf910160405180910390a16040516001600160a01b03821681527f9465fa0c962cc76958e6373a993326400c1c94f8be2fe3a952adfa7f60b2ea269060200160405180910390a1505050565b606060007fbb8310d486368db6bd6f849402fdd73ad53d316b5a4b2644ad6efe0f941286d860001b8d8d8d8d604051611cd0929190613022565b604051908190038120611cf6949392918e908e908e908e908e908e908e90602001613032565b60408051601f1981840301815291905280516020909101209050601960f81b600160f81b611d22611dd8565b6040516001600160f81b031993841660208201529290911660218301526022820152604281018290526062016040516020818303038152906040529150509b9a5050505050505050505050565b611d77612037565b611d9f817f6c9a6c4a39284e37ed1cf53d337577d14212a4870fb976a4366c693b939918d555565b6040516001600160a01b03821681527f5ac6c46c93c8d0e53714ba3b53db3e7c046da994313d7ed0d192028bc7c228b090602001610fa2565b60007f47e79534a245952e8b16893a336b85a3d9ea9fa8c573f3d803afb92a794692184660408051602081019390935282015230606082015260800160405160208183030381529060405280519060200120905090565b806001600354611e3f9190612f67565b1015611e5d5760405162461bcd60e51b81526004016106f990612e11565b6001600160a01b03821615801590611e7f57506001600160a01b038216600114155b611e9b5760405162461bcd60e51b81526004016106f990612d11565b6001600160a01b03838116600090815260026020526040902054811690831614611eef5760405162461bcd60e51b8152602060048201526005602482015264475332303560d81b60448201526064016106f9565b6001600160a01b03828116600081815260026020526040808220805488861684529183208054929095166001600160a01b03199283161790945591815282549091169091556003805491611f42836130a1565b90915550506040516001600160a01b03831681527ff8d49fc529812e9a7c5c50e69c20f0dccc0db8fa95c98bc58cc9a4f1c1299eaf9060200160405180910390a18060045414611f9557611f9581610fad565b505050565b600082611fa957506000610c9b565b6000611fb58385612df2565b905082611fc28583612f45565b14611fcc57600080fd5b9392505050565b600080611fe08385612f2d565b905083811015611fcc57600080fd5b6000600183600181111561200557612005612e30565b141561201e576000808551602087018986f4905061202e565b600080855160208701888a87f190505b95945050505050565b33301461206e5760405162461bcd60e51b8152602060048201526005602482015264475330333160d81b60448201526064016106f9565b565b6000818310156120805781611fcc565b5090919050565b60008282111561209657600080fd5b6000610da88385612f67565b6000806001600160a01b038316156120ba57826120bc565b325b90506001600160a01b03841661214f576120ee3a86106120dc573a6120de565b855b6120e88989611fd3565b90611f9a565b6040519092506001600160a01b0382169083156108fc029084906000818181858888f1935050505061214a5760405162461bcd60e51b8152602060048201526005602482015264475330313160d81b60448201526064016106f9565b61219e565b61215d856120e88989611fd3565b915061216a848284612488565b61219e5760405162461bcd60e51b815260206004820152600560248201526423a998189960d91b60448201526064016106f9565b5095945050505050565b600454156121e05760405162461bcd60e51b8152602060048201526005602482015264047533230360dc1b60448201526064016106f9565b81518111156122015760405162461bcd60e51b81526004016106f990612e11565b600181101561223a5760405162461bcd60e51b815260206004820152600560248201526423a999181960d91b60448201526064016106f9565b600160005b835181101561235b57600084828151811061225c5761225c612f7e565b6020026020010151905060006001600160a01b0316816001600160a01b03161415801561229357506001600160a01b038116600114155b80156122a857506001600160a01b0381163014155b80156122c65750806001600160a01b0316836001600160a01b031614155b6122e25760405162461bcd60e51b81526004016106f990612d11565b6001600160a01b03818116600090815260026020526040902054161561231a5760405162461bcd60e51b81526004016106f990612d30565b6001600160a01b03928316600090815260026020526040902080546001600160a01b031916938216939093179092558061235381612d65565b91505061223f565b506001600160a01b0316600090815260026020526040902080546001600160a01b03191660011790559051600355600455565b600160008190526020527fcc69885fda6bcc1a4ace058b4a62bf5e179ea78fd58a1ccd71c22cc9b688792f546001600160a01b0316156123f85760405162461bcd60e51b8152602060048201526005602482015264047533130360dc1b60448201526064016106f9565b6001600081905260208190527fcc69885fda6bcc1a4ace058b4a62bf5e179ea78fd58a1ccd71c22cc9b688792f80546001600160a01b03191690911790556001600160a01b038216156107fa576124548260008360015a611fef565b6107fa5760405162461bcd60e51b8152602060048201526005602482015264047533030360dc1b60448201526064016106f9565b604080516001600160a01b03841660248201526044808201849052825180830390910181526064909101909152602080820180516001600160e01b031663a9059cbb60e01b1781528251600093929184919082896127105a03f13d80156124fa5760208114612502576000935061250d565b81935061250d565b600051158215171593505b5050509392505050565b6001600160a01b038116811461252c57600080fd5b50565b803561253a81612517565b919050565b6000806040838503121561255257600080fd5b823561255d81612517565b946020939093013593505050565b634e487b7160e01b600052604160045260246000fd5b600082601f83011261259257600080fd5b81356001600160401b03808211156125ac576125ac61256b565b604051601f8301601f19908116603f011681019082821181831017156125d4576125d461256b565b816040528381528660208588010111156125ed57600080fd5b836020870160208301376000602085830101528094505050505092915050565b6000806000806080858703121561262357600080fd5b8435935060208501356001600160401b038082111561264157600080fd5b61264d88838901612581565b9450604087013591508082111561266357600080fd5b5061267087828801612581565b949793965093946060013593505050565b60006020828403121561269357600080fd5b8135611fcc81612517565b80356002811061253a57600080fd5b600080600080608085870312156126c357600080fd5b84356126ce81612517565b93506020850135925060408501356001600160401b038111156126f057600080fd5b6126fc87828801612581565b92505061270b6060860161269e565b905092959194509250565b6000815180845260005b8181101561273c57602081850181015186830182015201612720565b8181111561274e576000602083870101525b50601f01601f19169290920160200192915050565b8215158152604060208201526000610da86040830184612716565b6000806040838503121561279157600080fd5b50508035926020909101359150565b602081526000611fcc6020830184612716565b6000602082840312156127c557600080fd5b5035919050565b60008083601f8401126127de57600080fd5b5081356001600160401b038111156127f557600080fd5b60208301915083602082850101111561280d57600080fd5b9250929050565b60008060008060008060008060008060006101408c8e03121561283657600080fd5b61283f8c61252f565b9a5060208c013599506001600160401b038060408e0135111561286157600080fd5b6128718e60408f01358f016127cc565b909a50985061288260608e0161269e565b975060808d0135965060a08d0135955060c08d013594506128a560e08e0161252f565b93506128b46101008e0161252f565b9250806101208e013511156128c857600080fd5b506128da8d6101208e01358e01612581565b90509295989b509295989b9093969950565b60008060006060848603121561290157600080fd5b8335925060208401356001600160401b038082111561291f57600080fd5b61292b87838801612581565b9350604086013591508082111561294157600080fd5b5061294e86828701612581565b9150509250925092565b600081518084526020808501945080840160005b838110156129915781516001600160a01b03168752958201959082019060010161296c565b509495945050505050565b602081526000611fcc6020830184612958565b600080604083850312156129c257600080fd5b82356129cd81612517565b915060208301356001600160401b038111156129e857600080fd5b6129f485828601612581565b9150509250929050565b6000806000806000806000806000806101008b8d031215612a1e57600080fd5b8a356001600160401b0380821115612a3557600080fd5b818d0191508d601f830112612a4957600080fd5b813581811115612a5857600080fd5b8e60208260051b8501011115612a6d57600080fd5b60208381019d50909b508d01359950612a8860408e0161252f565b985060608d0135915080821115612a9e57600080fd5b50612aab8d828e016127cc565b9097509550612abe905060808c0161252f565b9350612acc60a08c0161252f565b925060c08b01359150612ae160e08c0161252f565b90509295989b9194979a5092959850565b600080600080600060808688031215612b0a57600080fd5b8535612b1581612517565b94506020860135935060408601356001600160401b03811115612b3757600080fd5b612b43888289016127cc565b9094509250612b5690506060870161269e565b90509295509295909350565b604081526000612b756040830185612958565b905060018060a01b03831660208301529392505050565b60008060008060008060008060008060006101408c8e031215612bae57600080fd5b8b35612bb981612517565b9a5060208c0135995060408c01356001600160401b03811115612bdb57600080fd5b612be78e828f016127cc565b909a509850612bfa905060608d0161269e565b965060808c0135955060a08c0135945060c08c0135935060e08c0135612c1f81612517565b92506101008c0135612c3081612517565b809250506101208c013590509295989b509295989b9093969950565b60008060408385031215612c5f57600080fd5b8235612c6a81612517565b91506020830135612c7a81612517565b809150509250929050565b600080600060608486031215612c9a57600080fd5b8335612ca581612517565b92506020840135612cb581612517565b91506040840135612cc581612517565b809150509250925092565b600080600060608486031215612ce557600080fd5b8335612cf081612517565b92506020840135612d0081612517565b929592945050506040919091013590565b602080825260059082015264475332303360d81b604082015260600190565b60208082526005908201526411d4cc8c0d60da1b604082015260600190565b634e487b7160e01b600052601160045260246000fd5b6000600019821415612d7957612d79612d4f565b5060010190565b604081526000612d936040830185612716565b828103602084015261202e8185612716565b600060208284031215612db757600080fd5b81516001600160e01b031981168114611fcc57600080fd5b600060ff821660ff841680821015612de957612de9612d4f565b90039392505050565b6000816000190483118215151615612e0c57612e0c612d4f565b500290565b602080825260059082015264475332303160d81b604082015260600190565b634e487b7160e01b600052602160045260246000fd5b60028110612e6457634e487b7160e01b600052602160045260246000fd5b9052565b6001600160a01b038d168152602081018c90526101606040820181905281018a905260006101808b8d828501376000838d01820152601f8c01601f19168301612eb4606085018d612e46565b8a60808501528960a08501528860c0850152612edb60e08501896001600160a01b03169052565b6001600160a01b0387166101008501528184820301610120850152612f0282820187612716565b92505050612f1c6101408301846001600160a01b03169052565b9d9c50505050505050505050505050565b60008219821115612f4057612f40612d4f565b500190565b600082612f6257634e487b7160e01b600052601260045260246000fd5b500490565b600082821015612f7957612f79612d4f565b500390565b634e487b7160e01b600052603260045260246000fd5b6080808252810185905260008660a08301825b88811015612fd7578235612fba81612517565b6001600160a01b0316825260209283019290910190600101612fa7565b50602084019690965250506001600160a01b039283166040820152911660609091015292915050565b60006020828403121561301257600080fd5b81518015158114611fcc57600080fd5b8183823760009101908152919050565b8b81526001600160a01b038b81166020830152604082018b9052606082018a9052610160820190613066608084018b612e46565b60a083019890985260c082019690965260e0810194909452918516610100840152909316610120820152610140019190915295945050505050565b6000816130b0576130b0612d4f565b50600019019056fea26469706673582212206958cdaafa9c7acf78837e4f28ea120eb337484891774eb130954419458f7e7864736f6c634300080a0033",
  "linkReferences": {},
  "deployedLinkReferences": {}
}