{
  "@mstable/protocol/contracts/governance/InitializableGovernableWhitelist.sol": {
    "InitializableGovernableWhitelist": {
      "abi": [
        {
          "anonymous": false,
          "inputs": [
            {
              "indexed": true,
              "internalType": "address",
              "name": "_address",
              "type": "address"
            }
          ],
          "name": "Whitelisted",
          "type": "event"
        },
        {
          "constant": true,
          "inputs": [],
          "name": "nexus",
          "outputs": [
            {
              "internalType": "contract INexus",
              "name": "",
              "type": "address"
            }
          ],
          "payable": false,
          "stateMutability": "view",
          "type": "function"
        },
        {
          "constant": true,
          "inputs": [
            {
              "internalType": "address",
              "name": "",
              "type": "address"
            }
          ],
          "name": "whitelist",
          "outputs": [
            {
              "internalType": "bool",
              "name": "",
              "type": "bool"
            }
          ],
          "payable": false,
          "stateMutability": "view",
          "type": "function"
        }
      ],
      "devdoc": {
        "author": "Stability Labs Pty. Ltd.",
        "details": "Implementing contracts are responsible for adding their own add and remove methods         as the original purpose of this whitelist is for read optimisation.",
        "methods": {},
        "title": "InitializableGovernableWhitelist"
      },
      "evm": {
        "bytecode": {
          "linkReferences": {},
          "object": "608060405234801561001057600080fd5b5061015c806100206000396000f3fe608060405234801561001057600080fd5b50600436106100365760003560e01c80639b19251a1461003b578063a3f5c1d214610097575b600080fd5b61007d6004803603602081101561005157600080fd5b81019080803573ffffffffffffffffffffffffffffffffffffffff1690602001909291905050506100e1565b604051808215151515815260200191505060405180910390f35b61009f610101565b604051808273ffffffffffffffffffffffffffffffffffffffff1673ffffffffffffffffffffffffffffffffffffffff16815260200191505060405180910390f35b60096020528060005260406000206000915054906101000a900460ff1681565b600860009054906101000a900473ffffffffffffffffffffffffffffffffffffffff168156fea265627a7a72315820b9900581687c6b0e4cd2d7394dac8e116deea28e8d5e6b6c1813d7c59106113a64736f6c63430005100032",
          "opcodes": "PUSH1 0x80 PUSH1 0x40 MSTORE CALLVALUE DUP1 ISZERO PUSH2 0x10 JUMPI PUSH1 0x0 DUP1 REVERT JUMPDEST POP PUSH2 0x15C DUP1 PUSH2 0x20 PUSH1 0x0 CODECOPY PUSH1 0x0 RETURN INVALID PUSH1 0x80 PUSH1 0x40 MSTORE CALLVALUE DUP1 ISZERO PUSH2 0x10 JUMPI PUSH1 0x0 DUP1 REVERT JUMPDEST POP PUSH1 0x4 CALLDATASIZE LT PUSH2 0x36 JUMPI PUSH1 0x0 CALLDATALOAD PUSH1 0xE0 SHR DUP1 PUSH4 0x9B19251A EQ PUSH2 0x3B JUMPI DUP1 PUSH4 0xA3F5C1D2 EQ PUSH2 0x97 JUMPI JUMPDEST PUSH1 0x0 DUP1 REVERT JUMPDEST PUSH2 0x7D PUSH1 0x4 DUP1 CALLDATASIZE SUB PUSH1 0x20 DUP2 LT ISZERO PUSH2 0x51 JUMPI PUSH1 0x0 DUP1 REVERT JUMPDEST DUP2 ADD SWAP1 DUP1 DUP1 CALLDATALOAD PUSH20 0xFFFFFFFFFFFFFFFFFFFFFFFFFFFFFFFFFFFFFFFF AND SWAP1 PUSH1 0x20 ADD SWAP1 SWAP3 SWAP2 SWAP1 POP POP POP PUSH2 0xE1 JUMP JUMPDEST PUSH1 0x40 MLOAD DUP1 DUP3 ISZERO ISZERO ISZERO ISZERO DUP2 MSTORE PUSH1 0x20 ADD SWAP2 POP POP PUSH1 0x40 MLOAD DUP1 SWAP2 SUB SWAP1 RETURN JUMPDEST PUSH2 0x9F PUSH2 0x101 JUMP JUMPDEST PUSH1 0x40 MLOAD DUP1 DUP3 PUSH20 0xFFFFFFFFFFFFFFFFFFFFFFFFFFFFFFFFFFFFFFFF AND PUSH20 0xFFFFFFFFFFFFFFFFFFFFFFFFFFFFFFFFFFFFFFFF AND DUP2 MSTORE PUSH1 0x20 ADD SWAP2 POP POP PUSH1 0x40 MLOAD DUP1 SWAP2 SUB SWAP1 RETURN JUMPDEST PUSH1 0x9 PUSH1 0x20 MSTORE DUP1 PUSH1 0x0 MSTORE PUSH1 0x40 PUSH1 0x0 KECCAK256 PUSH1 0x0 SWAP2 POP SLOAD SWAP1 PUSH2 0x100 EXP SWAP1 DIV PUSH1 0xFF AND DUP2 JUMP JUMPDEST PUSH1 0x8 PUSH1 0x0 SWAP1 SLOAD SWAP1 PUSH2 0x100 EXP SWAP1 DIV PUSH20 0xFFFFFFFFFFFFFFFFFFFFFFFFFFFFFFFFFFFFFFFF AND DUP2 JUMP INVALID LOG2 PUSH6 0x627A7A723158 KECCAK256 0xB9 SWAP1 SDIV DUP2 PUSH9 0x7C6B0E4CD2D7394DAC DUP15 GT PUSH14 0xEEA28E8D5E6B6C1813D7C5910611 GASPRICE PUSH5 0x736F6C6343 STOP SDIV LT STOP ORIGIN "
        },
        "gasEstimates": {
          "creation": {
            "codeDepositCost": "69600",
            "executionCost": "117",
            "totalCost": "69717"
          },
          "external": {
            "nexus()": "1053",
            "whitelist(address)": "1184"
          },
          "internal": {
            "_addWhitelist(address)": "infinite",
            "_initialize(address,address[] memory)": "infinite"
          }
        },
        "methodIdentifiers": {
          "nexus()": "a3f5c1d2",
          "whitelist(address)": "9b19251a"
        }
      },
      "storageLayout": {
        "storage": [
          {
            "astId": 351,
            "contract": "@mstable/protocol/contracts/governance/InitializableGovernableWhitelist.sol:InitializableGovernableWhitelist",
            "label": "KEY_GOVERNANCE",
            "offset": 0,
            "slot": "0",
            "type": "t_bytes32"
          },
          {
            "astId": 353,
            "contract": "@mstable/protocol/contracts/governance/InitializableGovernableWhitelist.sol:InitializableGovernableWhitelist",
            "label": "KEY_STAKING",
            "offset": 0,
            "slot": "1",
            "type": "t_bytes32"
          },
          {
            "astId": 355,
            "contract": "@mstable/protocol/contracts/governance/InitializableGovernableWhitelist.sol:InitializableGovernableWhitelist",
            "label": "KEY_PROXY_ADMIN",
            "offset": 0,
            "slot": "2",
            "type": "t_bytes32"
          },
          {
            "astId": 357,
            "contract": "@mstable/protocol/contracts/governance/InitializableGovernableWhitelist.sol:InitializableGovernableWhitelist",
            "label": "KEY_ORACLE_HUB",
            "offset": 0,
            "slot": "3",
            "type": "t_bytes32"
          },
          {
            "astId": 359,
            "contract": "@mstable/protocol/contracts/governance/InitializableGovernableWhitelist.sol:InitializableGovernableWhitelist",
            "label": "KEY_MANAGER",
            "offset": 0,
            "slot": "4",
            "type": "t_bytes32"
          },
          {
            "astId": 361,
            "contract": "@mstable/protocol/contracts/governance/InitializableGovernableWhitelist.sol:InitializableGovernableWhitelist",
            "label": "KEY_RECOLLATERALISER",
            "offset": 0,
            "slot": "5",
            "type": "t_bytes32"
          },
          {
            "astId": 363,
            "contract": "@mstable/protocol/contracts/governance/InitializableGovernableWhitelist.sol:InitializableGovernableWhitelist",
            "label": "KEY_META_TOKEN",
            "offset": 0,
            "slot": "6",
            "type": "t_bytes32"
          },
          {
            "astId": 365,
            "contract": "@mstable/protocol/contracts/governance/InitializableGovernableWhitelist.sol:InitializableGovernableWhitelist",
            "label": "KEY_SAVINGS_MANAGER",
            "offset": 0,
            "slot": "7",
            "type": "t_bytes32"
          },
          {
            "astId": 164,
            "contract": "@mstable/protocol/contracts/governance/InitializableGovernableWhitelist.sol:InitializableGovernableWhitelist",
            "label": "nexus",
            "offset": 0,
            "slot": "8",
            "type": "t_contract(INexus)154"
          },
          {
            "astId": 13,
            "contract": "@mstable/protocol/contracts/governance/InitializableGovernableWhitelist.sol:InitializableGovernableWhitelist",
            "label": "whitelist",
            "offset": 0,
            "slot": "9",
            "type": "t_mapping(t_address,t_bool)"
          }
        ],
        "types": {
          "t_address": {
            "encoding": "inplace",
            "label": "address",
            "numberOfBytes": "20"
          },
          "t_bool": {
            "encoding": "inplace",
            "label": "bool",
            "numberOfBytes": "1"
          },
          "t_bytes32": {
            "encoding": "inplace",
            "label": "bytes32",
            "numberOfBytes": "32"
          },
          "t_contract(INexus)154": {
            "encoding": "inplace",
            "label": "contract INexus",
            "numberOfBytes": "20"
          },
          "t_mapping(t_address,t_bool)": {
            "encoding": "mapping",
            "key": "t_address",
            "label": "mapping(address => bool)",
            "numberOfBytes": "32",
            "value": "t_bool"
          }
        }
      },
      "userdoc": {
        "methods": {},
        "notice": "Contract to store whitelisted address. The onlyWhitelisted() modifier should be used         to allow the function calls only from the whitelisted addresses."
      }
    }
  }
}