{
  "contracts/gnosis/test/TestHandler.sol": {
    "TestHandler": {
      "abi": [
        {
          "inputs": [],
          "name": "dudududu",
          "outputs": [
            {
              "internalType": "address",
              "name": "sender",
              "type": "address"
            },
            {
              "internalType": "address",
              "name": "manager",
              "type": "address"
            }
          ],
          "stateMutability": "view",
          "type": "function"
        }
      ],
      "devdoc": {
        "kind": "dev",
        "methods": {},
        "version": 1
      },
      "evm": {
        "bytecode": {
          "linkReferences": {},
          "object": "6080604052348015600f57600080fd5b50608480601d6000396000f3fe6080604052348015600f57600080fd5b506004361060285760003560e01c806354955e5914602d575b600080fd5b6040805160131936013560601c815233602082015281519081900390910190f3fea264697066735822122029f77e1f0361661f5bc6c0d8827ed80e2191f4126b3c34830ed187123e5e4ba664736f6c634300080a0033",
          "opcodes": "PUSH1 0x80 PUSH1 0x40 MSTORE CALLVALUE DUP1 ISZERO PUSH1 0xF JUMPI PUSH1 0x0 DUP1 REVERT JUMPDEST POP PUSH1 0x84 DUP1 PUSH1 0x1D PUSH1 0x0 CODECOPY PUSH1 0x0 RETURN INVALID PUSH1 0x80 PUSH1 0x40 MSTORE CALLVALUE DUP1 ISZERO PUSH1 0xF JUMPI PUSH1 0x0 DUP1 REVERT JUMPDEST POP PUSH1 0x4 CALLDATASIZE LT PUSH1 0x28 JUMPI PUSH1 0x0 CALLDATALOAD PUSH1 0xE0 SHR DUP1 PUSH4 0x54955E59 EQ PUSH1 0x2D JUMPI JUMPDEST PUSH1 0x0 DUP1 REVERT JUMPDEST PUSH1 0x40 DUP1 MLOAD PUSH1 0x13 NOT CALLDATASIZE ADD CALLDATALOAD PUSH1 0x60 SHR DUP2 MSTORE CALLER PUSH1 0x20 DUP3 ADD MSTORE DUP2 MLOAD SWAP1 DUP2 SWAP1 SUB SWAP1 SWAP2 ADD SWAP1 RETURN INVALID LOG2 PUSH5 0x6970667358 0x22 SLT KECCAK256 0x29 0xF7 PUSH31 0x1F0361661F5BC6C0D8827ED80E2191F4126B3C34830ED187123E5E4BA66473 PUSH16 0x6C634300080A00330000000000000000 "
        },
        "gasEstimates": {
          "creation": {
            "codeDepositCost": "26400",
            "executionCost": "81",
            "totalCost": "26481"
          },
          "external": {
            "dudududu()": "186"
          }
        },
        "methodIdentifiers": {
          "dudududu()": "54955e59"
        }
      },
      "storageLayout": {
        "storage": [],
        "types": null
      },
      "userdoc": {
        "kind": "user",
        "methods": {},
        "version": 1
      }
    }
  }
}