{
  "_format": "hh-sol-artifact-1",
  "contractName": "Migration",
  "sourceName": "contracts/gnosis/examples/libraries/Migrate_1_3_0_to_1_2_0.sol",
  "abi": [
    {
      "inputs": [
        {
          "internalType": "address",
          "name": "targetSingleton",
          "type": "address"
        }
      ],
      "stateMutability": "nonpayable",
      "type": "constructor"
    },
    {
      "anonymous": false,
      "inputs": [
        {
          "indexed": false,
          "internalType": "address",
          "name": "singleton",
          "type": "address"
        }
      ],
      "name": "ChangedMasterCopy",
      "type": "event"
    },
    {
      "inputs": [],
      "name": "migrate",
      "outputs": [],
      "stateMutability": "nonpayable",
      "type": "function"
    },
    {
      "inputs": [],
      "name": "migrationSingleton",
      "outputs": [
        {
          "internalType": "address",
          "name": "",
          "type": "address"
        }
      ],
      "stateMutability": "view",
      "type": "function"
    },
    {
      "inputs": [],
      "name": "safe120Singleton",
      "outputs": [
        {
          "internalType": "address",
          "name": "",
          "type": "address"
        }
      ],
      "stateMutability": "view",
      "type": "function"
    }
  ],
  "bytecode": "0x60c060405234801561001057600080fd5b5060405161035638038061035683398101604081905261002f916100a9565b6001600160a01b0381166100945760405162461bcd60e51b815260206004820152602260248201527f496e76616c69642073696e676c65746f6e20616464726573732070726f766964604482015261195960f21b606482015260840160405180910390fd5b6001600160a01b031660a052306080526100d9565b6000602082840312156100bb57600080fd5b81516001600160a01b03811681146100d257600080fd5b9392505050565b60805160a05161024d61010960003960008181608e0152610160015260008181604b015260c5015261024d6000f3fe608060405234801561001057600080fd5b50600436106100415760003560e01c80632e7731851461004657806389f54308146100895780638fd3ab80146100b0575b600080fd5b61006d7f000000000000000000000000000000000000000000000000000000000000000081565b6040516001600160a01b03909116815260200160405180910390f35b61006d7f000000000000000000000000000000000000000000000000000000000000000081565b6100b86100ba565b005b306001600160a01b037f00000000000000000000000000000000000000000000000000000000000000001614156101505760405162461bcd60e51b815260206004820152603060248201527f4d6967726174696f6e2073686f756c64206f6e6c792062652063616c6c65642060448201526f1d9a584819195b1959d85d1958d85b1b60821b606482015260840160405180910390fd5b600080546001600160a01b0319167f00000000000000000000000000000000000000000000000000000000000000006001600160a01b0316179055604080517f035aff83d86937d35b32e04f0ddc6ff469290eef2f1b692d8a815c89404d47496020820152309181019190915260600160408051808303601f190181529082905280516020918201206006556000546001600160a01b031682527f75e41bc35ff1bf14d81d1d2f649c0084a0f974f9289c803ec9898eeec4c8d0b8910160405180910390a156fea2646970667358221220cd5a76d41a935d4ba346fabbdff412704a1e789bcb06804f5bc81e50bda7ea1764736f6c634300080a0033",
  "linkReferences": {},
  "deployedLinkReferences": {}
}