{
  "_format": "hh-sol-artifact-1",
  "contractName": "CompatibilityFallbackHandler",
  "sourceName": "contracts/gnosis/handler/CompatibilityFallbackHandler.sol",
  "abi": [
    {
      "inputs": [],
      "name": "NAME",
      "outputs": [
        {
          "internalType": "string",
          "name": "",
          "type": "string"
        }
      ],
      "stateMutability": "view",
      "type": "function"
    },
    {
      "inputs": [],
      "name": "VERSION",
      "outputs": [
        {
          "internalType": "string",
          "name": "",
          "type": "string"
        }
      ],
      "stateMutability": "view",
      "type": "function"
    },
    {
      "inputs": [
        {
          "internalType": "bytes",
          "name": "message",
          "type": "bytes"
        }
      ],
      "name": "getMessageHash",
      "outputs": [
        {
          "internalType": "bytes32",
          "name": "",
          "type": "bytes32"
        }
      ],
      "stateMutability": "view",
      "type": "function"
    },
    {
      "inputs": [
        {
          "internalType": "contract GnosisSafe",
          "name": "safe",
          "type": "address"
        },
        {
          "internalType": "bytes",
          "name": "message",
          "type": "bytes"
        }
      ],
      "name": "getMessageHashForSafe",
      "outputs": [
        {
          "internalType": "bytes32",
          "name": "",
          "type": "bytes32"
        }
      ],
      "stateMutability": "view",
      "type": "function"
    },
    {
      "inputs": [],
      "name": "getModules",
      "outputs": [
        {
          "internalType": "address[]",
          "name": "",
          "type": "address[]"
        }
      ],
      "stateMutability": "view",
      "type": "function"
    },
    {
      "inputs": [
        {
          "internalType": "bytes32",
          "name": "_dataHash",
          "type": "bytes32"
        },
        {
          "internalType": "bytes",
          "name": "_signature",
          "type": "bytes"
        }
      ],
      "name": "isValidSignature",
      "outputs": [
        {
          "internalType": "bytes4",
          "name": "",
          "type": "bytes4"
        }
      ],
      "stateMutability": "view",
      "type": "function"
    },
    {
      "inputs": [
        {
          "internalType": "bytes",
          "name": "_data",
          "type": "bytes"
        },
        {
          "internalType": "bytes",
          "name": "_signature",
          "type": "bytes"
        }
      ],
      "name": "isValidSignature",
      "outputs": [
        {
          "internalType": "bytes4",
          "name": "",
          "type": "bytes4"
        }
      ],
      "stateMutability": "view",
      "type": "function"
    },
    {
      "inputs": [
        {
          "internalType": "address",
          "name": "",
          "type": "address"
        },
        {
          "internalType": "address",
          "name": "",
          "type": "address"
        },
        {
          "internalType": "uint256[]",
          "name": "",
          "type": "uint256[]"
        },
        {
          "internalType": "uint256[]",
          "name": "",
          "type": "uint256[]"
        },
        {
          "internalType": "bytes",
          "name": "",
          "type": "bytes"
        }
      ],
      "name": "onERC1155BatchReceived",
      "outputs": [
        {
          "internalType": "bytes4",
          "name": "",
          "type": "bytes4"
        }
      ],
      "stateMutability": "pure",
      "type": "function"
    },
    {
      "inputs": [
        {
          "internalType": "address",
          "name": "",
          "type": "address"
        },
        {
          "internalType": "address",
          "name": "",
          "type": "address"
        },
        {
          "internalType": "uint256",
          "name": "",
          "type": "uint256"
        },
        {
          "internalType": "uint256",
          "name": "",
          "type": "uint256"
        },
        {
          "internalType": "bytes",
          "name": "",
          "type": "bytes"
        }
      ],
      "name": "onERC1155Received",
      "outputs": [
        {
          "internalType": "bytes4",
          "name": "",
          "type": "bytes4"
        }
      ],
      "stateMutability": "pure",
      "type": "function"
    },
    {
      "inputs": [
        {
          "internalType": "address",
          "name": "",
          "type": "address"
        },
        {
          "internalType": "address",
          "name": "",
          "type": "address"
        },
        {
          "internalType": "uint256",
          "name": "",
          "type": "uint256"
        },
        {
          "internalType": "bytes",
          "name": "",
          "type": "bytes"
        }
      ],
      "name": "onERC721Received",
      "outputs": [
        {
          "internalType": "bytes4",
          "name": "",
          "type": "bytes4"
        }
      ],
      "stateMutability": "pure",
      "type": "function"
    },
    {
      "inputs": [
        {
          "internalType": "address",
          "name": "targetContract",
          "type": "address"
        },
        {
          "internalType": "bytes",
          "name": "calldataPayload",
          "type": "bytes"
        }
      ],
      "name": "simulate",
      "outputs": [
        {
          "internalType": "bytes",
          "name": "response",
          "type": "bytes"
        }
      ],
      "stateMutability": "nonpayable",
      "type": "function"
    },
    {
      "inputs": [
        {
          "internalType": "bytes4",
          "name": "interfaceId",
          "type": "bytes4"
        }
      ],
      "name": "supportsInterface",
      "outputs": [
        {
          "internalType": "bool",
          "name": "",
          "type": "bool"
        }
      ],
      "stateMutability": "view",
      "type": "function"
    },
    {
      "inputs": [
        {
          "internalType": "address",
          "name": "",
          "type": "address"
        },
        {
          "internalType": "address",
          "name": "",
          "type": "address"
        },
        {
          "internalType": "address",
          "name": "",
          "type": "address"
        },
        {
          "internalType": "uint256",
          "name": "",
          "type": "uint256"
        },
        {
          "internalType": "bytes",
          "name": "",
          "type": "bytes"
        },
        {
          "internalType": "bytes",
          "name": "",
          "type": "bytes"
        }
      ],
      "name": "tokensReceived",
      "outputs": [],
      "stateMutability": "pure",
      "type": "function"
    }
  ],
  "bytecode": "0x608060405234801561001057600080fd5b50610eb0806100206000396000f3fe608060405234801561001057600080fd5b50600436106100ce5760003560e01c80636ac247841161008c578063bc197c8111610066578063bc197c8114610205578063bd61951d14610227578063f23a6e611461023a578063ffa1ad741461025a57600080fd5b80636ac2478414610194578063a3f4df7e146101a7578063b2494df3146101f057600080fd5b806223de29146100d357806301ffc9a7146100ed5780630a1028c414610115578063150b7a02146101365780631626ba7e1461016e57806320c13b0b14610181575b600080fd5b6100eb6100e1366004610750565b5050505050505050565b005b6101006100fb366004610816565b61027e565b60405190151581526020015b60405180910390f35b6101286101233660046108e8565b6102d0565b60405190815260200161010c565b610155610144366004610924565b630a85bd0160e11b95945050505050565b6040516001600160e01b0319909116815260200161010c565b61015561017c366004610996565b6102dc565b61015561018f3660046109e1565b61039a565b6101286101a2366004610a4c565b610513565b6101e36040518060400160405280601881526020017f44656661756c742043616c6c6261636b2048616e646c6572000000000000000081525081565b60405161010c9190610ae8565b6101f861062b565b60405161010c9190610afb565b610155610213366004610b8c565b63bc197c8160e01b98975050505050505050565b6101e3610235366004610c29565b6106a6565b610155610248366004610c64565b63f23a6e6160e01b9695505050505050565b6101e3604051806040016040528060058152602001640312e302e360dc1b81525081565b60006001600160e01b03198216630271189760e51b14806102af57506001600160e01b03198216630a85bd0160e11b145b806102ca57506001600160e01b031982166301ffc9a760e01b145b92915050565b60006102ca3383610513565b60408051602080820186905282518083039091018152818301928390526320c13b0b60e01b9092526000913391839183916320c13b0b916103239189908990604401610d08565b602060405180830381865afa158015610340573d6000803e3d6000fd5b505050506040513d601f19601f820116820180604052508101906103649190610d38565b90506001600160e01b031981166320c13b0b60e01b1461038557600061038e565b630b135d3f60e11b5b925050505b9392505050565b60008033905060006103e28288888080601f01602080910402602001604051908101604052809392919081815260200183838082843760009201919091525061051392505050565b90508361049b57604051635ae6bd3760e01b8152600481018290526001600160a01b03831690635ae6bd3790602401602060405180830381865afa15801561042e573d6000803e3d6000fd5b505050506040513d601f19601f820116820180604052508101906104529190610d55565b6104965760405162461bcd60e51b815260206004820152601160248201527012185cda081b9bdd08185c1c1c9bdd9959607a1b604482015260640160405180910390fd5b610500565b60405163934f3a1160e01b81526001600160a01b0383169063934f3a11906104cf9084908b908b908b908b90600401610d6e565b60006040518083038186803b1580156104e757600080fd5b505afa1580156104fb573d6000803e3d6000fd5b505050505b506320c13b0b60e01b9695505050505050565b6000807f60b3cbf8b4a223d68d641b3b6ddf9a298e7f33710cf3d3a9d1146b5a6150fbca60001b838051906020012060405160200161055c929190918252602082015260400190565b604051602081830303815290604052805190602001209050601960f81b600160f81b856001600160a01b031663f698da256040518163ffffffff1660e01b8152600401602060405180830381865afa1580156105bc573d6000803e3d6000fd5b505050506040513d601f19601f820116820180604052508101906105e09190610d55565b6040516001600160f81b031993841660208201529290911660218301526022820152604281018290526062016040516020818303038152906040528051906020012091505092915050565b604051636617c22960e11b815260016004820152600a60248201526060903390600090829063cc2f845290604401600060405180830381865afa158015610676573d6000803e3d6000fd5b505050506040513d6000823e601f3d908101601f1916820160405261069e9190810190610db7565b509392505050565b606060405163b4faba0960e01b8152600436036004808301376020600036836000335af1505060203d036040519150808201604052806020833e5060005161039357805160208201fd5b6001600160a01b038116811461070557600080fd5b50565b60008083601f84011261071a57600080fd5b5081356001600160401b0381111561073157600080fd5b60208301915083602082850101111561074957600080fd5b9250929050565b60008060008060008060008060c0898b03121561076c57600080fd5b8835610777816106f0565b97506020890135610787816106f0565b96506040890135610797816106f0565b95506060890135945060808901356001600160401b03808211156107ba57600080fd5b6107c68c838d01610708565b909650945060a08b01359150808211156107df57600080fd5b506107ec8b828c01610708565b999c989b5096995094979396929594505050565b6001600160e01b03198116811461070557600080fd5b60006020828403121561082857600080fd5b813561039381610800565b634e487b7160e01b600052604160045260246000fd5b604051601f8201601f191681016001600160401b038111828210171561087157610871610833565b604052919050565b600082601f83011261088a57600080fd5b81356001600160401b038111156108a3576108a3610833565b6108b6601f8201601f1916602001610849565b8181528460208386010111156108cb57600080fd5b816020850160208301376000918101602001919091529392505050565b6000602082840312156108fa57600080fd5b81356001600160401b0381111561091057600080fd5b61091c84828501610879565b949350505050565b60008060008060006080868803121561093c57600080fd5b8535610947816106f0565b94506020860135610957816106f0565b93506040860135925060608601356001600160401b0381111561097957600080fd5b61098588828901610708565b969995985093965092949392505050565b6000806000604084860312156109ab57600080fd5b8335925060208401356001600160401b038111156109c857600080fd5b6109d486828701610708565b9497909650939450505050565b600080600080604085870312156109f757600080fd5b84356001600160401b0380821115610a0e57600080fd5b610a1a88838901610708565b90965094506020870135915080821115610a3357600080fd5b50610a4087828801610708565b95989497509550505050565b60008060408385031215610a5f57600080fd5b8235610a6a816106f0565b915060208301356001600160401b03811115610a8557600080fd5b610a9185828601610879565b9150509250929050565b6000815180845260005b81811015610ac157602081850181015186830182015201610aa5565b81811115610ad3576000602083870101525b50601f01601f19169290920160200192915050565b6020815260006103936020830184610a9b565b6020808252825182820181905260009190848201906040850190845b81811015610b3c5783516001600160a01b031683529284019291840191600101610b17565b50909695505050505050565b60008083601f840112610b5a57600080fd5b5081356001600160401b03811115610b7157600080fd5b6020830191508360208260051b850101111561074957600080fd5b60008060008060008060008060a0898b031215610ba857600080fd5b8835610bb3816106f0565b97506020890135610bc3816106f0565b965060408901356001600160401b0380821115610bdf57600080fd5b610beb8c838d01610b48565b909850965060608b0135915080821115610c0457600080fd5b610c108c838d01610b48565b909650945060808b01359150808211156107df57600080fd5b600080600060408486031215610c3e57600080fd5b8335610c49816106f0565b925060208401356001600160401b038111156109c857600080fd5b60008060008060008060a08789031215610c7d57600080fd5b8635610c88816106f0565b95506020870135610c98816106f0565b9450604087013593506060870135925060808701356001600160401b03811115610cc157600080fd5b610ccd89828a01610708565b979a9699509497509295939492505050565b81835281816020850137506000828201602090810191909152601f909101601f19169091010190565b604081526000610d1b6040830186610a9b565b8281036020840152610d2e818587610cdf565b9695505050505050565b600060208284031215610d4a57600080fd5b815161039381610800565b600060208284031215610d6757600080fd5b5051919050565b858152606060208201526000610d88606083018688610cdf565b8281036040840152610d9b818587610cdf565b98975050505050505050565b8051610db2816106f0565b919050565b60008060408385031215610dca57600080fd5b82516001600160401b0380821115610de157600080fd5b818501915085601f830112610df557600080fd5b8151602082821115610e0957610e09610833565b8160051b9250610e1a818401610849565b8281529284018101928181019089851115610e3457600080fd5b948201945b84861015610e5e5785519350610e4e846106f0565b8382529482019490820190610e39565b9650610e6d9050878201610da7565b945050505050925092905056fea26469706673582212208317d4de40dabb3232af5acac15f9c493e9ce6ea4964707bb6d47f6c138af0d664736f6c634300080a0033",
  "linkReferences": {},
  "deployedLinkReferences": {}
}