{
  "_format": "hh-sol-artifact-1",
  "contractName": "OwnerManager",
  "sourceName": "contracts/gnosis/base/OwnerManager.sol",
  "abi": [
    {
      "anonymous": false,
      "inputs": [
        {
          "indexed": false,
          "internalType": "address",
          "name": "owner",
          "type": "address"
        }
      ],
      "name": "AddedOwner",
      "type": "event"
    },
    {
      "anonymous": false,
      "inputs": [
        {
          "indexed": false,
          "internalType": "uint256",
          "name": "threshold",
          "type": "uint256"
        }
      ],
      "name": "ChangedThreshold",
      "type": "event"
    },
    {
      "anonymous": false,
      "inputs": [
        {
          "indexed": false,
          "internalType": "address",
          "name": "owner",
          "type": "address"
        }
      ],
      "name": "RemovedOwner",
      "type": "event"
    },
    {
      "inputs": [
        {
          "internalType": "address",
          "name": "owner",
          "type": "address"
        },
        {
          "internalType": "uint256",
          "name": "_threshold",
          "type": "uint256"
        }
      ],
      "name": "addOwnerWithThreshold",
      "outputs": [],
      "stateMutability": "nonpayable",
      "type": "function"
    },
    {
      "inputs": [
        {
          "internalType": "uint256",
          "name": "_threshold",
          "type": "uint256"
        }
      ],
      "name": "changeThreshold",
      "outputs": [],
      "stateMutability": "nonpayable",
      "type": "function"
    },
    {
      "inputs": [],
      "name": "getOwners",
      "outputs": [
        {
          "internalType": "address[]",
          "name": "",
          "type": "address[]"
        }
      ],
      "stateMutability": "view",
      "type": "function"
    },
    {
      "inputs": [],
      "name": "getThreshold",
      "outputs": [
        {
          "internalType": "uint256",
          "name": "",
          "type": "uint256"
        }
      ],
      "stateMutability": "view",
      "type": "function"
    },
    {
      "inputs": [
        {
          "internalType": "address",
          "name": "owner",
          "type": "address"
        }
      ],
      "name": "isOwner",
      "outputs": [
        {
          "internalType": "bool",
          "name": "",
          "type": "bool"
        }
      ],
      "stateMutability": "view",
      "type": "function"
    },
    {
      "inputs": [
        {
          "internalType": "address",
          "name": "prevOwner",
          "type": "address"
        },
        {
          "internalType": "address",
          "name": "owner",
          "type": "address"
        },
        {
          "internalType": "uint256",
          "name": "_threshold",
          "type": "uint256"
        }
      ],
      "name": "removeOwner",
      "outputs": [],
      "stateMutability": "nonpayable",
      "type": "function"
    },
    {
      "inputs": [
        {
          "internalType": "address",
          "name": "prevOwner",
          "type": "address"
        },
        {
          "internalType": "address",
          "name": "oldOwner",
          "type": "address"
        },
        {
          "internalType": "address",
          "name": "newOwner",
          "type": "address"
        }
      ],
      "name": "swapOwner",
      "outputs": [],
      "stateMutability": "nonpayable",
      "type": "function"
    }
  ],
  "bytecode": "0x608060405234801561001057600080fd5b50610a5d806100206000396000f3fe608060405234801561001057600080fd5b506004361061007d5760003560e01c8063a0e67e2b1161005b578063a0e67e2b146100d2578063e318b52b146100e7578063e75235b8146100fa578063f8dc5dd91461010b57600080fd5b80630d582f13146100825780632f54bf6e14610097578063694e80c3146100bf575b600080fd5b61009561009036600461084c565b61011e565b005b6100aa6100a5366004610876565b61028f565b60405190151581526020015b60405180910390f35b6100956100cd366004610898565b6102ca565b6100da610380565b6040516100b691906108b1565b6100956100f53660046108fe565b610470565b6002546040519081526020016100b6565b610095610119366004610941565b610675565b6001600160a01b0382161580159061014057506001600160a01b038216600114155b801561015557506001600160a01b0382163014155b61017a5760405162461bcd60e51b81526004016101719061097d565b60405180910390fd5b6001600160a01b0382811660009081526020819052604090205416156101ca5760405162461bcd60e51b815260206004820152600560248201526411d4cc8c0d60da1b6044820152606401610171565b600060208190527fada5013122d395ba3c54772283fb069b10426056ef8ca54750cb9bb552a59e7d80546001600160a01b03858116808552604085208054929093166001600160a01b03199283161790925560018085528354909116909117909155805491610238836109b2565b90915550506040516001600160a01b03831681527f9465fa0c962cc76958e6373a993326400c1c94f8be2fe3a952adfa7f60b2ea269060200160405180910390a1806002541461028b5761028b816102ca565b5050565b60006001600160a01b0382166001148015906102c457506001600160a01b038281166000908152602081905260409020541615155b92915050565b6102d26107f7565b60015481111561030c5760405162461bcd60e51b8152602060048201526005602482015264475332303160d81b6044820152606401610171565b60018110156103455760405162461bcd60e51b815260206004820152600560248201526423a999181960d91b6044820152606401610171565b60028190556040518181527f610f7ff2b304ae8903c3de74c60c6ab1f7d6226b3f52c5161905bb5ad4039c939060200160405180910390a150565b6060600060015467ffffffffffffffff81111561039f5761039f6109cd565b6040519080825280602002602001820160405280156103c8578160200160208202803683370190505b506001600090815260208190527fada5013122d395ba3c54772283fb069b10426056ef8ca54750cb9bb552a59e7d54919250906001600160a01b03165b6001600160a01b0381166001146104685780838381518110610429576104296109e3565b6001600160a01b039283166020918202929092018101919091529181166000908152918290526040909120541681610460816109b2565b925050610405565b509092915050565b6104786107f7565b6001600160a01b0381161580159061049a57506001600160a01b038116600114155b80156104af57506001600160a01b0381163014155b6104cb5760405162461bcd60e51b81526004016101719061097d565b6001600160a01b03818116600090815260208190526040902054161561051b5760405162461bcd60e51b815260206004820152600560248201526411d4cc8c0d60da1b6044820152606401610171565b6001600160a01b0382161580159061053d57506001600160a01b038216600114155b6105595760405162461bcd60e51b81526004016101719061097d565b6001600160a01b038381166000908152602081905260409020548116908316146105ad5760405162461bcd60e51b8152602060048201526005602482015264475332303560d81b6044820152606401610171565b6001600160a01b03828116600081815260208181526040808320805487871680865283862080549289166001600160a01b0319938416179055968a1685528285208054821690971790965592849052825490941690915591519081527ff8d49fc529812e9a7c5c50e69c20f0dccc0db8fa95c98bc58cc9a4f1c1299eaf910160405180910390a16040516001600160a01b03821681527f9465fa0c962cc76958e6373a993326400c1c94f8be2fe3a952adfa7f60b2ea269060200160405180910390a1505050565b806001805461068491906109f9565b10156106ba5760405162461bcd60e51b8152602060048201526005602482015264475332303160d81b6044820152606401610171565b6001600160a01b038216158015906106dc57506001600160a01b038216600114155b6106f85760405162461bcd60e51b81526004016101719061097d565b6001600160a01b0383811660009081526020819052604090205481169083161461074c5760405162461bcd60e51b8152602060048201526005602482015264475332303560d81b6044820152606401610171565b6001600160a01b03828116600081815260208190526040808220805488861684529183208054929095166001600160a01b0319928316179094559181528254909116909155600180549161079f83610a10565b90915550506040516001600160a01b03831681527ff8d49fc529812e9a7c5c50e69c20f0dccc0db8fa95c98bc58cc9a4f1c1299eaf9060200160405180910390a180600254146107f2576107f2816102ca565b505050565b33301461082e5760405162461bcd60e51b8152602060048201526005602482015264475330333160d81b6044820152606401610171565b565b80356001600160a01b038116811461084757600080fd5b919050565b6000806040838503121561085f57600080fd5b61086883610830565b946020939093013593505050565b60006020828403121561088857600080fd5b61089182610830565b9392505050565b6000602082840312156108aa57600080fd5b5035919050565b6020808252825182820181905260009190848201906040850190845b818110156108f25783516001600160a01b0316835292840192918401916001016108cd565b50909695505050505050565b60008060006060848603121561091357600080fd5b61091c84610830565b925061092a60208501610830565b915061093860408501610830565b90509250925092565b60008060006060848603121561095657600080fd5b61095f84610830565b925061096d60208501610830565b9150604084013590509250925092565b602080825260059082015264475332303360d81b604082015260600190565b634e487b7160e01b600052601160045260246000fd5b60006000198214156109c6576109c661099c565b5060010190565b634e487b7160e01b600052604160045260246000fd5b634e487b7160e01b600052603260045260246000fd5b600082821015610a0b57610a0b61099c565b500390565b600081610a1f57610a1f61099c565b50600019019056fea26469706673582212204a456327b7c47687ab2be119b6788c97b0d3a8413a4cd669da0ee32ca7a04a0c64736f6c634300080a0033",
  "linkReferences": {},
  "deployedLinkReferences": {}
}