{
  "_format": "hh-sol-artifact-1",
  "contractName": "DelegateCallTransactionGuard",
  "sourceName": "contracts/gnosis/examples/guards/DelegateCallTransactionGuard.sol",
  "abi": [
    {
      "inputs": [
        {
          "internalType": "address",
          "name": "target",
          "type": "address"
        }
      ],
      "stateMutability": "nonpayable",
      "type": "constructor"
    },
    {
      "stateMutability": "nonpayable",
      "type": "fallback"
    },
    {
      "inputs": [],
      "name": "allowedTarget",
      "outputs": [
        {
          "internalType": "address",
          "name": "",
          "type": "address"
        }
      ],
      "stateMutability": "view",
      "type": "function"
    },
    {
      "inputs": [
        {
          "internalType": "bytes32",
          "name": "",
          "type": "bytes32"
        },
        {
          "internalType": "bool",
          "name": "",
          "type": "bool"
        }
      ],
      "name": "checkAfterExecution",
      "outputs": [],
      "stateMutability": "view",
      "type": "function"
    },
    {
      "inputs": [
        {
          "internalType": "address",
          "name": "to",
          "type": "address"
        },
        {
          "internalType": "uint256",
          "name": "",
          "type": "uint256"
        },
        {
          "internalType": "bytes",
          "name": "",
          "type": "bytes"
        },
        {
          "internalType": "enum Enum.Operation",
          "name": "operation",
          "type": "uint8"
        },
        {
          "internalType": "uint256",
          "name": "",
          "type": "uint256"
        },
        {
          "internalType": "uint256",
          "name": "",
          "type": "uint256"
        },
        {
          "internalType": "uint256",
          "name": "",
          "type": "uint256"
        },
        {
          "internalType": "address",
          "name": "",
          "type": "address"
        },
        {
          "internalType": "address payable",
          "name": "",
          "type": "address"
        },
        {
          "internalType": "bytes",
          "name": "",
          "type": "bytes"
        },
        {
          "internalType": "address",
          "name": "",
          "type": "address"
        }
      ],
      "name": "checkTransaction",
      "outputs": [],
      "stateMutability": "view",
      "type": "function"
    },
    {
      "inputs": [
        {
          "internalType": "bytes4",
          "name": "interfaceId",
          "type": "bytes4"
        }
      ],
      "name": "supportsInterface",
      "outputs": [
        {
          "internalType": "bool",
          "name": "",
          "type": "bool"
        }
      ],
      "stateMutability": "view",
      "type": "function"
    }
  ],
  "bytecode": "0x60a060405234801561001057600080fd5b506040516104b63803806104b683398101604081905261002f91610040565b6001600160a01b0316608052610070565b60006020828403121561005257600080fd5b81516001600160a01b038116811461006957600080fd5b9392505050565b60805161042561009160003960008181607b015261012f01526104256000f3fe608060405234801561001057600080fd5b506004361061004c5760003560e01c806301ffc9a71461004e57806373a8c6821461007657806375f0bb52146100b557806393271368146100c8575b005b61006161005c3660046101c0565b6100da565b60405190151581526020015b60405180910390f35b61009d7f000000000000000000000000000000000000000000000000000000000000000081565b6040516001600160a01b03909116815260200161006d565b61004c6100c33660046102bf565b610111565b61004c6100d63660046103a4565b5050565b60006001600160e01b0319821663736bd41d60e11b148061010b57506001600160e01b031982166301ffc9a760e01b145b92915050565b6001886001811115610125576101256103d9565b14158061016357507f00000000000000000000000000000000000000000000000000000000000000006001600160a01b03168b6001600160a01b0316145b6101b35760405162461bcd60e51b815260206004820152601760248201527f546869732063616c6c2069732072657374726963746564000000000000000000604482015260640160405180910390fd5b5050505050505050505050565b6000602082840312156101d257600080fd5b81356001600160e01b0319811681146101ea57600080fd5b9392505050565b80356001600160a01b038116811461020857600080fd5b919050565b634e487b7160e01b600052604160045260246000fd5b600082601f83011261023457600080fd5b813567ffffffffffffffff8082111561024f5761024f61020d565b604051601f8301601f19908116603f011681019082821181831017156102775761027761020d565b8160405283815286602085880101111561029057600080fd5b836020870160208301376000602085830101528094505050505092915050565b80356002811061020857600080fd5b60008060008060008060008060008060006101608c8e0312156102e157600080fd5b6102ea8c6101f1565b9a5060208c0135995067ffffffffffffffff8060408e0135111561030d57600080fd5b61031d8e60408f01358f01610223565b995061032b60608e016102b0565b985060808d0135975060a08d0135965060c08d0135955061034e60e08e016101f1565b945061035d6101008e016101f1565b9350806101208e0135111561037157600080fd5b506103838d6101208e01358e01610223565b91506103926101408d016101f1565b90509295989b509295989b9093969950565b600080604083850312156103b757600080fd5b82359150602083013580151581146103ce57600080fd5b809150509250929050565b634e487b7160e01b600052602160045260246000fdfea2646970667358221220c27301b1ea31641392df4f4838bc023b209d4fc9b289997d246777f9c953b8c764736f6c634300080a0033",
  "linkReferences": {},
  "deployedLinkReferences": {}
}