{
  "_format": "hh-sol-artifact-1",
  "contractName": "Ballot",
  "sourceName": "contracts/voting/Ballot.sol",
  "abi": [
    {
      "inputs": [
        {
          "internalType": "bytes32[]",
          "name": "proposalNames",
          "type": "bytes32[]"
        },
        {
          "internalType": "contract Seed",
          "name": "_seed",
          "type": "address"
        },
        {
          "internalType": "contract GnosisSafe",
          "name": "_safe",
          "type": "address"
        }
      ],
      "stateMutability": "nonpayable",
      "type": "constructor"
    },
    {
      "inputs": [
        {
          "internalType": "address",
          "name": "owner",
          "type": "address"
        }
      ],
      "name": "addOwnerToGnosis",
      "outputs": [],
      "stateMutability": "nonpayable",
      "type": "function"
    },
    {
      "inputs": [],
      "name": "chairperson",
      "outputs": [
        {
          "internalType": "address",
          "name": "",
          "type": "address"
        }
      ],
      "stateMutability": "view",
      "type": "function"
    },
    {
      "inputs": [
        {
          "internalType": "address",
          "name": "voter",
          "type": "address"
        }
      ],
      "name": "checkVoterBalance",
      "outputs": [
        {
          "internalType": "uint256",
          "name": "balance",
          "type": "uint256"
        }
      ],
      "stateMutability": "view",
      "type": "function"
    },
    {
      "inputs": [
        {
          "internalType": "address",
          "name": "to",
          "type": "address"
        }
      ],
      "name": "delegate",
      "outputs": [],
      "stateMutability": "nonpayable",
      "type": "function"
    },
    {
      "inputs": [],
      "name": "getAllProposals",
      "outputs": [
        {
          "components": [
            {
              "internalType": "bytes32",
              "name": "name",
              "type": "bytes32"
            },
            {
              "internalType": "uint256",
              "name": "voteCount",
              "type": "uint256"
            }
          ],
          "internalType": "struct Ballot.Proposal[]",
          "name": "",
          "type": "tuple[]"
        }
      ],
      "stateMutability": "view",
      "type": "function"
    },
    {
      "inputs": [
        {
          "internalType": "address",
          "name": "voter",
          "type": "address"
        }
      ],
      "name": "giveRightToVote",
      "outputs": [],
      "stateMutability": "nonpayable",
      "type": "function"
    },
    {
      "inputs": [
        {
          "internalType": "uint256",
          "name": "",
          "type": "uint256"
        }
      ],
      "name": "proposals",
      "outputs": [
        {
          "internalType": "bytes32",
          "name": "name",
          "type": "bytes32"
        },
        {
          "internalType": "uint256",
          "name": "voteCount",
          "type": "uint256"
        }
      ],
      "stateMutability": "view",
      "type": "function"
    },
    {
      "inputs": [
        {
          "internalType": "address",
          "name": "forRemOwner",
          "type": "address"
        },
        {
          "internalType": "address",
          "name": "owner",
          "type": "address"
        }
      ],
      "name": "removeOwnerFromGnosis",
      "outputs": [],
      "stateMutability": "nonpayable",
      "type": "function"
    },
    {
      "inputs": [],
      "name": "safe",
      "outputs": [
        {
          "internalType": "contract GnosisSafe",
          "name": "",
          "type": "address"
        }
      ],
      "stateMutability": "view",
      "type": "function"
    },
    {
      "inputs": [],
      "name": "seed",
      "outputs": [
        {
          "internalType": "contract Seed",
          "name": "",
          "type": "address"
        }
      ],
      "stateMutability": "view",
      "type": "function"
    },
    {
      "inputs": [
        {
          "internalType": "uint256",
          "name": "proposal",
          "type": "uint256"
        }
      ],
      "name": "vote",
      "outputs": [],
      "stateMutability": "nonpayable",
      "type": "function"
    },
    {
      "inputs": [
        {
          "internalType": "address",
          "name": "",
          "type": "address"
        }
      ],
      "name": "voters",
      "outputs": [
        {
          "internalType": "uint256",
          "name": "weight",
          "type": "uint256"
        },
        {
          "internalType": "bool",
          "name": "voted",
          "type": "bool"
        },
        {
          "internalType": "address",
          "name": "delegate",
          "type": "address"
        },
        {
          "internalType": "uint256",
          "name": "vote",
          "type": "uint256"
        }
      ],
      "stateMutability": "view",
      "type": "function"
    },
    {
      "inputs": [],
      "name": "winnerName",
      "outputs": [
        {
          "internalType": "bytes32",
          "name": "winnerName_",
          "type": "bytes32"
        }
      ],
      "stateMutability": "view",
      "type": "function"
    },
    {
      "inputs": [],
      "name": "winningProposal",
      "outputs": [
        {
          "internalType": "uint256",
          "name": "winningProposal_",
          "type": "uint256"
        }
      ],
      "stateMutability": "view",
      "type": "function"
    }
  ],
  "bytecode": "0x60806040523480156200001157600080fd5b5060405162001af138038062001af183398101604081905262000034916200029e565b8251620000875760405162461bcd60e51b815260206004820152601a60248201527f50726f706f73616c732063616e206e6f7420626520656d707479000000000000604482015260640160405180910390fd5b600080546001600160a01b03199081166001600160a01b03858116918217909355600180548316938516939093178355600280543393169290921790915560408051630e7f2b1760e11b81529051631cfe562e91600480820192602092909190829003018186803b158015620000fc57600080fd5b505afa15801562000111573d6000803e3d6000fd5b505050506040513d601f19601f820116820180604052508101906200013791906200038d565b15620001c85760008054906101000a90046001600160a01b03166001600160a01b0316631cfe562e6040518163ffffffff1660e01b815260040160206040518083038186803b1580156200018a57600080fd5b505afa1580156200019f573d6000803e3d6000fd5b505050506040513d601f19601f82011682018060405250810190620001c591906200038d565b90505b6002546001600160a01b031660009081526003602052604081208290555b8451811015620002605760046040518060400160405280878481518110620002125762000212620003a7565b602090810291909101810151825260009181018290528354600181810186559483529181902083516002909302019182559190910151910155806200025781620003bd565b915050620001e6565b5050505050620003e7565b634e487b7160e01b600052604160045260246000fd5b80516001600160a01b03811681146200029957600080fd5b919050565b600080600060608486031215620002b457600080fd5b83516001600160401b0380821115620002cc57600080fd5b818601915086601f830112620002e157600080fd5b8151602082821115620002f857620002f86200026b565b8160051b604051601f19603f830116810181811086821117156200032057620003206200026b565b60405292835281830193508481018201928a8411156200033f57600080fd5b948201945b838610156200035f5785518552948201949382019362000344565b975062000370905088820162000281565b955050505050620003846040850162000281565b90509250925092565b600060208284031215620003a057600080fd5b5051919050565b634e487b7160e01b600052603260045260246000fd5b6000600019821415620003e057634e487b7160e01b600052601160045260246000fd5b5060010190565b6116fa80620003f76000396000f3fe608060405234801561001057600080fd5b50600436106100ea5760003560e01c80637d94792a1161008c578063cceb68f511610066578063cceb68f514610243578063da2c930914610258578063e2ba53f01461026b578063ed4e824f1461027357600080fd5b80637d94792a146101ab5780639e7b8d61146101be578063a3ec138d146101d157600080fd5b80632e4176cf116100c85780632e4176cf1461015c578063314b78291461016f5780635c19a95c14610182578063609ff1bd1461019557600080fd5b80630121b93f146100ef578063013cf08b14610104578063186f035414610131575b600080fd5b6101026100fd36600461131a565b61029c565b005b61011761011236600461131a565b610391565b604080519283526020830191909152015b60405180910390f35b600154610144906001600160a01b031681565b6040516001600160a01b039091168152602001610128565b600254610144906001600160a01b031681565b61010261017d36600461134b565b6103bf565b61010261019036600461134b565b6108c9565b61019d610ac8565b604051908152602001610128565b600054610144906001600160a01b031681565b6101026101cc36600461134b565b610b45565b6102146101df36600461134b565b600360205260009081526040902080546001820154600290920154909160ff8116916101009091046001600160a01b03169084565b604051610128949392919093845291151560208401526001600160a01b03166040830152606082015260800190565b61024b610cd8565b604051610128919061136f565b6101026102663660046113be565b610dc4565b61019d6111aa565b61019d61028136600461134b565b6001600160a01b031660009081526003602052604090205490565b33600090815260036020526040902080546102f55760405162461bcd60e51b8152602060048201526014602482015273486173206e6f20726967687420746f20766f746560601b60448201526064015b60405180910390fd5b600181015460ff161561033b5760405162461bcd60e51b815260206004820152600e60248201526d20b63932b0b23c903b37ba32b21760911b60448201526064016102ec565b6001818101805460ff191690911790556002810182905580546004805484908110610368576103686113f7565b906000526020600020906002020160010160008282546103889190611423565b90915550505050565b600481815481106103a157600080fd5b60009182526020909120600290910201805460019091015490915082565b6001600160a01b0381166103d257600080fd5b60005460408051630e7f2b1760e11b815290516064926001600160a01b031691631cfe562e916004808301926020929190829003018186803b15801561041757600080fd5b505afa15801561042b573d6000803e3d6000fd5b505050506040513d601f19601f8201168201806040525081019061044f919061143b565b6104599190611454565b610464906033611476565b6000546040516303a8d15560e61b81523360048201526001600160a01b039091169063ea3455409060240160206040518083038186803b1580156104a757600080fd5b505afa1580156104bb573d6000803e3d6000fd5b505050506040513d601f19601f820116820180604052508101906104df919061143b565b6104ea906064611476565b10156105335760405162461bcd60e51b81526020600482015260186024820152771b9bdd08195b9bdd59da08199d5b991cc81a5b881c1bdbdb60421b60448201526064016102ec565b6105cf6040518060600160405280602181526020016116a4602191396000546040516303a8d15560e61b81523360048201526001600160a01b039091169063ea3455409060240160206040518083038186803b15801561059257600080fd5b505afa1580156105a6573d6000803e3d6000fd5b505050506040513d601f19601f820116820180604052508101906105ca919061143b565b6111dd565b6106546040518060400160405280601d81526020017f736565642e66756e64696e67436f6c6c6563746564282920697320257300000081525060008054906101000a90046001600160a01b03166001600160a01b0316631cfe562e6040518163ffffffff1660e01b815260040160206040518083038186803b15801561059257600080fd5b6001546040805163a0e67e2b60e01b815290516000926001600160a01b03169163a0e67e2b9160048083019286929190829003018186803b15801561069857600080fd5b505afa1580156106ac573d6000803e3d6000fd5b505050506040513d6000823e601f3d908101601f191682016040526106d491908101906114bb565b90506107436040518060400160405280601681526020017533b2ba27bbb732b9399034b99012b9901d1012b9900560511b8152508260008151811061071b5761071b6113f7565b602002602001015183600181518110610736576107366113f7565b6020026020010151611222565b60018054604051630d582f1360e01b81526001600160a01b0385811660048301526024820193909352911690630d582f1390604401600060405180830381600087803b15801561079257600080fd5b505af11580156107a6573d6000803e3d6000fd5b50505050600160009054906101000a90046001600160a01b03166001600160a01b031663a0e67e2b6040518163ffffffff1660e01b815260040160006040518083038186803b1580156107f857600080fd5b505afa15801561080c573d6000803e3d6000fd5b505050506040513d6000823e601f3d908101601f1916820160405261083491908101906114bb565b90506108c56040518060400160405280601a81526020017f6765744f776e657273206973202573203a202573203a2573200a00000000000081525082600081518110610882576108826113f7565b60200260200101518360018151811061089d5761089d6113f7565b6020026020010151846002815181106108b8576108b86113f7565b6020026020010151611269565b5050565b336000908152600360205260409020600181015460ff16156109225760405162461bcd60e51b81526020600482015260126024820152712cb7ba9030b63932b0b23c903b37ba32b21760711b60448201526064016102ec565b6001600160a01b03821633141561097b5760405162461bcd60e51b815260206004820152601e60248201527f53656c662d64656c65676174696f6e20697320646973616c6c6f7765642e000060448201526064016102ec565b6001600160a01b0382811660009081526003602052604090206001015461010090041615610a1e576001600160a01b0391821660009081526003602052604090206001015461010090049091169033821415610a195760405162461bcd60e51b815260206004820152601960248201527f466f756e64206c6f6f7020696e2064656c65676174696f6e2e0000000000000060448201526064016102ec565b61097b565b600181810180546001600160a81b0319166101006001600160a01b03861690810291909117831790915560009081526003602052604090209081015460ff1615610aa95781600001546004826002015481548110610a7e57610a7e6113f7565b90600052602060002090600202016001016000828254610a9e9190611423565b90915550610ac39050565b815481548290600090610abd908490611423565b90915550505b505050565b600080805b600454811015610b40578160048281548110610aeb57610aeb6113f7565b9060005260206000209060020201600101541115610b2e5760048181548110610b1657610b166113f7565b90600052602060002090600202016001015491508092505b80610b3881611580565b915050610acd565b505090565b6002546001600160a01b03163314610bb05760405162461bcd60e51b815260206004820152602860248201527f4f6e6c79206368616972706572736f6e2063616e2067697665207269676874206044820152673a37903b37ba329760c11b60648201526084016102ec565b6001600160a01b03811660009081526003602052604090206001015460ff1615610c1c5760405162461bcd60e51b815260206004820152601860248201527f54686520766f74657220616c726561647920766f7465642e000000000000000060448201526064016102ec565b6001600160a01b03811660009081526003602052604090205415610c3f57600080fd5b6000546040516303a8d15560e61b81526001600160a01b0383811660048301529091169063ea3455409060240160206040518083038186803b158015610c8457600080fd5b505afa158015610c98573d6000803e3d6000fd5b505050506040513d601f19601f82011682018060405250810190610cbc919061143b565b6001600160a01b03909116600090815260036020526040902055565b60045460609060009067ffffffffffffffff811115610cf957610cf9611495565b604051908082528060200260200182016040528015610d3e57816020015b6040805180820190915260008082526020820152815260200190600190039081610d175790505b50905060005b600454811015610dbe5760048181548110610d6157610d616113f7565b906000526020600020906002020160405180604001604052908160008201548152602001600182015481525050828281518110610da057610da06113f7565b60200260200101819052508080610db690611580565b915050610d44565b50919050565b6001600160a01b038116610dd757600080fd5b60005460408051630e7f2b1760e11b815290516064926001600160a01b031691631cfe562e916004808301926020929190829003018186803b158015610e1c57600080fd5b505afa158015610e30573d6000803e3d6000fd5b505050506040513d601f19601f82011682018060405250810190610e54919061143b565b610e5e9190611454565b610e69906033611476565b6000546040516303a8d15560e61b81523360048201526001600160a01b039091169063ea3455409060240160206040518083038186803b158015610eac57600080fd5b505afa158015610ec0573d6000803e3d6000fd5b505050506040513d601f19601f82011682018060405250810190610ee4919061143b565b610eef906064611476565b1015610f385760405162461bcd60e51b81526020600482015260186024820152771b9bdd08195b9bdd59da08199d5b991cc81a5b881c1bdbdb60421b60448201526064016102ec565b6001546040805163a0e67e2b60e01b815290516000926001600160a01b03169163a0e67e2b9160048083019286929190829003018186803b158015610f7c57600080fd5b505afa158015610f90573d6000803e3d6000fd5b505050506040513d6000823e601f3d908101601f19168201604052610fb891908101906114bb565b90506110066040518060400160405280601a81526020017f6765744f776e657273206973202573203a202573203a2573200a00000000000081525082600081518110610882576108826113f7565b6110356040518060400160405280600d81526020016c37bbb732b91034b99012b9900560991b815250836112b8565b61106a604051806040016040528060138152602001723337b92932b6a7bbb732b91034b99012b9900560691b815250846112b8565b6001805460405163f8dc5dd960e01b81526001600160a01b0385811660048301528681166024830152604482019390935291169063f8dc5dd990606401600060405180830381600087803b1580156110c157600080fd5b505af11580156110d5573d6000803e3d6000fd5b50505050600160009054906101000a90046001600160a01b03166001600160a01b031663a0e67e2b6040518163ffffffff1660e01b815260040160006040518083038186803b15801561112757600080fd5b505afa15801561113b573d6000803e3d6000fd5b505050506040513d6000823e601f3d908101601f1916820160405261116391908101906114bb565b9050610ac36040518060400160405280601681526020017533b2ba27bbb732b9399034b99012b9901d1012b9900560511b8152508260008151811061071b5761071b6113f7565b600060046111b6610ac8565b815481106111c6576111c66113f7565b906000526020600020906002020160000154905090565b6108c582826040516024016111f39291906115e8565b60408051601f198184030181529190526020810180516001600160e01b03166309710a9d60e41b1790526112f9565b610ac383838360405160240161123a9392919061160a565b60408051601f198184030181529190526020810180516001600160e01b03166307e763af60e51b1790526112f9565b6112b284848484604051602401611283949392919061163d565b60408051601f198184030181529190526020810180516001600160e01b03166376c7947b60e11b1790526112f9565b50505050565b6108c582826040516024016112ce929190611679565b60408051601f198184030181529190526020810180516001600160e01b031663319af33360e01b1790525b80516a636f6e736f6c652e6c6f67602083016000808483855afa5050505050565b60006020828403121561132c57600080fd5b5035919050565b6001600160a01b038116811461134857600080fd5b50565b60006020828403121561135d57600080fd5b813561136881611333565b9392505050565b602080825282518282018190526000919060409081850190868401855b828110156113b15781518051855286015186850152928401929085019060010161138c565b5091979650505050505050565b600080604083850312156113d157600080fd5b82356113dc81611333565b915060208301356113ec81611333565b809150509250929050565b634e487b7160e01b600052603260045260246000fd5b634e487b7160e01b600052601160045260246000fd5b600082198211156114365761143661140d565b500190565b60006020828403121561144d57600080fd5b5051919050565b60008261147157634e487b7160e01b600052601260045260246000fd5b500490565b60008160001904831182151516156114905761149061140d565b500290565b634e487b7160e01b600052604160045260246000fd5b80516114b681611333565b919050565b600060208083850312156114ce57600080fd5b825167ffffffffffffffff808211156114e657600080fd5b818501915085601f8301126114fa57600080fd5b81518181111561150c5761150c611495565b8060051b604051601f19603f8301168101818110858211171561153157611531611495565b60405291825284820192508381018501918883111561154f57600080fd5b938501935b8285101561157457611565856114ab565b84529385019392850192611554565b98975050505050505050565b60006000198214156115945761159461140d565b5060010190565b6000815180845260005b818110156115c1576020818501810151868301820152016115a5565b818111156115d3576000602083870101525b50601f01601f19169290920160200192915050565b6040815260006115fb604083018561159b565b90508260208301529392505050565b60608152600061161d606083018661159b565b6001600160a01b0394851660208401529290931660409091015292915050565b608081526000611650608083018761159b565b6001600160a01b0395861660208401529385166040830152509216606090920191909152919050565b60408152600061168c604083018561159b565b905060018060a01b0383166020830152939250505056fe736565642e63616c63756c617465436c61696d286f776e65722920206973202573a26469706673582212207f1ece92c54b6fc7670b1279c3ef224516011d15053a7a1acf6e499c3e41bc6764736f6c63430008090033",
  "linkReferences": {},
  "deployedLinkReferences": {}
}